:020000040800F2
:10000000E006002029020008F5190008ED19000893
:10001000F119000831030008711C000800000000FD
:10002000000000000000000000000000551C000857
:100030003503000800000000F9190008591C0008E9
:10004000430200084302000843020008430200087C
:10005000430200084302000843020008430200086C
:10006000430200084302000843020008430200085C
:10007000430200084302000843020008430200084C
:10008000430200084302000843020008430200083C
:10009000430200084302000843020008430200082C
:1000A000430200084302000843020008430200081C
:1000B000430200084302000843020008430200080C
:1000C00043020008430200084302000843020008FC
:1000D00043020008430200084302000843020008EC
:1000E00043020008430200084302000843020008DC
:1000F00043020008430200084302000843020008CC
:1001000043020008430200084302000843020008BB
:1001100043020008430200084302000843020008AB
:10012000430200084302000843020008430200089B
:10013000430200084302000843020008430200088B
:10014000430200084302000843020008430200087B
:10015000430200084302000843020008430200086B
:10016000430200084302000843020008430200085B
:100170004302000843020008430200080000000098
:10018000430200084302000800F002F800F03CF8C7
:100190000AA090E8000C82448344AAF10107DA45E2
:1001A00001D100F031F8AFF2090EBAE80F0013F0F8
:1001B000010F18BFFB1A43F001031847B81C0000D9
:1001C000D81C0000103A24BF78C878C1FAD852076A
:1001D00024BF30C830C144BF04680C6070470000C1
:1001E0000023002400250026103A28BF78C1FBD840
:1001F000520728BF30C148BF0B6070471FB501F0E0
:100200000CFE1FBD10B510BD00F058F81146FFF7E9
:10021000F5FF01F02FFD00F076F803B4FFF7F2FFD1
:1002200003BC00F07DF800000948804709480047FA
:10023000FEE7FEE7FEE7FEE7FEE7FEE7FEE7FEE796
:10024000FEE7FEE704480549054A064B70470000F3
:100250005D1C000889010008E0000020E006002085
:10026000E0020020E00200204FF0000200B513463B
:1002700094469646203922BFA0E80C50A0E80C50C6
:10028000B1F12001BFF4F7AF090728BFA0E80C5077
:1002900048BF0CC05DF804EB890028BF40F8042B70
:1002A00008BF704748BF20F8022B11F0804F18BFDD
:1002B00000F8012B7047704770477047754600F093
:1002C0002BF8AE4605006946534620F007008546E8
:1002D00018B020B5FFF7B6FFBDE820404FF000068C
:1002E0004FF000074FF000084FF0000BAC46ACE8B1
:1002F000C009ACE8C009ACE8C009ACE8C00921F00D
:1003000007018D46704710B50446AFF300802046C4
:10031000BDE81040FFF781BF004870471000002083
:1003200001491820ABBEFEE726000200704700001E
:10033000FEE7000070470000B0B5044600F0FEF88C
:10034000054640F20000C2F200000078611C18BFB0
:10035000044400BF00F0F2F8401BA042FAD3B0BD45
:100360002DE9F04F82B00D68002D00F0DB8041F6E2
:10037000000400F13847C4F6000407224FEAB7260C
:10038000A04208BF0622062E38BF4FEAB7224FF020
:10039000000B0027002600920AE000BF0D6801361E
:1003A00035FA06F207F102070BF1040B00F0BA80F0
:1003B000012202FA06FE15EA0E08EFD0D1F80490E9
:1003C00009F0030AAAF10105022D15D20323826860
:1003D00003FA07F5CB68AA43BB401A438260426820
:1003E000C9F3001322EA0E02B3404FEA460CEC4375
:1003F0001A43426017E000BFBAF1030F0ED1C56A7D
:10040000C9F3C00225EA0E05B2402A434FF0030AA1
:10041000C2620AFA07F2D443BC4625E0032202FA7C
:1004200007F5EC43BC46C2688B68224003FA0CF324
:100430001A43BAF1020FC26016D16FF0030202EA4A
:10044000560202440BF01C050F23D2F820E003FAF9
:1004500005F90B692EEA090EAB4043EA0E0313625D
:10046000D1F8049009F0030A02680AFA0CF322405A
:100470001A4319F4403F026090D041F26003C4F285
:1004800002031A6840F2004E42F001021A601A6834
:10049000C4F2010E02F001020192019A26F0030259
:1004A0004FF608497244CFF6FF7952F809C00BF0B5
:1004B0000C050F23009CAB402CEA030304FA05F55E
:1004C0002B4342F80930DEF808204B6842EA080561
:1004D00040F20C4CDC0258BF22EA0805CEF8085066
:1004E000C4F2010CDCF800209C0242EA080558BF67
:1004F00022EA0805CCF80050DEF804209C0342EA0A
:10050000080558BF22EA0805CEF80450DEF800209E
:10051000DB0342EA080558BF22EA0805CEF800507E
:100520003CE700BF02B000F000B830BCBDE8C08FAF
:100530001823002A08BF2823C150704740F2D80072
:10054000C2F200000068704740F2000040F2D8019B
:10055000C2F20000C2F2000100780A68104408608C
:100560007047000080B542F20000C4F2020001684A
:1005700041F480710160032000F078F8002000F061
:1005800009F800281CBF012080BD00F029F80020D8
:1005900080BD000070B540F20006C2F2000631785E
:1005A000E1B1044640F20800C2F200004FF47A7252
:1005B0000068B2FBF1F1B0FBF1F001F001FA0F2C91
:1005C0004FF0010508D838B94FF0FF30214600221E
:1005D000002500F01FF87460284670BD012070BD32
:1005E00082B041F25800C4F20200816841F001017A
:1005F0008160816801F0010101910199016841F078
:1006000080510160006800F080500090009802B0B6
:100610007047000010B54EF60C5CCEF2000CDCF812
:100620000030C3F3022E8EF00704042C28BF0424EC
:10063000BEF103034FF0FF3E0EFA04F438BF00236F
:10064000A14399400EFA03F39A43114300F00F02BD
:1006500000F160430901043A03F564436244002851
:1006600048BF02F10C03197010BD00004EF60C518A
:10067000CEF200010A684FF6FF031A4060F30A2227
:1006800042F0806040F0FD700860704747F2000162
:10069000C4F200010A68B0F5007F02F4C06031D1F5
:1006A000B0F5007F2CD00868012262F34A20086070
:1006B00040F20800C2F200000068322250434DF6BA
:1006C0008362C4F21B32A0FB0202900C4A695205FD
:1006D00011D5421C0FD04A6952050CD558B14A6950
:1006E000520508D5012806D04A69520503D50228CB
:1006F000A0F10400EAD14869400544BF03207047D7
:1007000000207047B0F5806FFAD00868022262F3CB
:100710004A2008600020704747F20000C4F2000041
:10072000006800F4C06070472DE9F04381B00028F4
:100730006BD042F20008C4F202080446D8F8000068
:100740000D4600F0070088420CD2D8F8000020F0D7
:1007500007002843C8F80000D8F8000000F00700A0
:10076000A84252D1206841F2080910F00201C4F2F7
:1007700002090DD0A268D9F8003003F0F0039A42C4
:1007800006D9D9F8003023F0F0031A43C9F8002045
:10079000C2072DD169B1A168D9F8002002F0F0029A
:1007A000914206D2D9F8002022F0F0021143C9F894
:1007B0000010D8F8001001F00701A9420CD9D8F8B0
:1007C000001021F007012943C8F80010D8F80010E4
:1007D00001F00701A94218D141071BD4000723D417
:1007E000D9F80000D9F8041010F00C002CD131E039
:1007F000606800285ED0022800F07E80032840F068
:10080000818059F8081C890158D4012001B0BDE845
:10081000F08300BFD9F80010E26821F4E0611143D1
:10082000C9F800100007DBD5D9F80000216920F4D1
:10083000605040EAC100C9F80000D9F80000D9F8BA
:10084000041010F00C0005D00C2829D101F0030190
:10085000012925D159F8081C090703D4D9F88C10AF
:10086000090A02E059F8081C090941F6446201F03E
:100870000F01C0F6000252F8211000280A4618BFE6
:1008800000220C2871D1D9F8040000F003000228DE
:1008900046D0032804BF41F20021C0F27A0143E0B0
:1008A000042857D008285BD141F20022C0F27A0216
:1008B0005BE000BF59F8081C8907A6D5D9F80010DD
:1008C00021F003010843C9F80000FFF737FE064690
:1008D00041F28837D9F80000616800F00C00B0EBF5
:1008E000810F15D0FFF72AFE801BB842F2D90320F2
:1008F00001B0BDE8F08300BF59F8081C89037FF5FB
:1009000084AFDBE759F8081C49057FF57EAFD5E7D2
:10091000206800F0020100297FF43DAF49E700BFE5
:1009200042F20041C0F2F401D9F80400D9F80420E1
:10093000C0F30210C2F306225143D9F8042001305B
:10094000B1FBF0F0C2F34161022202EB4101B0FBC6
:10095000F1F20AE042F20042C0F2F40205E000BF08
:10096000002200210C283FF48EAFD9F8000041F698
:100970003461C0F30310C0F60001085C00F01F00F2
:1009800022FA00F140F20400C2F2000040F2080234
:100990000068C2F20002116001B0BDE8F043FFF749
:1009A000F9BD00002DE9F04383B0002800F0068374
:1009B00041F200060446C4F20206B068F1682278EB
:1009C00000F00C09D00601F003081DD42078C00700
:1009D00000F08180B9F1080F76D0B9F10C0F08BF93
:1009E000B8F1030F70D06068B0F5803F07D0B0F564
:1009F000A02F40F01982306840F4802030603068C9
:100A000040F4803030601AE2B9F1000F1ED0B9F125
:100A10000C0F08BFB8F1010F18D0A1693068002988
:100A200000F0AE8140F001003060FFF787FD054621
:100A30003068800700F1B681FFF780FD401B022877
:100A40004FF00300F4D903B0BDE8F08330688007AD
:100A500003D5A069002800F0B182256A306800073C
:100A600000F11E81D6F89400000900F0F0008542E4
:100A700000F21C813068B9F1000F40F008003060CE
:100A8000306820F0F00040EA050030607068E169ED
:100A900020F47F4040EA0120706040F07D82B06D1C
:100AA000C00000F11982B06D40F08050B065B06DAB
:100AB00000F0805002900298FFF72EFEB16D21F0F9
:100AC0008051B1650AE200BF3068800303D56068D9
:100AD000002800F07382207880072DD5B9F1040F2B
:100AE0001CD0B9F10C0F08BFB8F1020F16D0E168A5
:100AF0003068002900F0B28140F480703060FFF768
:100B00001DFD0546306840050FD4FFF717FD401B5B
:100B100002284FF00300F5D995E700BF3068400583
:100B200003D5E068002800F049827068216920F050
:100B3000F85040EA01607060207800075ED42078A9
:100B4000400771D4A06A002800F0E282022840F039
:100B5000DF80F068E16A00F003028A4240F0F08032
:100B6000226B6FF00F0300F0700103EB0212914251
:100B700040F0E680616B00F4FE42B2EB012F40F0E2
:100B8000DF80A16B00F40032073918BF01218A42CF
:100B900040F0D680E26B0023CFF6E07303EA025206
:100BA00000F4C001A2F50012914240F0C980216C0E
:100BB0004FF07E4202EA016100F0C06001F17E4127
:100BC000884240F0BD803068800100F1A182306829
:100BD00040F080703060F06840F08070F060FFF7A7
:100BE000ADFC04463068800100F19282FFF7A6FC5C
:100BF000001B02284FF00300F4D924E76169D6F8FE
:100C0000940000296ED040F00100C6F89400FFF770
:100C100095FC0546D6F89400800790D4FFF78EFC2B
:100C2000401B0228F6D9FBE0B06D10F0805808D1C7
:100C3000B06D40F08050B065B06D00F08050009015
:100C4000009847F20007C4F200073868C00513D4C3
:100C5000386840F480703860FFF770FC054600BFCC
:100C60003868C00508D4FFF769FC401B02284FF024
:100C70000300F5D9E7E600BFA068012808D00528E1
:100C800040F0B080D6F8900040F00400C6F8900024
:100C9000D6F8900040F00100C6F89000B1E000BF27
:100CA000306800F0F00085427FF6E4AEB06DC00021
:100CB00000F18A80B06D40F08050B065B06D00F0FA
:100CC000805001900198FFF727FDB16D21F0805110
:100CD000B165B0F5007F00F07D80802D40F2D080BE
:100CE0000320D8E020F00100C6F89400FFF726FCAE
:100CF000054600BFD6F8940080077FF520AFFFF7C8
:100D00001DFC401B02284FF00300F3D99BE600BFF7
:100D1000B9F10C0F00F05281306820F08070306023
:100D2000FFF70CFC044600BF3068800140F1E4800E
:100D3000FFF704FC001B02284FF00300F4D982E601
:100D4000B9F10C0F00F03A81306840015CBF3068A7
:100D50005FEAC00000F13281306820F080703060BE
:100D6000FFF7ECFB05463068800140F18F81FFF70B
:100D7000E5FB401B02284FF00300F4D963E600BFF7
:100D800020F001003060FFF7D9FB0546306880078E
:100D90007FF51CAEFFF7D2FB401B02284FF003008B
:100DA000F4D950E6306840F0080030603068D4E98B
:100DB000072120F0F00008433060706820F47F4085
:100DC00040EA0220706001E6FFF7A6FCB0F5007F64
:100DD0007FF483AF812D5DD30120A02D88BF022039
:100DE00059E000BFD6F89010002821F00101C6F8A4
:100DF0009010D6F8901021F00401C6F8901000F081
:100E00008780FFF79BFB054641F28837D6F89000B4
:100E1000800700F18F80FFF791FB401BB842F5D9A6
:100E2000032003B0BDE8F0833168002821F480314D
:100E30003160316821F48021316000F08580FFF756
:100E40007DFB0546306880033FF545AEFFF776FB36
:100E5000401B64284FF00300F4D9F4E520F48070BF
:100E60003060FFF76BFB0546306840057FF564AEE8
:100E7000FFF764FB401B02284FF00300F4D9E2E5C2
:100E8000A5F17000B0FA80F04009802D08BF022063
:100E900001E000BF002042F20001C4F202010A6832
:100EA00022F0070202440A60096801F0070181424A
:100EB00040F08480306840F0080030603068D4E949
:100EC000072120F0F00008433060706820F47F4074
:100ED00040EA022070605FE0FFF71EFCB0F5007F83
:100EE00006D1812D40D30120A02D88BF022045E0EE
:100EF000802D3BD9032041E0F0684FF6FC71CFF61E
:100F0000EE610840F060002003B0BDE8F08300BF50
:100F1000FFF714FB054641F28837D6F890008007AA
:100F200008D5FFF70BFB401BB8424FF00300F4D984
:100F300089E500BFB8F1000F7FF404AEB06D20F07A
:100F40008050B065FEE500BFFFF7F8FA054630684F
:100F500080037FF5C0ADFFF7F1FA401B64284FF026
:100F60000300F4D96FE500BF002007E0A5F1700091
:100F7000B0FA80F04009802D08BF022042F2000143
:100F8000C4F202010A6822F0070202440A600968FA
:100F900001F00701814211D1B068F16810F00C0036
:100FA00005D00C282AD101F00301012926D131688E
:100FB000090707D4D6F89410090A05E0012003B008
:100FC000BDE8F0833168090941F6446201F00F0180
:100FD000C0F6000252F8211000280A4618BF00226D
:100FE0000C2837D1F06800F00300022810D0032845
:100FF00004BF41F20021C0F27A010DE004281FD0A5
:10100000082823D141F20022C0F27A0222E000BF78
:1010100042F20041C0F2F401F068F268C0F302103D
:10102000C2F306225143F2680130B1FBF0F0C2F383
:101030004161022202EB4101B0FBF1F20AE000BF84
:1010400042F20042C0F2F40204E000BF002200219C
:101050000C28C7D0B06841F63461C0F30310C0F665
:101060000001085C00F01F0022FA00F140F20400C9
:10107000C2F2000040F208020068C2F200021160F1
:10108000FFF788FA00287FF4DEAC9FE4F06848F2AE
:101090008C01CFF69D1104F12C0700EA010C8ECFD4
:1010A000D4E90F546FF00F0040F2000E00EB021075
:1010B000CFF6E07E41EA0C010EEA05554FF07E4284
:1010C0000843A5F5001502EA046240EA032002F194
:1010D0007E420EF5F014284304EA473710433843A4
:1010E000F060306840F080703060F06840F08070F0
:1010F000F060FFF723FA04463068800108D4FFF758
:101100001DFA001B02284FF00300F5D99BE400BF35
:10111000002003B0BDE8F083002804BF0120704721
:10112000B0B50446406A28B10020206104F11400E3
:1011300006E000BF6068B0F5827F03D004F11C00B8
:10114000002101600025A56294F85D0020B92046C9
:1011500084F85C5000F04EF8022084F85D002068AE
:10116000D4F80CE00268BEF5E06F22F040020260A5
:101170004EF4006298BF0125B2F5706F1CBF0023CA
:10118000A3624FEA053CD4E90135D4E9042103F414
:10119000827305F404452B4402F002021A44A36949
:1011A00001F00101E569114403F40072114405F0F6
:1011B0003802256A114405F08002A56A114405F43D
:1011C0000052114301600421626A0EF4706501EA65
:1011D0001341636B45EA0C0502F01002294303F04A
:1011E000080311431943416000200121206684F85F
:1011F0005D10B0BD80B586B0006843F20001C4F256
:101200000101884202D006B080BD00BF41F24C000F
:10121000C4F20200416941F480514161416901F425
:10122000805101910199016841F00101016000685C
:1012300001A900F0010001900198E0200190022036
:1012400002900020039003200490052005904FF0A9
:101250009040FFF785F806B080BD00002DE9F0430F
:1012600081B0044640681D461746B0F5827F0E46A1
:1012700002D1A068002847D094F85C00012803D16F
:10128000022001B0BDE8F0834FF0010984F85C90C2
:10129000FFF754F994F85D10012933D18046002EF0
:1012A0004FF0010018BF002F00F0EE80042084F8FA
:1012B0005D00002020662664A4F84470A4F84670FF
:1012C000A063A087E0872168C4E91300D4E9022065
:1012D0004B68B0F5E06F23F4805398BF03F580535B
:1012E000B2F5004F4B6051D00A68520659D5B4F898
:1012F0004610B0F5E06F5DD8002900F09080681CC2
:101300001FD12FE00220BFE0042084F85D002046BA
:10131000314632463B46009500F0E0F901B0BDE8A9
:10132000F08300BF007B216C0870206C01302064CA
:10133000B4F846000138A4F84600B4F84600002886
:101340006DD020688168C907ECD1FFF7F7F8A0EBF2
:101350000800A842F1D348E0FFF7F0F8B4F84600DF
:1013600000285CD020688168C907F5D0007B216C1B
:101370000870206C01302064B4F846000138A4F8ED
:101380004600B4F846000028ECD148E00A6822F094
:1013900040020A600A6822F480420A600A68520623
:1013A000A5D40A6842F040020A60B4F84610B0F5CD
:1013B000E06FA1D999B3681C0DD11EE0C068216C03
:1013C00021F8020B2164B4F846000138A4F8460065
:1013D000B4F8460018B320688168C907EED1FFF75A
:1013E000ADF8A0EB0800A842F2D303204CE000BF08
:1013F000FFF7A4F8B4F8460088B120688168C907EF
:10140000F6D0C068216C21F8020B2164B4F84600C4
:101410000138A4F84600B4F846000028EDD1606811
:10142000B0F5827F0BD1A068B0F5004F02D0B0F5C7
:10143000806F04D12068016821F0400101602046DE
:101440002946424600F09EFB30B1206E40F020005D
:1014500020662020206613E06068B0F5827F0FD1FF
:10146000A068B0F5004F02D0B0F5806F08D12046DB
:101470004FF4C0612A46434600F0C0FA0028E4D188
:10148000206E002818BF0120002184F85D9084F8A8
:101490005C1001B0BDE8F0832DE9F04381B0044653
:1014A00090F85C00012803D1022001B0BDE8F08370
:1014B0004FF001091D4616460F4684F85C90FFF771
:1014C0003DF894F85D10012946D18046002F4FF079
:1014D000010018BF002E00F0D7800320002184F8FF
:1014E0005D002166A763A687E6872164A4F84410FF
:1014F000A4F84610A068E164B0F5004F20682165AB
:1015000007D1016821F040010160016841F4804188
:1015100001600168490603D4016841F0400101609F
:101520006168731EE268B1FA81F1B3FA83F3490985
:101530005B09B2F5E06F41EA03013DD931B137F8FB
:10154000021BC160A763E08F0138E087E08F0028AD
:1015500070D0681C0DD11EE0022095E0A16B31F81F
:10156000022BC260A163E08F0138E087E08F002882
:1015700060D0206881688907F0D4FEF7DFFFA0EB18
:101580000800A842F2D303207EE000BFFEF7D6FF9A
:10159000E08F00284ED0206881688907F6D5A16BBE
:1015A00031F8022BC260A163E08F0138E087E08F41
:1015B0000028F0D13EE000BF89B1E18F02294FF64B
:1015C000FE7103D337F8022BC26004E03A78013190
:1015D0000273A06B471CA763E08F0844E087E08F8D
:1015E00040B3681C5DD04FF6FE70461C08E000BF9B
:1015F000FEF7A4FFA0EB0800A8426DD2E08FC8B1AF
:10160000216888688007F3D5E28FA06B022A05D392
:1016100030F8022BCA604FF6FE7104E000780873C0
:10162000A06B31460130A063E08F0844E087E08F73
:101630000028E5D120464FF4C0512A46434600F029
:10164000DDF968B920462946424600F09BFA38B9D0
:1016500020464FF4C0612A46434600F0CFF928B136
:10166000206E40F02000206620202066A06838B957
:10167000002000902068C168009180680090009868
:10168000206E002818BF0120002184F85D9084F8A6
:101690005C1001B0BDE8F083FEF750FFE08F00283A
:1016A000C8D0206881688907F6D5E28FA16B012A2E
:1016B00008D931F8022BC260A163E08F0238E087BD
:1016C000ECE700BF09780173A06B0130A063E08FE5
:1016D0000138E087E2E700BF0320D5E72DE9F043BA
:1016E00081B0044690F85C00012803D1022001B0CB
:1016F000BDE8F08301201E4615460F4684F85C00C5
:10170000FEF71CFF94F85D108146012940F0B0807F
:10171000002F4FF0010018BF002D00F04681002E71
:1017200000F0438194F85D0004281CBF052084F874
:101730005D00002020662564A4F84660A4F844609B
:10174000A763E687C4E913002068A687E1684268BA
:10175000B1F5E06F22F48052134698BF03F5805331
:10176000012E88BF134643600268520603D4026804
:1017700042F0400202606268731EB2FA82F2B3FA6B
:1017800083F3DDF8208052095B09B1F5E06F43EA8D
:1017900002017DD931B137F8021BC160A763E08F28
:1017A0000138E087012518F1010035D102E000BFC2
:1017B000FEF7C4FEE08F20B9B4F84600002800F020
:1017C000D7802068816889070CD5E18F51B1012D40
:1017D00008D1A16B002531F8022BC260A163E18F13
:1017E0000139E1878168C907E2D0B4F846100029C1
:1017F000DED0C068216C012521F8020B2164B4F809
:1018000046000138A4F84600D2E700BFFEF796FE76
:10181000A0EB0900404545D2E08F20B9B4F846005E
:10182000002800F0A5802068816889070CD5E18F29
:1018300051B1012D08D1A16B002531F8022BC260F6
:10184000A163E18F0139E1878168C907DED0B4F86F
:1018500046100029DAD0C068216C012521F8020B5E
:101860002164B4F846000138A4F84600CEE700BF72
:101870006068B0F5827F09D1A06800284FF00200AF
:1018800008BF042940F0918042E700BF02208CE0AD
:1018900099B1E18F02294FF6FE7105D337F8022B7B
:1018A000C26006E0032080E03A7801310273A06B49
:1018B000471CA763E08F0844E087012608F1010573
:1018C000E08F18B9B4F84600002851D0206881682C
:1018D000890719D5E18FB9B1012E15D1E28FA16B1E
:1018E000022A07D331F8022BC260A163E18F0239CB
:1018F00008E000BF09780173A16B20680131A16382
:10190000E18F01390026E1878168C90726D0B4F844
:10191000461019B3B4F84610022913D3C168226CDB
:1019200022F8021B2264B4F846100239A4F84610CB
:10193000B4F84610012910D8416841F48051416043
:101940000BE000BF007B216C0870206C013020642C
:10195000B4F846000138A4F846000126FEF7EEFD73
:10196000002DADD0A0EB09004045A9D303201CE019
:1019700020464FF4C05142464B4600F03FF868B94C
:10198000204641464A4600F0FDF838B920464FF45B
:10199000C06142464B4600F031F878B1206E40F00D
:1019A00020002066202020660120012184F85D109F
:1019B000002184F85C1001B0BDE8F0830020F4E75A
:1019C000411E0020B0EB116F1CBF012070474EF28A
:1019D0001002CEF2000251604EF62351CEF2000109
:1019E000F0230B700721906011607047FEE7000044
:1019F000FEE70000FEE70000704700002DE9F04719
:101A000082B000261F4690460D4681468DF8036041
:101A1000FEF794FD381A00EB0807FEF78FFD40F241
:101A20000801C2F20001096823225143090DD9F8C7
:101A3000004079430191A168294271D0824618F192
:101A4000010037D0B5F5C06F1CD100BF207B8DF8E9
:101A500003009DF80300FEF771FDA0EB0A00B842F9
:101A600062D2019801990028A1F101010191D9F8F0
:101A70000010896808BF074611F4C06FE6D1002640
:101A80004EE000BFFEF75AFDA0EB0A00B8424BD271
:101A9000019801990028A1F101010191D9F80010E4
:101AA000896808BF07462942ECD10026304602B0BB
:101AB000BDE8F0870026B5F5C06F25D1207B8DF8F5
:101AC00003009DF80300A06810F4C06FEDD0207BE8
:101AD0008DF803009DF80300A06810F4C06FE4D0F7
:101AE000207B8DF803009DF80300A06810F4C06F00
:101AF000DBD0207B8DF803009DF80300A06810F474
:101B0000C06FDBD10CE000BFA0682842CDD0A06838
:101B10002842CAD0A0682842C7D0A0682842F3D182
:101B2000304602B0BDE8F087D9E900014268B1F55E
:101B3000827F22F0E00242600BD1D9F80810B1F5A3
:101B4000004F02D0B1F5806F03D1016821F0400150
:101B50000160D9F82810B1F5005F07D1016821F4C0
:101B600000510160016841F400510160012089F8D1
:101B70005D00002089F85C000326304602B0BDE815
:101B8000F0870000F0B581B015460E460446FEF71A
:101B9000D5FC281A8719FEF7D1FC40F20801C2F2E1
:101BA00000010968C1F3CB317943009121688A684B
:101BB000120622D50546701C15D000BFFEF7BEFCEC
:101BC000401BB8421CD2009800990028A1F10101E5
:101BD00000912168896808BF07460806EED40CE02A
:101BE0008868000609D58868000606D5886800065A
:101BF00044BF88685FEA0060F2D4002001B0F0BD05
:101C0000D4E900014268B1F5827F22F0E00242602F
:101C10000AD1A168B1F5004F02D0B1F5806F03D1B0
:101C2000016821F040010160A16AB1F5005F07D1B0
:101C3000016821F400510160016841F40051016024
:101C4000012084F85D00002084F85C00032001B0CE
:101C5000F0BD000070470000FEF776BC4EF68850DD
:101C6000CEF20000016841F470010160704700008D
:101C7000FEE7000096B0FEF775FC05A804302421AD
:101C8000FEF7F2FA4FF40070FEF700FD20B1EFF31B
:101C9000108072B6FEE700BF4FF4807108911021EA
:101CA0000991012111910A21022012910721059029
:101CB000CDE90F00CDE91310159005A8FEF772FECF
:101CC00020B1EFF3108072B6FEE700BF0F20009046
:101CD00003200190002668460421CDE9026604969F
:101CE000FEF722FD20B1EFF3108072B6FEE700BFD1
:101CF00041F24C000996C4F202000168002241F052
:101D0000800101600168102501F0800100910099B7
:101D1000016841F001010160016801F001010091D9
:101D20000099016841F0020101600068102100F093
:101D30000200009000984FF09040FEF7F9FB40F24F
:101D40000044C4F600042046202100224FF0200861
:101D5000FEF7EEFB059505AD01274FF090402946B3
:101D6000CDE906760896FEF7FBFA20462946CDE92E
:101D70000587CDE90766FEF7F3FA40F27004C2F278
:101D8000000443F20001C4F20101204640F8041FA0
:101D90004FF482714FF4E0624FF40073C0E9011612
:101DA000C0E9032607210822C0E90563C0E90786C8
:101DB000C0E90966C0E90B164263FFF7ADF928B127
:101DC000EFF3108072B600BFFEE700BF4FF0904007
:101DD00010210122FEF7ACFB0A20FEF7ADFA4FF00E
:101DE000904010210022FEF7A3FB0520254605F8B0
:101DF000040B2846214601220A23FFF74DFB611CF4
:101E0000284601220A23FFF729FA4FF090401021BB
:101E10000122FEF78DFB00BFFEE7F1EE100A4FF640
:101E2000FF71C0F2C03120EA010040F04070E1EEE5
:101E3000100A7047000000000000000001020304C7
:101E400006070809A0860100400D0300801A06005D
:101E500000350C0040420F0080841E0000093D0048
:101E600000127A000024F40000366E010048E801F8
:101E7000006CDC02981E000800000020100000002A
:101E8000C4010008A81E000810000020D0060000B1
:101E9000E001000800000000010000001000000048
:081EA00000093D0000000000F4
:040000050800018965
:00000001FF
