:020000040800F2
:100000005007002029020008B9240008B124000884
:10001000B524000821040008053000080000000095
:100020000000000000000000000000007927000828
:100030003104000800000000BD2400087D270008EE
:10004000430200084302000843020008430200087C
:10005000430200084302000843020008430200086C
:10006000430200084302000843020008430200085C
:10007000430200084302000843020008430200084C
:100080002504000843020008430200084302000858
:10009000430200084302000843020008430200082C
:1000A000430200084302000843020008430200081C
:1000B000430200084302000843020008430200080C
:1000C00043020008430200084302000843020008FC
:1000D0004302000843020008F92F00084302000809
:1000E00043020008430200084302000843020008DC
:1000F00043020008430200084302000843020008CC
:1001000043020008430200084302000843020008BB
:1001100043020008430200084302000843020008AB
:10012000430200084302000843020008430200089B
:10013000430200084302000843020008430200088B
:10014000430200084302000843020008430200087B
:10015000430200084302000843020008430200086B
:10016000430200084302000843020008430200085B
:100170004302000843020008430200080000000098
:10018000430200084302000800F002F800F03CF8C7
:100190000AA090E8000C82448344AAF10107DA45E2
:1001A00001D100F031F8AFF2090EBAE80F0013F0F8
:1001B000010F18BFFB1A43F0010318473C30000041
:1001C0005C300000103A24BF78C878C1FAD85207D2
:1001D00024BF30C830C144BF04680C6070470000C1
:1001E0000023002400250026103A28BF78C1FBD840
:1001F000520728BF30C148BF0B6070471FB502F0DF
:10020000C2FF1FBD10B510BD00F0D0F81146FFF7BA
:10021000F5FF02F0F9FE00F0EEF803B4FFF7F2FF8D
:1002200003BC00F0F5F80000094880470948004782
:10023000FEE7FEE7FEE7FEE7FEE7FEE7FEE7FEE796
:10024000FEE7FEE704480549054A064B70470000F3
:100250008127000889010008500100205007002074
:10026000500300205003002053EA020C00F0698084
:100270002DE9F04B4FF00006002B1FBFB3FA83F5BA
:1002800003FA05F424FA05F65E4012BF1643B2FAEB
:1002900082F502FA05F4C5F120051EBF22FA05FC1D
:1002A00044EA0C04203556EA044C4FEA144418BFC3
:1002B000641C4FF000084FF00009904271EB030CF2
:1002C00039D3002919BFB1FA81F701FA07F6B0FA5C
:1002D00080F700FA07F6C7F120071EBF20FA07FCD7
:1002E00046EA0C062037B6FBF4FCA7EB0507103FE7
:1002F00007F01F0BCBF120062CFA06F60CFA0BFBCD
:1003000044BFB3460026202FA4BF5E464FF0000B2B
:100310005BEA060C08BF4FF0010B19EB0B0948EB29
:100320000608ABFB027C06FB02CC0BFB03CCC01B1C
:1003300071EB0C01C1E70B46024641464846BDE859
:10034000F08B13B5084318BF4FF0FF300146AFF3F1
:100350000080BDE81C4070474FF0000200B5134616
:1003600094469646203922BFA0E80C50A0E80C50D5
:10037000B1F12001BFF4F7AF090728BFA0E80C5086
:1003800048BF0CC05DF804EB890028BF40F8042B7F
:1003900008BF704748BF20F8022B11F0804F18BFEC
:1003A00000F8012B7047704770477047754600F0A2
:1003B0002BF8AE4605006946534620F007008546F7
:1003C00018B020B5FFF73EFFBDE820404FF0000613
:1003D0004FF000074FF000084FF0000BAC46ACE8C0
:1003E000C009ACE8C009ACE8C009ACE8C00921F01C
:1003F00007018D46704710B50446AFF300802046D4
:10040000BDE81040FFF709BF00487047100000200A
:1004100001491820ABBEFEE726000200704700002D
:10042000FEE7000040F28000C2F2000000F05AB87F
:1004300070470000EFF3108072B600BFFEE70000C7
:10044000014690F82500022818D10868D1E910C3A8
:10045000026822F00E020260026822F001020260CD
:1004600003F01C00012202FA00F0CCF80400002086
:1004700081F82520002281F8242070470420C863D9
:100480000120002281F824207047000080B590F8F8
:100490002510022922D10168D0F838E0D0E910C334
:1004A0000A68BEF1000F22F00E020A600A6822F00C
:1004B00001020A6003F01C014FF0010202FA01F18F
:1004C000CCF804104FF0000180F8252080F82410AB
:1004D00001D0F0470021084680BD00BF0421C16360
:1004E000012080BDB0B5D0E910C30268DCF800106F
:1004F00003F01C030424D2F800E09C400C4218BF17
:100500001EF0040522D102249C400C4218BF1EF0AC
:10051000020529D1D940090724D51EF0080108BFDA
:10052000B0BD116821F00E011160012101FA03F242
:10053000CCF80420C16380F82510416B002280F8BC
:10054000242079B1BDE8B040084700BF1168890692
:1005500003D4116821F004011160CCF80440016B50
:100560000029EFD1B0BD00BF1168890606D411681B
:1005700021F00A011160012180F82510CCF8044017
:10058000C16A0022002980F82420DBD1EAE70000BC
:10059000002804BF012070472DE9F04740F2000C0D
:1005A000C4F2020C02684FF6F8310CF5816ECBF6FE
:1005B000FD71724538BF01F580614CF6CD431144A1
:1005C000CCF6CC43A1FB03136FF003010CF580675D
:1005D00001EA93084FF00203D0E9024AD0F81090E4
:1005E0003CBF0027C4F20207C0E9107880F825302C
:1005F000136847F6F077BB43D0E9057143EA0A0375
:1006000043EA0903D0E907653B43194331432943D2
:100610002143B4F5804F116015D04FF4956408F074
:100620001C010F23724538BFA8245CF804208B40BE
:100630009A434CF8042042685CF8043002FA01F155
:1006400019434CF8041000210122C16380F82520D1
:1006500080F82410BDE8F04708467047F0B590F8E0
:1006600024C0BCF1010F36D04FF0010E80F824E019
:1006700090F825C0BCF1010F2AD14FF0020C80F890
:1006800025C04FF0000CC0F83CC0D0F800C0846812
:10069000056B066CDCF80070102C27F00107CCF815
:1006A0000070406C00F01C000EFA00F0706008460C
:1006B000CCF8043004BF10460A46CCF80800CCF849
:1006C0000C20DCF800004DB140F00E000EE000BF41
:1006D000002180F824100220F0BD00BF20F00400AB
:1006E000CCF80000DCF8000040F00A00CCF8000074
:1006F000DCF8000040F00100CCF800000020F0BD64
:10070000B0B5044600F006F9054640F20000C2F21A
:1007100000000078611C18BF044400BF00F0FAF824
:10072000401BA042FAD3B0BD2DE9F04F82B00D6856
:10073000002D00F0DB8041F6000400F13847C4F6DC
:10074000000407224FEAB726A04208BF0622062E61
:1007500038BF4FEAB7224FF0000B00270026009267
:100760000AE000BF0D68013635FA06F207F102070C
:100770000BF1040B00F0BA80012202FA06FE15EA22
:100780000E08EFD0D1F8049009F0030AAAF1010590
:10079000022D15D20323826803FA07F5CB68AA431A
:1007A000BB401A4382604268C9F3001322EA0E027A
:1007B000B3404FEA460CEC431A43426017E000BFD7
:1007C000BAF1030F0ED1C56AC9F3C00225EA0E05BE
:1007D000B2402A434FF0030AC2620AFA07F2D44336
:1007E000BC4625E0032202FA07F5EC43BC46C2688A
:1007F0008B68224003FA0CF31A43BAF1020FC2606D
:1008000016D16FF0030202EA560202440BF01C05F7
:100810000F23D2F820E003FA05F90B692EEA090E3E
:10082000AB4043EA0E031362D1F8049009F0030AC7
:1008300002680AFA0CF322401A4319F4403F02609E
:1008400090D041F26003C4F202031A6840F2004EF5
:1008500042F001021A601A68C4F2010E02F00102AD
:100860000192019A26F003024FF608497244CFF62E
:10087000FF7952F809C00BF00C050F23009CAB4028
:100880002CEA030304FA05F52B4342F80930DEF89D
:1008900008204B6842EA080540F20C4CDC0258BFC5
:1008A00022EA0805CEF80850C4F2010CDCF800205A
:1008B0009C0242EA080558BF22EA0805CCF800501D
:1008C000DEF804209C0342EA080558BF22EA080526
:1008D000CEF80450DEF80020DB0342EA080558BFDA
:1008E00022EA0805CEF800503CE700BF02B000F055
:1008F00000B830BCBDE8C08F426902EA01039143F1
:1009000041EA0341816170471823002A08BF282368
:10091000C150704740F24C10C2F2000000687047AE
:1009200040F2000040F24C11C2F20000C2F200019D
:1009300000780A68104408607047000080B542F2F1
:100940000000C4F20200016841F4807101600320DC
:1009500000F08CF8002000F009F800281CBF0120EE
:1009600080BD00F029F8002080BD000070B540F285
:100970000006C2F200063178E1B1044640F20800F8
:10098000C2F200004FF47A720068B2FBF1F1B0FBE2
:10099000F1F001F041F80F2C4FF0010508D838B9FB
:1009A0004FF0FF3021460022002500F033F874603C
:1009B000284670BD012070BD82B041F25800C4F2DB
:1009C0000200816841F001018160816801F001014C
:1009D00001910199016841F080510160006800F0C7
:1009E00080500090009802B070470000002848BF77
:1009F0007047C1B200F01F00012202FA00F04EF26F
:100A00000012CEF2000242EAD10121F00301086097
:100A10007047000010B54EF60C5CCEF2000CDCF80E
:100A20000030C3F3022E8EF00704042C28BF0424E8
:100A3000BEF103034FF0FF3E0EFA04F438BF00236B
:100A4000A14399400EFA03F39A43114300F00F02B9
:100A500000F160430901043A03F56443624400284D
:100A600048BF02F10C03197010BD00004EF60C5186
:100A7000CEF200010A684FF6FF031A4060F30A2223
:100A800042F0806040F0FD700860704747F200015E
:100A9000C4F200010A68B0F5007F02F4C06031D1F1
:100AA000B0F5007F2CD00868012262F34A2008606C
:100AB00040F20800C2F200000068322250434DF6B6
:100AC0008362C4F21B32A0FB0202900C4A695205F9
:100AD00011D5421C0FD04A6952050CD558B14A694C
:100AE000520508D5012806D04A69520503D50228C7
:100AF000A0F10400EAD14869400544BF03207047D3
:100B000000207047B0F5806FFAD00868022262F3C7
:100B10004A2008600020704747F20000C4F200003D
:100B2000006800F4C06070472DE9F04782B00446C9
:100B3000407841F288070007C4F2020730D5606EA2
:100B40004FEAB05103290BD8DFE801F002101C2551
:100B5000201D002101F0B4FC064670B91AE000BF68
:100B600001266078C0060BD51EE000BF04F120000E
:100B7000002101F05DFD064660B16078C00613D427
:100B8000B2464EE057F87C1C41F4803147F87C1C9B
:100B900001E000BF606E396821F44001084338600D
:100BA00000266078C006EBD5A06E4FEA30600328BF
:100BB0000AD8B246DFE800F002102216201D0021FC
:100BC00001F07EFC0DE000BF4FF0010A4FF001087C
:100BD000A07880070DD528E004F12000002101F065
:100BE00027FD8246BAF1000FD04612D0A0788007C8
:100BF0001BD4C2462168C80768D088E057F87C0C2F
:100C0000B24640F4803047F87C0CBAF1000FD04671
:100C1000ECD13868A16E20F0407008434FF0000A14
:100C20003860B046A0788007E3D557F8300C10F054
:100C300080590BD157F8300C40F0805047F8300CF9
:100C400057F8300C00F080500190019847F20005F1
:100C5000C4F20005286840F480702860FFF75AFE4F
:100C6000064600BF2868C00508D4FFF753FE801B66
:100C70000228F7D94FF0030A22E000BFBAF1000FB3
:100C80001ED1B86810F4407012D0D4F88410884295
:100C90000BD0B868B96820F4407041F48031B96075
:100CA000B96821F48031B960B860C00740F01C8198
:100CB000B868D4F8841020F440700843C246B86085
:100CC000B9F1000F1AD02168C80720D1880726D4AF
:100CD00048072CD4080732D4C80638D488063ED436
:100CE000880544D448054AD4480650D4080656D44A
:100CF000C8055CD4880462D473E000BF57F8300C98
:100D000020F0805047F8300C2168C807DED03868E2
:100D1000A26B20F00300104338608807D8D53868EC
:100D2000E26B20F00C00104338604807D2D53868D9
:100D3000226C20F03000104338600807CCD53868AA
:100D4000626C20F0C00010433860C806C6D5386811
:100D5000A26C20F44070104338608806C0D5386813
:100D6000E26C20F44060104338608805BAD53868DA
:100D7000E26D20F44020104338604805B4D538684F
:100D8000226E20F44010104338604806AED5386813
:100D9000226D20F44050104338600806A8D538680A
:100DA000626D20F4404010433860C805A2D5386811
:100DB000A26D20F4403010433860880411D53A68A1
:100DC000E06E22F040620243B0F1806F3A601DD0C5
:100DD000B0F1006F05D157F87C0C40F4801047F853
:100DE0007C0C080326D53A68206F22F0406202434B
:100DF000B0F1806F3A6015D0B0F1006F1AD157F89A
:100E00007C0C40F4801047F87C0C13E0201D01217D
:100E100001F056FB2168002818BF82460803E2D47F
:100E200008E000BF201D012101F04AFB21680028D5
:100E300018BF8246480311D53A68606F22F04062BD
:100E40000243B0F1806F3A601CD0B0F1006F05D161
:100E500057F87C0C40F4801047F87C0C480425D5EA
:100E60003968A06F21F040510143B0F1005F396053
:100E700014D0B0F1805F19D1201D022101F020FBB8
:100E800011E000BF201D012101F01AFB216800289C
:100E900018BF82464804E3D408E000BF04F12000F4
:100EA000022101F0C5FB002818BF8246206801041A
:100EB00006D4C0030CD4504602B0BDE8F08700BF92
:100EC0003968E26F21F0804111433960C003F2D5E7
:100ED0003868D4F8801020F000400843386050464D
:100EE00002B0BDE8F08700BFFFF714FD064641F2EF
:100EF00088354FF0030A00BFB86880073FF5D8AEC9
:100F0000FFF708FD801BA842F6D9D9E62DE9F0438A
:100F100081B000286BD042F20008C4F202080446F7
:100F2000D8F800000D4600F0070088420CD2D8F82F
:100F3000000020F007002843C8F80000D8F800009F
:100F400000F00700A84252D1206841F2080910F0D1
:100F50000201C4F202090DD0A268D9F8003003F0F2
:100F6000F0039A4206D9D9F8003023F0F0031A436F
:100F7000C9F80020C2072DD169B1A168D9F80020B5
:100F800002F0F002914206D2D9F8002022F0F002DD
:100F90001143C9F80010D8F8001001F00701A94268
:100FA0000CD9D8F8001021F007012943C8F8001027
:100FB000D8F8001001F00701A94218D141071BD44D
:100FC000000723D4D9F80000D9F8041010F00C0061
:100FD0002CD131E0606800285ED0022800F07E80CD
:100FE000032840F0818059F8081C890158D4012059
:100FF00001B0BDE8F08300BFD9F80010E26821F429
:10100000E0611143C9F800100007DBD5D9F80000F2
:10101000216920F4605040EAC100C9F80000D9F805
:101020000000D9F8041010F00C0005D00C2829D1CC
:1010300001F00301012925D159F8081C090703D43F
:10104000D9F88C10090A02E059F8081C090943F282
:10105000B81201F00F01C0F6000252F8211000286A
:101060000A4618BF00220C2871D1D9F8040000F0FC
:101070000300022846D0032804BF41F20021C0F239
:101080007A0143E0042857D008285BD141F20022BE
:10109000C0F27A025BE000BF59F8081C8907A6D5A8
:1010A000D9F8001021F003010843C9F80000FFF748
:1010B00031FC064641F28837D9F80000616800F03B
:1010C0000C00B0EB810F15D0FFF724FC801BB84259
:1010D000F2D9032001B0BDE8F08300BF59F8081C25
:1010E00089037FF584AFDBE759F8081C49057FF5D4
:1010F0007EAFD5E7206800F0020100297FF43DAF04
:1011000049E700BF42F20041C0F2F401D9F80400FF
:10111000D9F80420C0F30210C2F306225143D9F8D3
:1011200004200130B1FBF0F0C2F34161022202EB76
:101130004101B0FBF1F20AE042F20042C0F2F402D7
:1011400005E000BF002200210C283FF48EAFD9F843
:10115000000043F2A011C0F30310C0F60001085CC8
:1011600000F01F0022FA00F140F20400C2F2000079
:1011700040F208020068C2F20002116001B0BDE84E
:10118000F043FFF7F3BB000040F2080041F2080112
:10119000C2F20000C4F202010068096843F2B01212
:1011A000C1F30221C0F60002515C01F01F01C840EA
:1011B0007047000040F2080041F20801C2F200004E
:1011C000C4F202010068096843F2B012C1F3C221FF
:1011D000C0F60002515C01F01F01C84070470000DA
:1011E00041F20C01C4F2020151F8040C10F00C029F
:1011F000086805D00C2A29D100F00300012825D168
:1012000051F80C0C000703D4D1F88800000A02E062
:1012100051F80C0C000943F2B81300F00F00C0F6AF
:10122000000353F82030002A184618BF00200C2A6B
:1012300018BF7047086800F00300022810D0032888
:1012400004BF41F20023C0F27A030DE0042A1FD04C
:10125000082A23D141F20020C0F27A00704700BF73
:1012600042F20043C0F2F40308680A68C0F30210B7
:10127000C2F30622096801305A43B2FBF0F0C1F311
:101280004161022202EB4101B0FBF1F0704700BF67
:1012900042F20040C0F2F400704700BF002000237B
:1012A000C5E700002DE9F04383B0002800F0068375
:1012B00041F200060446C4F20206B068F1682278E2
:1012C00000F00C09D00601F003081DD42078C007F7
:1012D00000F08180B9F1080F76D0B9F10C0F08BF8A
:1012E000B8F1030F70D06068B0F5803F07D0B0F55B
:1012F000A02F40F01982306840F4802030603068C0
:1013000040F4803030601AE2B9F1000F1ED0B9F11C
:101310000C0F08BFB8F1010F18D0A169306800297F
:1013200000F0AE8140F001003060FFF7F3FA0546AF
:101330003068800700F1B681FFF7ECFA401B022805
:101340004FF00300F4D903B0BDE8F08330688007A4
:1013500003D5A069002800F0B182256A3068000733
:1013600000F11E81D6F89400000900F0F0008542DB
:1013700000F21C813068B9F1000F40F008003060C5
:10138000306820F0F00040EA050030607068E169E4
:1013900020F47F4040EA0120706040F07D82B06D13
:1013A000C00000F11982B06D40F08050B065B06DA2
:1013B00000F0805002900298FFF7AEFBB16D21F073
:1013C0008051B1650AE200BF3068800303D56068D0
:1013D000002800F07382207880072DD5B9F1040F22
:1013E0001CD0B9F10C0F08BFB8F1020F16D0E1689C
:1013F0003068002900F0B28140F480703060FFF75F
:1014000089FA0546306840050FD4FFF783FA401B80
:1014100002284FF00300F5D995E700BF306840057A
:1014200003D5E068002800F049827068216920F047
:10143000F85040EA01607060207800075ED42078A0
:10144000400771D4A06A002800F0E282022840F030
:10145000DF80F068E16A00F003028A4240F0F08029
:10146000226B6FF00F0300F0700103EB0212914248
:1014700040F0E680616B00F4FE42B2EB012F40F0D9
:10148000DF80A16B00F40032073918BF01218A42C6
:1014900040F0D680E26B0023CFF6E07303EA0252FD
:1014A00000F4C001A2F50012914240F0C980216C05
:1014B0004FF07E4202EA016100F0C06001F17E411E
:1014C000884240F0BD803068800100F1A182306820
:1014D00040F080703060F06840F08070F060FFF79E
:1014E00019FA04463068800100F19282FFF712FA7F
:1014F000001B02284FF00300F4D924E76169D6F8F5
:10150000940000296ED040F00100C6F89400FFF767
:1015100001FA0546D6F89400800790D4FFF7FAF94F
:10152000401B0228F6D9FBE0B06D10F0805808D1BE
:10153000B06D40F08050B065B06D00F0805000900C
:10154000009847F20007C4F200073868C00513D4BA
:10155000386840F480703860FFF7DCF9054600BF5A
:101560003868C00508D4FFF7D5F9401B02284FF0B2
:101570000300F5D9E7E600BFA068012808D00528D8
:1015800040F0B080D6F8900040F00400C6F890001B
:10159000D6F8900040F00100C6F89000B1E000BF1E
:1015A000306800F0F00085427FF6E4AEB06DC00018
:1015B00000F18A80B06D40F08050B065B06D00F0F1
:1015C000805001900198FFF7A7FAB16D21F080518A
:1015D000B165B0F5007F00F07D80802D40F2D080B5
:1015E0000320D8E020F00100C6F89400FFF792F93C
:1015F000054600BFD6F8940080077FF520AFFFF7BF
:1016000089F9401B02284FF00300F3D99BE600BF85
:10161000B9F10C0F00F05281306820F0807030601A
:10162000FFF778F9044600BF3068800140F1E4809C
:10163000FFF770F9001B02284FF00300F4D982E68F
:10164000B9F10C0F00F03A81306840015CBF30689E
:101650005FEAC00000F13281306820F080703060B5
:10166000FFF758F905463068800140F18F81FFF798
:1016700051F9401B02284FF00300F4D963E600BF84
:1016800020F001003060FFF745F90546306880071B
:101690007FF51CAEFFF73EF9401B02284FF0030018
:1016A000F4D950E6306840F0080030603068D4E982
:1016B000072120F0F00008433060706820F47F407C
:1016C00040EA0220706001E6FFF726FAB0F5007FDD
:1016D0007FF483AF812D5DD30120A02D88BF022030
:1016E00059E000BFD6F89010002821F00101C6F89B
:1016F0009010D6F8901021F00401C6F8901000F078
:101700008780FFF707F9054641F28837D6F8900041
:10171000800700F18F80FFF7FDF8401BB842F5D934
:10172000032003B0BDE8F0833168002821F4803144
:101730003160316821F48021316000F08580FFF74D
:10174000E9F80546306880033FF545AEFFF7E2F85B
:10175000401B64284FF00300F4D9F4E520F48070B6
:101760003060FFF7D7F80546306840057FF564AE76
:10177000FFF7D0F8401B02284FF00300F4D9E2E550
:10178000A5F17000B0FA80F04009802D08BF02205A
:1017900001E000BF002042F20001C4F202010A6829
:1017A00022F0070202440A60096801F00701814241
:1017B00040F08480306840F0080030603068D4E940
:1017C000072120F0F00008433060706820F47F406B
:1017D00040EA022070605FE0FFF79EF9B0F5007FFD
:1017E00006D1812D40D30120A02D88BF022045E0E5
:1017F000802D3BD9032041E0F0684FF6FC71CFF615
:10180000EE610840F060002003B0BDE8F08300BF47
:10181000FFF780F8054641F28837D6F89000800738
:1018200008D5FFF777F8401BB8424FF00300F4D912
:1018300089E500BFB8F1000F7FF404AEB06D20F071
:101840008050B065FEE500BFFFF764F805463068DC
:1018500080037FF5C0ADFFF75DF8401B64284FF0B3
:101860000300F4D96FE500BF002007E0A5F1700088
:10187000B0FA80F04009802D08BF022042F200013A
:10188000C4F202010A6822F0070202440A600968F1
:1018900001F00701814211D1B068F16810F00C002D
:1018A00005D00C282AD101F00301012926D1316885
:1018B000090707D4D6F89410090A05E0012003B0FF
:1018C000BDE8F0833168090943F2B81201F00F0155
:1018D000C0F6000252F8211000280A4618BF002264
:1018E0000C2837D1F06800F00300022810D003283C
:1018F00004BF41F20021C0F27A010DE004281FD09C
:10190000082823D141F20022C0F27A0222E000BF6F
:1019100042F20041C0F2F401F068F268C0F3021034
:10192000C2F306225143F2680130B1FBF0F0C2F37A
:101930004161022202EB4101B0FBF1F20AE000BF7B
:1019400042F20042C0F2F40204E000BF0022002193
:101950000C28C7D0B06843F2A011C0F30310C0F642
:101960000001085C00F01F0022FA00F140F20400C0
:10197000C2F2000040F208020068C2F200021160E8
:10198000FEF7F4FF00287FF4DEAC9FE4F06848F235
:101990008C01CFF69D1104F12C0700EA010C8ECFCB
:1019A000D4E90F546FF00F0040F2000E00EB02106C
:1019B000CFF6E07E41EA0C010EEA05554FF07E427B
:1019C0000843A5F5001502EA046240EA032002F18B
:1019D0007E420EF5F014284304EA4737104338439B
:1019E000F060306840F080703060F06840F08070E7
:1019F000F060FEF78FFF04463068800108D4FEF7E0
:101A000089FF001B02284FF00300F5D99BE400BFBB
:101A1000002003B0BDE8F083411E0020B0EB116F41
:101A20001CBF012070474EF21002CEF2000251603E
:101A30004EF62351CEF20001F0230B700721906087
:101A40001160704770470000704700007047000049
:101A5000B0B501680446C8690D6840F62F028B686E
:101A60000240202A05F0200E0AD1BEF1000F07D057
:101A7000616E00293CD02046BDE8B040084700BF59
:101A800040F60F02104209D040F22012C0F200428C
:101A900003F0010C2A4012EB0C0215D1226E012A30
:101AA00005D110F0100218BF15F0100222D1C202A9
:101AB00014D513F4800211D04FF4801220460A622C
:101AC000BDE8B040FFF7C0BFC20718BF15F4807271
:101AD00040F08C81820700F193819CE1010640F186
:101AE000958015F0800100F09180A16E0029C2D18F
:101AF000B0BD00BF102008628868400600F1BC80BD
:101B0000B4F85800B4F85A10B4F85A20002A18BF94
:101B10008842EDD0401A216851E8001F226821F464
:101B2000907142E80013DBB1216851E8001F226880
:101B300021F4907142E8001393B1216851E8001F2D
:101B4000226821F4907142E800134BB1216851E8FA
:101B5000001F226821F4907142E80013002BDAD1B3
:101B6000216851E8021F226821F0010142E80213B6
:101B7000DBB1216851E8021F226821F0010142E82F
:101B8000021393B1216851E8021F226821F001017C
:101B900042E802134BB1216851E8021F226821F08C
:101BA000010142E80213002BDAD12021E167002174
:101BB00021666166216851E8001F226821F010014A
:101BC00042E80013002B00F00B81216851E8001F50
:101BD000226821F0100142E80013002B00F0008180
:101BE000216851E8001F226821F0100142E800132B
:101BF000002B00F0F580216851E8001F226821F0D9
:101C0000100142E80013002BD4D1E9E040067FF533
:101C10006FAF15F0400008BFB0BD00BF206850E8AE
:101C2000000F216820F0400041E80002DAB120688E
:101C300050E8000F216820F0400041E8000292B116
:101C4000206850E8000F216820F0400041E80002C1
:101C50004AB1206850E8000F216820F0400041E8B8
:101C60000002002ADAD120200021A0672046A166C8
:101C7000BDE8B04000F01ABC206F01684A6893B21A
:101C8000002B3FF435AFB4F858008342BFF430AFB7
:101C9000A4F85A200968890600F19F80206850E85E
:101CA000000F216820F4807041E80002DAB120685A
:101CB00050E8000F216820F4807041E8000292B1E2
:101CC000206850E8000F216820F4807041E800028D
:101CD0004AB1206850E8000F216820F4807041E884
:101CE0000002002ADAD1206850E8020F216820F0B3
:101CF000010041E80202C2B3206850E8020F2168E7
:101D000020F0010041E802027AB3206850E8020F97
:101D1000216820F0010041E8020232B3206850E857
:101D2000020F216820F0010041E80202002ADAD106
:101D30001BE000BF206850E8020F216820F040003F
:101D400041E80202DAB1206850E8020F216820F071
:101D5000400041E8020292B1206850E8020F216879
:101D600020F0400041E802024AB1206850E8020F2A
:101D7000216820F0400041E80202002ADAD1202048
:101D8000E06700202066206850E8000F216820F0FE
:101D9000100041E80002DAB1206850E8000F216825
:101DA00020F0100041E8000292B1206850E8000FD6
:101DB000216820F0100041E800024AB1206850E894
:101DC000000F216820F0100041E80002002ADAD15B
:101DD000206FFEF735FBB4F85800B4F85A10401ADB
:101DE00081B22046BDE8B040FFF72CBE01220A6256
:101DF000D4F8802042F00102C4F8802082070AD57E
:101E0000BCF1000F07D002220A62D4F8802042F011
:101E10000402C4F8802042070AD5BCF1000F07D0A5
:101E200004220A62D4F8802042F00202C4F8802022
:101E300002070DD54EEA0C02B2FA82F2520907D11E
:101E400008220A62D4F8802042F00802C4F88020F8
:101E500002050BD515F0806208D04FF400620A62CB
:101E6000D4F8802042F02002C4F88020D4F88020EA
:101E7000002A3FF43DAE10F0200018BFBEF1000F65
:101E800040F0C880D4F88000896800F0280001F094
:101E90004001401806D12046FFF7D8FD0020C4F8C5
:101EA0008000B0BD206850E8000F216820F49070D9
:101EB00041E80002BAB3206850E8000F216820F41E
:101EC000907041E8000272B3206850E8000F21686A
:101ED00020F4907041E800022AB3206850E8000F17
:101EE000216820F4907041E80002002ADAD11AE05B
:101EF000206850E8020F216820F0010041E802024A
:101F0000DAB1206850E8020F216820F0010041E8B2
:101F1000020292B1206850E8020F216820F001000F
:101F200041E802024AB1206850E8020F216820F01F
:101F3000010041E80202002ADAD1206E012824D1F2
:101F4000206850E8000F216820F0100041E80002EE
:101F5000DAB1206850E8000F216820F0100041E855
:101F6000000292B1206850E8000F216820F01000B4
:101F700041E800024AB1206850E8000F216820F0D3
:101F8000100041E80002002ADAD12020E06700209A
:101F90002066216860668868400635D5206850E86C
:101FA000020F216820F0400041E80202DAB1206807
:101FB00050E8020F216820F0400041E8020292B18F
:101FC000206850E8020F216820F0400041E802023A
:101FD0004AB1206850E8020F216820F0400041E833
:101FE0000202002ADAD1206F70B142F67D01C0F6FC
:101FF00000018163FEF74AFA00283FF479AD206FB3
:10200000816BBDE8B04008472046BDE8B040FFF70F
:102010001DBD00BF626E002A3FF434AF20469047DA
:1020200021682FE7B0B582B0A0B10446806F28B90F
:10203000002084F87400204600F056F82420A067A1
:102040002068016821F001010160204600F098FD40
:10205000012803D1012002B0B0BD00BF606A10B1F9
:10206000204600F097FB2068416821F490414160D0
:10207000816821F02A018160016841F0010101605D
:102080000020C4F88000FEF745FC216805460A6878
:1020900012070CD56FF07E4C20464FF40011002241
:1020A0002B46CDF800C000F09FFE78B92168086883
:1020B00040070FD56FF07E4C20464FF48001002280
:1020C0002B46CDF800C000F08FFE18B1032002B0FF
:1020D000B0BD00BF2020A067E0670020206684F824
:1020E000740002B0B0BD0000F0B5A7B00446684669
:1020F00004308421FEF730F9206844F20041C4F234
:102100000001884202D027B0F0BD00BF0226684619
:102110000096FEF709FD002818BFFEF78BF941F283
:102120005800C4F20200016841F24C0541F400314C
:1021300001600068C4F2020500F400302290229889
:102140002868002740F001002860286822A900F0D4
:102150000100229022980C20CDE922060320259030
:10216000072026904FF090402497FEF7DDFAA5F562
:102170007E6040F28005C2F200058021202285E8C1
:10218000C1002846C5E90371C5E90577C5E90727F8
:10219000FEF7FEF9002818BFFEF74CF926200021B3
:1021A00000222567AC62FEF735FC2620FEF71EFCF8
:1021B00027B0F0BDF0B581B00446C06F20280DD126
:1021C00013460A4600294FF0010018BF002B01D129
:1021D00001B0F0BD94F87400012803D1022001B0D1
:1021E000F0BD00BF01204FF0000C84F87400C4F86B
:1021F00060C0216848F20005C4F20005A94202D07F
:10220000496809022AD422206265A4F85830C4F82B
:1022100080C0E067206F00284AD042F60D21C0F64A
:10222000000142F6693542F68D0600F12C0CC0F62D
:102230000005C0F600068CE8620021680027243102
:102240008763FEF70BFA98B31020C4F880002020B3
:1022500084F87470E067012001B0F0BD216851E896
:10226000001F256841F0806145E800100028CAD0B1
:10227000206850E8000F216840F0806041E80005C8
:10228000002DC0D0206850E8000F216840F0806029
:1022900041E80005002DB6D0206850E8000F216805
:1022A00040F0806041E80005002DD7D1ABE700BFCA
:1022B0002069002184F8741030B300BF206850E812
:1022C000000F216840F4807041E80002E2B120680C
:1022D00050E8000F216840F4807041E800029AB194
:1022E000206850E8000F216840F4807041E8000247
:1022F00052B1206850E8000F216840F4807041E836
:102300000002002ADAD100BF206850E8020F2168DD
:1023100040F0010041E80202DAB3206850E8020F01
:10232000216840F0010041E8020292B3206850E8C1
:10233000020F216840F0010041E802024AB3206820
:1023400050E8020F216840F0010041E80202002A33
:10235000DAD11EE0206850E8020F216840F040000A
:1023600041E80202FAB1206850E8020F216840F00B
:10237000400041E80202B2B1206850E8020F216833
:1023800040F0400041E80202002A4FF000003FF414
:102390001FAF206850E8020F216840F0400041E87C
:1023A0000202002AD6D1002001B0F0BD80B540F273
:1023B000C80040F27001C2F20000C2F200010D221A
:1023C0000A2300F009F84FF090402021BDE880403A
:1023D000FEF792BA704700002DE9F04182B0044642
:1023E000806F20280BD10D4600294FF001005AD0F4
:1023F0001746002A57D094F87400012804D102200F
:1024000002B0BDE8F08100BF012084F87400002014
:10241000C4F8800021209846A067FEF77BFAA4F854
:102420005070A4F85270A1680746B1F5805F01D1E1
:10243000206918B12E46002501E000BF00260020CB
:1024400084F874000BE000BF35F8021B00266FF320
:102450005F210185B4F852000138A4F85200B4F8A5
:10246000520078B12046802100223B46CDF8008002
:1024700000F0BAFC78B92068002EE5D016F8011BF0
:10248000E7E700BF2046402100223B46CDF8008010
:1024900000F0AAFC20B1032002B0BDE8F08100BF2B
:1024A0002020A067002002B0BDE8F0817047000046
:1024B000FEE70000FEE70000FEE7000070470000B6
:1024C000F0B581B041F20007C4F20207FA680D4688
:1024D0009107044614D0F868216800F00300884290
:1024E0004FF0010040F0A180002900F09E80F868C4
:1024F0006168C0F302100130884232D134E000BF7D
:10250000206803280CD0022816D0012829D1396868
:10251000012211F0020182EA510116D120E000BF30
:102520003968890310D43968012211F4802182EAC4
:1025300091410AD114E000BF3968012211F4806191
:1025400082EA912101D10BE00021FA6863686FF003
:102550000F0622F0730206EB03131A431043F860D0
:1025600011B1012001B0F0BD386820F08060386002
:10257000FEF7D0F9064600BF3868000106D5FEF721
:10258000C9F9801B0228F7D946E000BF012D0FD002
:1025900005BB386948F2FF01CFF6FD710840D4E968
:1025A00002120023CFF6FE7303EA423220E000BF9E
:1025B00048F2FF013869CFF6FF112269002301F1CB
:1025C000B461CFF6E0730840A16803EA0252A2F5B5
:1025D00000120DE0386948F2FF016269CFF6FF1181
:1025E0004FF07E430840A16803EA026202F17E4296
:1025F00040EA012010433861386840F0806038605C
:10260000FEF788F9054600BF3868000108D4FEF7D8
:1026100081F9401B0228F7D9032001B0F0BD00BFAB
:10262000A069396908433861002001B0F0BD00009D
:10263000F0B581B041F20007C4F20207FA680D4616
:102640009107044614D0F868216800F0030088421E
:102650004FF0010040F08D80002900F08A80F8687A
:102660006168C0F302100130884219D136E000BF22
:102670002068032818D002280AD0012810D1396810
:10268000012211F0020182EA510108D019E000BFD5
:102690003968012211F4806182EA912111D1E9B1F6
:1026A000012001B0F0BD00BF3968890308D4396842
:1026B000012211F4802182EA9141F0D001E000BFB3
:1026C0000021FA6863686FF00F0622F0730206EBD0
:1026D00003131A431043F8600029E1D1386820F051
:1026E00080503860FEF716F9064600BF3868800053
:1026F00006D5FEF70FF9801B0228F7D930E000BF9E
:102700007969A0684FEA002065B148F2FF02CFF670
:10271000FF12114022694FF07E4303EA026202F188
:102720007E420AE048F2FF02CFF6FD721140E268F5
:102730000023CFF6FE7303EA423208431043786168
:10274000386840F080503860FEF7E4F8054600BF76
:102750003868800008D4FEF7DDF8401B0228F7D95E
:10276000032001B0F0BD00BF60697969084378615A
:10277000002001B0F0BD000070470000FEF7D0B8A7
:102780004EF68850CEF20000016841F470010160FD
:102790007047000080B5416ACA070DD18A0716D478
:1027A0004A071FD40A0728D4CA0631D48A063AD465
:1027B0004A0658D542E000BF0268D0F828C05368E6
:1027C00023F4003343EA0C0353608A07E8D5026818
:1027D000D0F82CC0536823F4803343EA0C035360D1
:1027E0004A07DFD50268D0F830C0536823F480234D
:1027F00043EA0C0353600A07D6D50268D0F834C008
:10280000536823F4004343EA0C035360CA06CDD552
:102810000268D0F838C0936823F4805343EA0C036D
:1028200093608A06C4D50268D0F83CC0936823F44C
:10283000005343EA0C0393604A0614D50268D0F8AB
:1028400040C05368BCF5801F23F4801343EA0C0397
:10285000536008D1D2F804C0D0F844E02CF4C0038F
:1028600043EA0E035360090658BF80BD0168806CBF
:102870004A6822F400221043486080BD806A00212B
:10288000A0F85A10A0F85210FFF7E0B8806A02686A
:10289000836FD0F87CC0916809062DD5212B2BD1F0
:1028A0000021A0F8521000BF016851E8001F026823
:1028B00021F0C00142E80013DBB1016851E8001FBC
:1028C000026821F0C00142E8001393B1016851E8A9
:1028D000001F026821F0C00142E800134BB10168FB
:1028E00051E8001F026821F0C00142E80013002BEC
:1028F000DAD12021816702689168490640F17E8023
:10290000BCF1220F7AD10021A0F85A10016851E8D9
:10291000001F026821F4907142E80013BBB3016804
:1029200051E8001F026821F4907142E8001373B36C
:10293000016851E8001F026821F4907142E8001319
:102940002BB3016851E8001F026821F4907142E83E
:102950000013002BDAD11AE0016851E8021F026867
:1029600021F0010142E80213DBB1016851E8021FC6
:10297000026821F0010142E8021393B1016851E8B5
:10298000021F026821F0010142E802134BB1016805
:1029900051E8021F026821F0010142E80213002BF6
:1029A000DAD1016E012924D1016851E8001F0268C3
:1029B00021F0100142E80013DBB1016851E8001F6B
:1029C000026821F0100142E8001393B1016851E858
:1029D000001F026821F0100142E800134BB10168AA
:1029E00051E8001F026821F0100142E80013002B9B
:1029F000DAD12021C167002101664166D0F880103C
:102A000041F01001C0F88010FFF720B80168806A1B
:102A10000968890600F19F800021A0F85A1000BFC4
:102A2000016851E8001F026821F4807142E8001338
:102A3000E3B1016851E8001F026821F4807142E8A7
:102A400000139BB1016851E8001F026821F48071F6
:102A500042E8001353B1016851E8001F026821F4F5
:102A6000807142E80013002BDAD100BF016851E801
:102A7000021F026821F0010142E80213BBB30168A2
:102A800051E8021F026821F0010142E8021373B30A
:102A9000016851E8021F026821F0010142E80213B7
:102AA0002BB3016851E8021F026821F0010142E8DE
:102AB0000213002BDAD11AE0016851E8021F026804
:102AC00021F0400142E80213DBB1016851E8021F26
:102AD000026821F0400142E8021393B1016851E815
:102AE000021F026821F0400142E802134BB1016865
:102AF00051E8021F026821F0400142E80213002B56
:102B0000DAD12021C167016E012924D1016851E881
:102B1000001F026821F0100142E80013DBB10168D8
:102B200051E8001F026821F0100142E8001393B140
:102B3000016851E8001F026821F0100142E800130B
:102B40004BB1016851E8001F026821F0100142E812
:102B50000013002BDAD1016E012918BFFFF726BC44
:102B6000B0F85810FEF76EBF806A016E012918BFD9
:102B7000FFF730BCB0F858104908FEF763BF0000FB
:102B8000B0B5054605F108041ECC0068194341EABA
:102B90000403D5F81CE0046846F6F311CEF6FF7185
:102BA0002140194341EA0E010160416848F2000CDE
:102BB00021F4405111434160AA69C4F2000C604500
:102BC0001CBF296A0A438168102321F43061114334
:102BD000816044F6FF71C4F20001884218DC44F2BF
:102BE0000041C4F20001884228D044F60001C4F23A
:102BF000000188422AD044F60041C4F20001884214
:102C000042D141F28801C4F2020109688B0933E024
:102C100045F20001C4F2000188421FD0604525D072
:102C200043F60001C4F2010188422DD141F288012E
:102C3000C4F202010B6868A222E000BF41F28801E1
:102C4000C4F2020109688B0816E000BF41F2880156
:102C5000C4F2020109680B090EE000BF41F28801CD
:102C6000C4F2020109680B0A06E000BF41F28801C4
:102C7000C4F2020109688B0A43F2E812C0F60002AE
:102C800003F0030152F82130604542F20040C0F2E7
:102C9000F40015D0BEF5004F22D1082B4FF00101F2
:102CA00000F29580DFE803F0065460935893939305
:102CB0005E0000BFFEF768FA002855D14FE000BF64
:102CC000082B4FF0010100F28280DFE803F005805D
:102CD00023801B8080802100FEF756FAD0B914E0D3
:102CE000082B4FF0010100F27280DFE803F005537A
:102CF0005F70577070705D00FEF746FA002855D17E
:102D00004FE000BFFEF76CFA20B900215FE000BF82
:102D10004FF400406A6802EB420188424FF0010123
:102D200055D31303984252D8010E000210EB520003
:102D300041F100010023FDF797FA4FF60052A0F58C
:102D40004071C0F20F0291423BD301213FE000BF2E
:102D5000FEF730FA40B902E0FEF742FA20B900214E
:102D600035E000BF4FF4004069684A0802EB4000BC
:102D7000B0FBF1F04FF6EF72A0F11001914207D8CD
:102D80004FF6F0710140C0F34200084419E000BF63
:102D900001211CE0FEF70EFA40B902E0FEF720FA2E
:102DA00020B9002113E000BF4FF4004069684FF6DE
:102DB000EF7200EB5100B0FBF1F0A0F11001914275
:102DC00004D82968C860002101E000BF0121002269
:102DD00008466A66AA66B0BD010000000400000053
:102DE00002000000080000002DE9F04104460068E0
:102DF0001546C2690E461140891BB1FA81F1490995
:102E0000A94240F0A080DDF81880B8F1000F29D069
:102E100018F1010140F08080C1693140891BB1FA8D
:102E200081F14909A94240F08E80C1693140891B76
:102E3000B1FA81F14909A94240F08580C169314068
:102E4000891BB1FA81F14909A9427CD1C16931409C
:102E5000891BB1FA81F14909A942DDD00020BDE802
:102E6000F08100BFFDF756FD206850E8000F216893
:102E700020F4D07041E80002BAB3206850E8000F97
:102E8000216820F4D07041E8000272B3206850E855
:102E9000000F216820F4D07041E800022AB32068B6
:102EA00050E8000F216820F4D07041E80002002AA9
:102EB000DAD11AE0206850E8020F216820F0010002
:102EC00041E80202DAB1206850E8020F216820F0E0
:102ED000010041E8020292B1206850E8020F216827
:102EE00020F0010041E802024AB1206850E8020FD8
:102EF000216820F0010041E80202002ADAD12020F6
:102F0000A06704F17C0020210160002084F8740097
:102F10000320BDE8F08100BF1F4600BFFDF7FAFCAB
:102F2000C01B4045A0D820680168490744BFC1695B
:102F30005FEA01510AD4C0693040801BB0FA80F0CA
:102F40004009A842EAD00020BDE8F0814FF40061BA
:102F5000016200BF206850E8000F216820F4D070A3
:102F600041E80002BAB3206850E8000F216820F45D
:102F7000D07041E8000272B3206850E8000F216869
:102F800020F4D07041E800022AB3206850E8000F16
:102F9000216820F4D07041E80002002ADAD11AE05A
:102FA000206850E8020F216820F0010041E8020289
:102FB000DAB1206850E8020F216820F0010041E8F2
:102FC000020292B1206850E8020F216820F001004F
:102FD00041E802024AB1206850E8020F216820F05F
:102FE000010041E80202002ADAD12020A067E06750
:102FF00004F1800087E7000040F2C800C2F2000040
:10300000FEF726BDFEE7000096B0FDF797FC05A889
:1030100004302421FDF7A0F94FF40070FDF736FDD0
:1030200020B1EFF3108072B6FEE700BF4FF480715D
:10303000089110210991012111910A210220129178
:1030400007210590CDE90F00CDE91310159005A8D3
:10305000FEF728F920B1EFF3108072B6FEE700BF4B
:103060000F20009003200190002568460421CDE93F
:1030700002550495FDF74AFF20B1EFF3108072B6B8
:10308000FEE700BF41F24C06CDE90855C4F2020646
:103090003068202140F0040030603068002200F0E9
:1030A0000400009000983068202740F080003060D5
:1030B000306800F0800000900098306840F0010017
:1030C0003060306800F00100009000984FF09040B0
:1030D000FDF71AFC4FF40050CDE9050540F600005D
:1030E00005ACC4F6000021460795FDF71DFB012045
:1030F000CDE906054FF09040214605970895FDF76C
:1031000013FB56F8040C002140F0010046F8040CB3
:1031100056F8040C002200F00100059005981020DC
:10312000FDF778FC1020FDF761FC40F2C80044F286
:103130000041C2F20000C4F200010C234FF4E1325E
:1031400080E82600C0E90355C0E90535C0E9075508
:103150004562FEF767FF28B1EFF3108072B600BF3B
:10316000FEE700BF40F2C80040F27001C2F200006A
:10317000C2F200010D22FFF71DF800BF4FF47A7074
:10318000FDF7BEFAFAE7F1EE100A4FF6FF71C0F252
:10319000C03120EA010040F04070E1EE100A7047B3
:1031A00000000000000000000102030406070809F7
:1031B0000000000001020304A0860100400D03008E
:1031C000801A060000350C0040420F0080841E006B
:1031D00000093D0000127A000024F40000366E0160
:1031E0000048E801006CDC02000000000400000060
:1031F0000200000008000000183200080000002053
:1032000010000000C401000828320008100000204F
:1032100040070000E001000801000000100000006D
:0832200000093D000000000060
:040000050800018965
:00000001FF
