:020000040800F2
:10000000C0060020290200084D1A0008451A000801
:10001000491A000831030008B11B00080000000065
:10002000000000000000000000000000551A000859
:100030003503000800000000511A0008591A000892
:10004000430200084302000843020008430200087C
:10005000430200084302000843020008430200086C
:10006000430200084302000843020008430200085C
:10007000430200084302000843020008430200084C
:10008000430200084302000843020008430200083C
:10009000430200084302000843020008430200082C
:1000A000430200084302000843020008430200081C
:1000B000430200084302000843020008430200080C
:1000C00043020008430200084302000843020008FC
:1000D00043020008430200084302000843020008EC
:1000E00043020008430200084302000843020008DC
:1000F00043020008430200084302000843020008CC
:1001000043020008430200084302000843020008BB
:1001100043020008430200084302000843020008AB
:10012000430200084302000843020008430200089B
:10013000430200084302000843020008430200088B
:10014000430200084302000843020008430200087B
:10015000430200084302000843020008430200086B
:10016000430200084302000843020008430200085B
:100170004302000843020008430200080000000098
:10018000430200084302000800F002F800F03CF8C7
:100190000AA090E8000C82448344AAF10107DA45E2
:1001A00001D100F031F8AFF2090EBAE80F0013F0F8
:1001B000010F18BFFB1A43F001031847001C000091
:1001C000201C0000103A24BF78C878C1FAD8520722
:1001D00024BF30C830C144BF04680C6070470000C1
:1001E0000023002400250026103A28BF78C1FBD840
:1001F000520728BF30C148BF0B6070471FB501F0E0
:10020000AFFD1FBD10B510BD00F058F81146FFF747
:10021000F5FF01F0CFFC00F076F803B4FFF7F2FF32
:1002200003BC00F07DF800000948804709480047FA
:10023000FEE7FEE7FEE7FEE7FEE7FEE7FEE7FEE796
:10024000FEE7FEE704480549054A064B70470000F3
:100250005D1A000889010008C0000020C0060020C7
:10026000C0020020C00200204FF0000200B513467B
:1002700094469646203922BFA0E80C50A0E80C50C6
:10028000B1F12001BFF4F7AF090728BFA0E80C5077
:1002900048BF0CC05DF804EB890028BF40F8042B70
:1002A00008BF704748BF20F8022B11F0804F18BFDD
:1002B00000F8012B7047704770477047754600F093
:1002C0002BF8AE4605006946534620F007008546E8
:1002D00018B020B5FFF7B6FFBDE820404FF000068C
:1002E0004FF000074FF000084FF0000BAC46ACE8B1
:1002F000C009ACE8C009ACE8C009ACE8C00921F00D
:1003000007018D46704710B50446AFF300802046C4
:10031000BDE81040FFF781BF004870471000002083
:1003200001491820ABBEFEE726000200704700001E
:10033000FEE7000070470000B0B5044600F0F8F892
:10034000054640F20000C2F200000078611C18BFB0
:10035000044400BF00F0ECF8401BA042FAD3B0BD4B
:100360002DE9F04F82B00D68002D00F0DB8041F6E2
:10037000000400F13847C4F6000407224FEAB7260C
:10038000A04208BF0622062E38BF4FEAB7224FF020
:10039000000B0027002600920AE000BF0D6801361E
:1003A00035FA06F207F102070BF1040B00F0BA80F0
:1003B000012202FA06FE15EA0E08EFD0D1F80490E9
:1003C00009F0030AAAF10105022D15D20323826860
:1003D00003FA07F5CB68AA43BB401A438260426820
:1003E000C9F3001322EA0E02B3404FEA460CEC4375
:1003F0001A43426017E000BFBAF1030F0ED1C56A7D
:10040000C9F3C00225EA0E05B2402A434FF0030AA1
:10041000C2620AFA07F2D443BC4625E0032202FA7C
:1004200007F5EC43BC46C2688B68224003FA0CF324
:100430001A43BAF1020FC26016D16FF0030202EA4A
:10044000560202440BF01C050F23D2F820E003FAF9
:1004500005F90B692EEA090EAB4043EA0E0313625D
:10046000D1F8049009F0030A02680AFA0CF322405A
:100470001A4319F4403F026090D041F26003C4F285
:1004800002031A6840F2004E42F001021A601A6834
:10049000C4F2010E02F001020192019A26F0030259
:1004A0004FF608497244CFF6FF7952F809C00BF0B5
:1004B0000C050F23009CAB402CEA030304FA05F55E
:1004C0002B4342F80930DEF808204B6842EA080561
:1004D00040F20C4CDC0258BF22EA0805CEF8085066
:1004E000C4F2010CDCF800209C0242EA080558BF67
:1004F00022EA0805CCF80050DEF804209C0342EA0A
:10050000080558BF22EA0805CEF80450DEF800209E
:10051000DB0342EA080558BF22EA0805CEF800507E
:100520003CE700BF02B000F000B830BCBDE8C08FAF
:1005300040F2BC00C2F200000068704740F20000C8
:1005400040F2BC01C2F20000C2F2000100780A6869
:10055000104408607047000080B542F20000C4F209
:100560000200016841F480710160032000F078F816
:10057000002000F009F800281CBF012080BD00F019
:1005800029F8002080BD000070B540F20006C2F2DC
:1005900000063178E1B1044640F20800C2F20000E2
:1005A0004FF47A720068B2FBF1F1B0FBF1F000F0A9
:1005B000ADFD0F2C4FF0010508D838B94FF0FF30D2
:1005C00021460022002500F01FF87460284670BD07
:1005D000012070BD82B041F25800C4F2020081686F
:1005E00041F001018160816801F0010101910199EF
:1005F000016841F080510160006800F08050009077
:10060000009802B07047000010B54EF60C5CCEF2B8
:10061000000CDCF80030C3F3022E8EF00704042C2B
:1006200028BF0424BEF103034FF0FF3E0EFA04F48A
:1006300038BF0023A14399400EFA03F39A431143B4
:1006400000F00F0200F160430901043A03F564432E
:100650006244002848BF02F10C03197010BD00006D
:100660004EF60C51CEF200010A684FF6FF031A4015
:1006700060F30A2242F0806040F0FD70086070472D
:1006800047F20001C4F200010A68B0F5007F02F4ED
:10069000C06031D1B0F5007F2CD00868012262F330
:1006A0004A20086040F20800C2F2000000683222CE
:1006B00050434DF68362C4F21B32A0FB0202900C41
:1006C0004A69520511D5421C0FD04A6952050CD512
:1006D00058B14A69520508D5012806D04A69520521
:1006E00003D50228A0F10400EAD14869400544BFBF
:1006F0000320704700207047B0F5806FFAD008687B
:10070000022262F34A2008600020704747F200008E
:10071000C4F20000006800F4C06070472DE9F043A7
:1007200081B000286BD042F20008C4F202080446EF
:10073000D8F800000D4600F0070088420CD2D8F827
:10074000000020F007002843C8F80000D8F8000097
:1007500000F00700A84252D1206841F2080910F0C9
:100760000201C4F202090DD0A268D9F8003003F0EA
:10077000F0039A4206D9D9F8003023F0F0031A4367
:10078000C9F80020C2072DD169B1A168D9F80020AD
:1007900002F0F002914206D2D9F8002022F0F002D5
:1007A0001143C9F80010D8F8001001F00701A94260
:1007B0000CD9D8F8001021F007012943C8F800101F
:1007C000D8F8001001F00701A94218D141071BD445
:1007D000000723D4D9F80000D9F8041010F00C0059
:1007E0002CD131E0606800285ED0022800F07E80C5
:1007F000032840F0818059F8081C890158D4012051
:1008000001B0BDE8F08300BFD9F80010E26821F420
:10081000E0611143C9F800100007DBD5D9F80000EA
:10082000216920F4605040EAC100C9F80000D9F8FD
:100830000000D9F8041010F00C0005D00C2829D1C4
:1008400001F00301012925D159F8081C090703D437
:10085000D9F88C10090A02E059F8081C090941F678
:100860008C5201F00F01C0F6000252F8211000284E
:100870000A4618BF00220C2871D1D9F8040000F0F4
:100880000300022846D0032804BF41F20021C0F231
:100890007A0143E0042857D008285BD141F20022B6
:1008A000C0F27A025BE000BF59F8081C8907A6D5A0
:1008B000D9F8001021F003010843C9F80000FFF740
:1008C00037FE064641F28837D9F80000616800F02B
:1008D0000C00B0EB810F15D0FFF72AFE801BB84249
:1008E000F2D9032001B0BDE8F08300BF59F8081C1D
:1008F00089037FF584AFDBE759F8081C49057FF5CC
:100900007EAFD5E7206800F0020100297FF43DAFFB
:1009100049E700BF42F20041C0F2F401D9F80400F7
:10092000D9F80420C0F30210C2F306225143D9F8CB
:1009300004200130B1FBF0F0C2F34161022202EB6E
:100940004101B0FBF1F20AE042F20042C0F2F402CF
:1009500005E000BF002200210C283FF48EAFD9F83B
:10096000000041F67A51C0F30310C0F60001085CA4
:1009700000F01F0022FA00F140F20400C2F2000071
:1009800040F208020068C2F20002116001B0BDE846
:10099000F043FFF7F9BD00002DE9F04383B00028D4
:1009A00000F0068341F200060446C4F20206B06875
:1009B000F168227800F00C09D00601F003081DD47C
:1009C0002078C00700F08180B9F1080F76D0B9F126
:1009D0000C0F08BFB8F1030F70D06068B0F5803F0E
:1009E00007D0B0F5A02F40F01982306840F4802085
:1009F0003060306840F4803030601AE2B9F1000FA6
:100A00001ED0B9F10C0F08BFB8F1010F18D0A169C1
:100A10003068002900F0AE8140F001003060FFF73F
:100A200087FD05463068800700F1B681FFF780FD3D
:100A3000401B02284FF00300F4D903B0BDE8F08357
:100A40003068800703D5A069002800F0B182256ACC
:100A50003068000700F11E81D6F89400000900F00C
:100A6000F000854200F21C813068B9F1000F40F0BF
:100A700008003060306820F0F00040EA0500306087
:100A80007068E16920F47F4040EA0120706040F026
:100A90007D82B06DC00000F11982B06D40F08050D1
:100AA000B065B06D00F0805002900298FFF72EFE06
:100AB000B16D21F08051B1650AE200BF306880035A
:100AC00003D56068002800F07382207880072DD558
:100AD000B9F1040F1CD0B9F10C0F08BFB8F1020F27
:100AE00016D0E1683068002900F0B28140F48070CF
:100AF0003060FFF71DFD0546306840050FD4FFF755
:100B000017FD401B02284FF00300F5D995E700BF01
:100B10003068400503D5E068002800F0498270681D
:100B2000216920F0F85040EA0160706020780007E9
:100B30005ED42078400771D4A06A002800F0E282D9
:100B4000022840F0DF80F068E16A00F003028A4288
:100B500040F0F080226B6FF00F0300F0700103EBA8
:100B60000212914240F0E680616B00F4FE42B2EB6B
:100B7000012F40F0DF80A16B00F40032073918BF6D
:100B800001218A4240F0D680E26B0023CFF6E07369
:100B900003EA025200F4C001A2F50012914240F0B3
:100BA000C980216C4FF07E4202EA016100F0C06012
:100BB00001F17E41884240F0BD803068800100F143
:100BC000A182306840F080703060F06840F0807042
:100BD000F060FFF7ADFC04463068800100F19282BE
:100BE000FFF7A6FC001B02284FF00300F4D924E70E
:100BF0006169D6F8940000296ED040F00100C6F873
:100C00009400FFF795FC0546D6F89400800790D431
:100C1000FFF78EFC401B0228F6D9FBE0B06D10F008
:100C2000805808D1B06D40F08050B065B06D00F0D4
:100C300080500090009847F20007C4F2000738681F
:100C4000C00513D4386840F480703860FFF770FC3A
:100C5000054600BF3868C00508D4FFF769FC401B93
:100C600002284FF00300F5D9E7E600BFA06801288D
:100C700008D0052840F0B080D6F8900040F004007D
:100C8000C6F89000D6F8900040F00100C6F8900039
:100C9000B1E000BF306800F0F00085427FF6E4AEBE
:100CA000B06DC00000F18A80B06D40F08050B0653A
:100CB000B06D00F0805001900198FFF727FDB16DF5
:100CC00021F08051B165B0F5007F00F07D80802D6E
:100CD00040F2D0800320D8E020F00100C6F8940054
:100CE000FFF726FC054600BFD6F8940080077FF585
:100CF00020AFFFF71DFC401B02284FF00300F3D983
:100D00009BE600BFB9F10C0F00F05281306820F073
:100D100080703060FFF70CFC044600BF3068800133
:100D200040F1E480FFF704FC001B02284FF00300B1
:100D3000F4D982E6B9F10C0F00F03A813068400135
:100D40005CBF30685FEAC00000F13281306820F09B
:100D500080703060FFF7ECFB05463068800140F1A1
:100D60008F81FFF7E5FB401B02284FF00300F4D909
:100D700063E600BF20F001003060FFF7D9FB0546B5
:100D8000306880077FF51CAEFFF7D2FB401B0228BE
:100D90004FF00300F4D950E6306840F008003060AE
:100DA0003068D4E9072120F0F00008433060706813
:100DB00020F47F4040EA0220706001E6FFF7A6FCC5
:100DC000B0F5007F7FF483AF812D5DD30120A02D8E
:100DD00088BF022059E000BFD6F89010002821F00B
:100DE0000101C6F89010D6F8901021F00401C6F861
:100DF000901000F08780FFF79BFB054641F2883793
:100E0000D6F89000800700F18F80FFF791FB401B20
:100E1000B842F5D9032003B0BDE8F083316800285B
:100E200021F480313160316821F48021316000F09B
:100E30008580FFF77DFB0546306880033FF545AEB2
:100E4000FFF776FB401B64284FF00300F4D9F4E56C
:100E500020F480703060FFF76BFB0546306840057A
:100E60007FF564AEFFF764FB401B02284FF00300E0
:100E7000F4D9E2E5A5F17000B0FA80F04009802DC8
:100E800008BF022001E000BF002042F20001C4F2CE
:100E900002010A6822F0070202440A60096801F0B0
:100EA0000701814240F08480306840F008003060E3
:100EB0003068D4E9072120F0F00008433060706802
:100EC00020F47F4040EA022070605FE0FFF71EFCE4
:100ED000B0F5007F06D1812D40D30120A02D88BF21
:100EE000022045E0802D3BD9032041E0F0684FF619
:100EF000FC71CFF6EE610840F060002003B0BDE861
:100F0000F08300BFFFF714FB054641F28837D6F89F
:100F10009000800708D5FFF70BFB401BB8424FF04D
:100F20000300F4D989E500BFB8F1000F7FF404AEE7
:100F3000B06D20F08050B065FEE500BFFFF7F8FA15
:100F40000546306880037FF5C0ADFFF7F1FA401B1E
:100F500064284FF00300F4D96FE500BF002007E0DC
:100F6000A5F17000B0FA80F04009802D08BF022082
:100F700042F20001C4F202010A6822F007020244B0
:100F80000A60096801F00701814211D1B068F16877
:100F900010F00C0005D00C282AD101F00301012922
:100FA00026D13168090707D4D6F89410090A05E05C
:100FB000012003B0BDE8F0833168090941F68C5285
:100FC00001F00F01C0F6000252F8211000280A4675
:100FD00018BF00220C2837D1F06800F00300022867
:100FE00010D0032804BF41F20021C0F27A010DE0C5
:100FF00004281FD0082823D141F20022C0F27A022F
:1010000022E000BF42F20041C0F2F401F068F26851
:10101000C0F30210C2F306225143F2680130B1FB63
:10102000F0F0C2F34161022202EB4101B0FBF1F2A8
:101030000AE000BF42F20042C0F2F40204E000BF46
:10104000002200210C28C7D0B06841F67A51C0F3C5
:101050000310C0F60001085C00F01F0022FA00F146
:1010600040F20400C2F2000040F208020068C2F23E
:1010700000021160FFF788FA00287FF4DEAC9FE4DD
:10108000F06848F28C01CFF69D1104F12C0700EABC
:10109000010C8ECFD4E90F546FF00F0040F2000E18
:1010A00000EB0210CFF6E07E41EA0C010EEA055596
:1010B0004FF07E420843A5F5001502EA046240EABB
:1010C000032002F17E420EF5F014284304EA47376C
:1010D00010433843F060306840F080703060F06852
:1010E00040F08070F060FFF723FA0446306880011A
:1010F00008D4FFF71DFA001B02284FF00300F5D9B2
:101100009BE400BF002003B0BDE8F083411E002037
:10111000B0EB116F1CBF012070474EF21002CEF2EF
:10112000000251604EF62351CEF20001F0230B7005
:10113000072190601160704710B590F83C20012A9B
:101140004FF0020255D080F83D20026843F2004C77
:101150005368D2F808E0C4F2010C624505D042F6AB
:101160000044C4F20104A24203D14C6823F470038A
:1011700023430C6823F07003234340F6FF34C4F28A
:101180000004A242536011DD43F2FF33C4F20103B5
:101190009A421BDC40F60043C4F200039A421DD081
:1011A00042F60043C4F201030DE000BFB2F1804FEC
:1011B00014D040F20043C4F200039A420ED040F62D
:1011C0000003C4F200039A4208D00CE044F200038A
:1011D000C4F201039A4201D0624504D189682EF01D
:1011E0008003194391600121002280F83D1080F8AE
:1011F0003C20104610BD0000002804BF01207047AD
:1012000010B5044690F83D0028B9002084F83C0051
:10121000204600F023F8022084F83D002068211DBC
:1012200000F026FC012084F8480084F83E0084F891
:101230003F0084F8400084F8410084F8420084F8BC
:10124000430084F8440084F8450084F8460084F89C
:10125000470084F83D00002010BD000081B0006808
:10126000B0F1804F02D001B0704700BF41F258008A
:10127000C4F20200016841F001010160006800F061
:1012800001000090009801B07047000080B590F810
:101290003C20012A4FF0020200F0C28080F83D207D
:1012A000D0F800C08822DCF80830CFF6FE721A4071
:1012B000CCF808200B684F2B28DC1F2B44DD202B9B
:1012C00045D0302B43D0402B40F0AC80D1F804E027
:1012D000C968DCF82030DCF8202022F00102CCF8CC
:1012E0002020DCF8182022F0F00242EA011123F05D
:1012F0000A0242EA0E02CCF81810CCF82020DCF8E2
:10130000081041F0470121F0300180E06F2B27DD0C
:10131000B3F5005F48D0B3F5805F7AD0702B40F012
:101320008180D1E901E3C968DCF8082043EA0E03B3
:1013300022F47F4243EA01211143CCF80810DCF883
:10134000081041F0770162E00BB1102B6AD1DCF894
:10135000081021F07001194341F0070157E000BF68
:10136000502B35D0602B5DD1D1F804E0C968DCF892
:10137000203023F01003CCF82030DCF81830DCF8F3
:10138000202023F4704322F0A00243EA013142EA14
:101390000E12CCF81810CCF82020DCF8081041F020
:1013A000670121F0100132E0D1E901E3C968DCF8FE
:1013B000082043EA0E0322F47F4243EA012111434D
:1013C000CCF80810DCF8081041F480411FE000BFA1
:1013D000D1F804E0C968DCF82030DCF8202022F0E5
:1013E0000102CCF82020DCF8182022F0F00242EABA
:1013F000011123F00A0242EA0E02CCF81810CCF8D0
:101400002020DCF8081041F0570121F02001CCF831
:1014100008100022012180F83D10002180F83C10C6
:10142000104680BD0122F5E780B586B00068B0F1B6
:10143000804F01D006B080BD41F24C00C4F20200E2
:10144000016841F001010160006801A900F001009C
:101450000190019820200190022002900020CDE907
:101460000300012005904FF09040FEF779FF06B091
:1014700080BD00002DE9F04190F83C30012B04BF05
:101480000220BDE8F0814FEAB202052A00F2728123
:10149000DFE812F006005000A400F80034017801E3
:1014A00003681A6AA3F1804622F001021A621D6ADB
:1014B0001A465C6852F818CF8F68A6F59636D1F8B0
:1014C00000E025F002054FEAB626072E45EA07059B
:1014D0000AD80127B74017F0E50F1FBFCF6825F0E6
:1014E0000C0527F004073D43072E0BD8012707FA08
:1014F00006F616F0E50F1FBF24F44074D1E9056726
:1015000034433C434FF68C76CFF6FE760CEA060762
:1015100047EA0E075C609F614F6809695F631D625F
:101520009F6947F008079F619F6927F004079F6143
:1015300065E100BF036843F200461A6AC4F201067F
:1015400022F010021A621D6A1A46D3F804C052F83B
:10155000188FB3428E68D1F800E025F0200545EAE7
:10156000061505D042F60046C4F20106B34207D183
:10157000CE686FF0400725F0C00507EA0616354330
:10158000A3F18046A6F596364FEAB626072E0CD86C
:10159000012707FA06F616F0E50F1FBFD1E9056728
:1015A0002CF44064374344EA870C48F6FF44CFF6F6
:1015B000FF6404EA080444EA0E27C3F804C09F61EC
:1015C0004F6809699F631D629F6947F400679F61C7
:1015D0009F6927F480679F6110E100BF036843F2B1
:1015E00000461A6AC4F2010622F480721A621D6A69
:1015F0001A46D3F804C052F81CEFB3428E68D1F8F3
:10160000008025F4007545EA062505D042F600461F
:10161000C4F20106B34207D1CE6840F2FF4736025A
:1016200025F44065BE433543A3F18046A6F59636C2
:101630004FEAB626072E0CD8012707FA06F616F051
:10164000E50F1FBFD1E905672CF44054374344EA46
:10165000071C4FF68C74CFF6FE740EEA040747EAB7
:101660000807C3F804C0DF614F680969DF631D62C2
:10167000DF6947F00807DF61DF6927F00407DF61F2
:10168000BDE000BF03681A6AA3F1804722F48052CC
:101690001A621A46A7F59637D3F820805D6852F88B
:1016A0001CCFD1F800E08E684FEAB727072F09D882
:1016B0000124BC4014F0E50F1EBF4C6925F48045A1
:1016C00045EA841528F4005444EA063448F6FF46F7
:1016D000CFF6FF660CEA060747EA0E275D60DF617A
:1016E0004F6809691F641C62DF6947F40067DF61A6
:1016F000DF6927F48067DF6180E000BF03681A6A52
:10170000A3F1804722F480321A621A46A7F5963771
:10171000D3F820805D6852F854EFD1F800C08E688D
:101720004FEAB727072F09D80124BC4014F0E50F72
:101730001EBF4C6925F4803545EA042528F40034A1
:1017400044EA06444FF68C76CFF6FE7603360EEA70
:10175000060747EA0C075D605F654F6809699F658A
:101760001C625F6D47F008075F655F6D27F0040737
:101770005F6544E00121002280F83C200846BDE876
:10178000F08100BF03681A6AA3F1804722F4801237
:101790001A621A46A7F59637D3F820805D6852F88A
:1017A00054EFD1F800C08E684FEAB727072F09D849
:1017B0000124BC4014F0E50F1EBF4C6925F48025C0
:1017C00045EA842528F4001444EA065448F6FF4606
:1017D000CFF6FF6606F540760EEA060747EA0C27C5
:1017E0005D605F654F680969DF651C625F6D47F486
:1017F00000675F655F6D27F480675F6509021368A6
:10180000194311600021002280F83C200846BDE801
:10181000F0810000002804BF0120704710B5044685
:1018200090F83D0028B9002084F83C00204600F0E4
:1018300023F8022084F83D002068211D00F018F9EB
:10184000012084F8480084F83E0084F83F0084F8C2
:10185000400084F8410084F8420084F8430084F892
:10186000440084F8450084F8460084F8470084F872
:101870003D00002010BD00007047000061B10A1F4C
:101880004FEAB202032A11D8DFE802F00214181C52
:1018900000F13F0318E000BF90F83E20012A1CBF72
:1018A00001207047022280F83E202CE000F1430323
:1018B0000AE000BF00F1400306E000BF00F1410371
:1018C00002E000BF00F142031B78012B1CBF012086
:1018D0007047032A08D8DFE802F0030B0F1300BF9C
:1018E000022280F83F200EE0022280F843200AE026
:1018F000022280F8402006E0022280F8412002E027
:10190000022280F84220026801F01F010120136AC0
:1019100000FA01F18B431362136A0B43A2F1804179
:10192000A1F596314FEAB121062913624AD88840C1
:1019300010F0650F46D0506C40F6FF31C4F2000144
:1019400040F400408A4250640EDD43F2FF30C4F29E
:101950000100824216DC40F60040C4F200008242E0
:101960001CD042F6004015E0B2F1804F16D040F294
:101970000040C4F20000824210D040F60000C4F2E1
:10198000000009E044F20000C4F20100824205D0E8
:1019900043F20040C4F2010082420CD1906807215A
:1019A000C0F20101014006294FF0000008D0B1F556
:1019B000803F08BF7047106840F0010010600020B1
:1019C000704700BF42F6FF30C4F2010082420DDCD6
:1019D00040F2FF70C4F20000824215DCB2F1804F89
:1019E000DCD040F20040C4F20000D5E743F6FF70BF
:1019F000C4F20100824213DC42F60040C4F201004E
:101A00008242C5D1CAE700BF40F60000C4F2000020
:101A10008242C3D040F60040C4F20000BCE700BFE1
:101A200044F20000C4F201008242B7D044F6000044
:101A3000C4F20100824202BF506C40F40040506486
:101A4000B9E70000FEE70000FEE70000FEE7000047
:101A50007047000070470000FEF770BD4EF68850DA
:101A6000CEF20000016841F470010160704700008F
:101A700080B540F6FF330268C4F2000398422DDCC3
:101A8000B0F1804F3CD040F20043C4F200039842D2
:101A900036D040F60003C4F20003984230D042F63C
:101AA000FF33C4F20103984234DD43F6FF73C4F2FE
:101AB000010398423EDD44F20003C4F20103984260
:101AC00052D044F60003C4F2010398424CD044F2D1
:101AD0000043C4F20103984246D049E040F6004377
:101AE000C4F2000398420BD043F20043C4F2010356
:101AF000984205D042F60043C4F201039842CED189
:101B00004B6822F070021A4342F6FF33C4F201031D
:101B10009842CADC40F2FF73C4F20003984217DC1B
:101B2000B0F1804F20D040F20043C4F2000398424D
:101B30001AD01DE042F60043C4F20103984213D0CC
:101B400043F20043C4F2010398420DD010E000BFFD
:101B500040F60003C4F20003984205D040F600436B
:101B6000C4F20003984203D1CB6822F440721A43B6
:101B70004B6922F0800E8A6843EA0E03D1F800C058
:101B80000360C262A0F18042A2F596324FEAB2220F
:101B9000072AC0F828C007D8012303FA02F212F07E
:101BA000E50F1CBF096901630121416180BD00008F
:101BB000FEE700009AB0FEF7CFFC06A8043024210F
:101BC000FEF752FB4FF40070FEF75AFD20B1EFF321
:101BD000108072B6FEE700BF4FF4807109911021AA
:101BE0000A91012112910A210220139107210690E6
:101BF000CDE91000CDE91410169006A8FEF7CCFE32
:101C000020B1EFF3108072B6FEE700BF0F20019005
:101C100003200290002401A80421CDE90344059487
:101C2000FEF77CFD20B1EFF3108072B6FEE700BF37
:101C300041F24C00C4F20200016840F2E73341F087
:101C400080010160016840F21F3201F080010691BD
:101C50000699016841F00101016000684FF0804180
:101C600000F001000690069840F27000C2F20000F9
:101C70000494CDE902441894CDE90B44CDE909441C
:101C800080E81600C0E903348461FFF7B5FA28B193
:101C9000EFF3108072B600BFFEE700BF4FF4805034
:101CA000019040F27000C2F2000001A9FFF7EEFAC5
:101CB00020B1EFF3108072B6FEE700BF40F2700073
:101CC000C2F20000FFF7A6FD20B1EFF3108072B65C
:101CD000FEE700BF40F270000024C2F2000017A926
:101CE00017941994FFF728FA20B1EFF3108072B619
:101CF000FEE700BF6020CDE9060408940A9440F294
:101D00007004C2F2000406A920460022FFF7B2FBCD
:101D100020B1EFF3108072B6FEE700BF2046FFF758
:101D200083FB20460021FFF7A9FD00BF642505EBDA
:101D300085002168400048631420FEF7FDFA002D5D
:101D4000A5F10105F3D16525002600BF2068466393
:101D50001420FEF7F1FA013D06F10A06F6D1E5E797
:101D6000F1EE100A4FF6FF71C0F2C03120EA010017
:101D700040F04070E1EE100A7047000000000000E3
:101D8000000001020304060708090000A086010004
:101D9000400D0300801A060000350C0040420F0081
:101DA00080841E0000093D0000127A000024F40027
:101DB00000366E010048E801006CDC02E01D0008FE
:101DC0000000002010000000C4010008F01D000801
:101DD00010000020B0060000E00100080000000034
:101DE000010000001000000000093D00000000009C
:040000050800018965
:00000001FF
