:020000040800F2
:10000000D0060020290200082D200008D11C00087D
:10001000292000083103000809230008000000001F
:10002000000000000000000000000000ED220008B9
:10003000350300080000000031200008F12200080C
:10004000430200084302000843020008430200087C
:10005000430200084302000843020008430200086C
:10006000430200084302000843020008430200085C
:10007000430200084302000843020008430200084C
:10008000430200084302000843020008430200083C
:10009000430200084302000843020008430200082C
:1000A000430200084302000843020008430200081C
:1000B000430200084302000843020008430200080C
:1000C00043020008430200084302000843020008FC
:1000D00043020008430200084302000843020008EC
:1000E00043020008430200084302000843020008DC
:1000F00043020008430200084302000843020008CC
:1001000043020008430200084302000843020008BB
:1001100043020008430200084302000843020008AB
:10012000430200084302000843020008430200089B
:10013000430200084302000843020008430200088B
:10014000430200084302000843020008430200087B
:10015000430200084302000843020008430200086B
:10016000430200084302000843020008430200085B
:100170004302000843020008430200080000000098
:10018000430200084302000800F002F800F03CF8C7
:100190000AA090E8000C82448344AAF10107DA45E2
:1001A00001D100F031F8AFF2090EBAE80F0013F0F8
:1001B000010F18BFFB1A43F0010318474C2300003E
:1001C0006C230000103A24BF78C878C1FAD85207CF
:1001D00024BF30C830C144BF04680C6070470000C1
:1001E0000023002400250026103A28BF78C1FBD840
:1001F000520728BF30C148BF0B6070471FB502F0DF
:1002000055F91FBD10B510BD00F058F81146FFF7A5
:10021000F5FF02F07BF800F076F803B4FFF7F2FF89
:1002200003BC00F07DF800000948804709480047FA
:10023000FEE7FEE7FEE7FEE7FEE7FEE7FEE7FEE796
:10024000FEE7FEE704480549054A064B70470000F3
:10025000F522000889010008D0000020D006002007
:10026000D0020020D00200204FF0000200B513465B
:1002700094469646203922BFA0E80C50A0E80C50C6
:10028000B1F12001BFF4F7AF090728BFA0E80C5077
:1002900048BF0CC05DF804EB890028BF40F8042B70
:1002A00008BF704748BF20F8022B11F0804F18BFDD
:1002B00000F8012B7047704770477047754600F093
:1002C0002BF8AE4605006946534620F007008546E8
:1002D00018B020B5FFF7B6FFBDE820404FF000068C
:1002E0004FF000074FF000084FF0000BAC46ACE8B1
:1002F000C009ACE8C009ACE8C009ACE8C00921F00D
:1003000007018D46704710B50446AFF300802046C4
:10031000BDE81040FFF781BF004870471000002083
:1003200001491820ABBEFEE726000200704700001E
:10033000FEE7000070470000EFF3108072B600BFC8
:10034000FEE70000B0B5044600F006F9054640F2AD
:100350000000C2F200000078611C18BF044400BF16
:1003600000F0FAF8401BA042FAD3B0BD2DE9F04FDF
:1003700082B00D68002D00F0DB8041F6000400F132
:100380003847C4F6000407224FEAB726A04208BF48
:100390000622062E38BF4FEAB7224FF0000B002787
:1003A000002600920AE000BF0D68013635FA06F219
:1003B00007F102070BF1040B00F0BA80012202FAE8
:1003C00006FE15EA0E08EFD0D1F8049009F0030AF2
:1003D000AAF10105022D15D20323826803FA07F55D
:1003E000CB68AA43BB401A4382604268C9F300133A
:1003F00022EA0E02B3404FEA460CEC431A43426035
:1004000017E000BFBAF1030F0ED1C56AC9F3C002ED
:1004100025EA0E05B2402A434FF0030AC2620AFAE7
:1004200007F2D443BC4625E0032202FA07F5EC4369
:10043000BC46C2688B68224003FA0CF31A43BAF137
:10044000020FC26016D16FF0030202EA56020244A4
:100450000BF01C050F23D2F820E003FA05F90B6915
:100460002EEA090EAB4043EA0E031362D1F8049062
:1004700009F0030A02680AFA0CF322401A4319F43D
:10048000403F026090D041F26003C4F202031A6858
:1004900040F2004E42F001021A601A68C4F2010EE6
:1004A00002F001020192019A26F003024FF6084978
:1004B0007244CFF6FF7952F809C00BF00C050F23F8
:1004C000009CAB402CEA030304FA05F52B4342F8E9
:1004D0000930DEF808204B6842EA080540F20C4C6F
:1004E000DC0258BF22EA0805CEF80850C4F2010C1D
:1004F000DCF800209C0242EA080558BF22EA080501
:10050000CCF80050DEF804209C0342EA080558BFEE
:1005100022EA0805CEF80450DEF80020DB0342EAA8
:10052000080558BF22EA0805CEF800503CE700BF96
:1005300002B000F000B830BCBDE8C08F426902EAEA
:100540000103914341EA0341816170471823002A66
:1005500008BF2823C150704740F2C800C2F2000013
:100560000068704790F84120202A03D190F840207D
:10057000012A01D102207047242280F8412002681C
:10058000136823F001031360136823F4805313608E
:10059000136819431160116841F0010111602021B5
:1005A00080F84110002180F8401008467047000094
:1005B00090F84120202A03D190F84020012A01D14F
:1005C00002207047242280F841200268136823F03B
:1005D00001031360136823F4706343EA012111607F
:1005E000116841F001011160202180F841100021C3
:1005F00080F8401008467047002804BF012070476B
:1006000010B5044690F8410028B9002084F8400055
:10061000204600F027FB242084F8410094E80910CC
:10062000E2680168012A21F00101016023F0706194
:100630000161816821F40041816003D14CF40041E3
:10064000816007E04CF40441022A816004BF4FF44A
:1006500000614160416804F1100C41F0007141F407
:1006600000414160C16821F40041C1609CE80E1066
:10067000114341EA0321C160216A41EA0C01016092
:10068000016841F00101016000202021606484F8CC
:100690004110206384F8420010BD00002DE9F04FA6
:1006A00083B004460020029094F84100202808D12D
:1006B0008A4621688869000403D494F84000012820
:1006C00004D1022003B000F0C0B800BF012084F8BC
:1006D0004000242084F84100002060640A20D146B4
:1006E00060F39F2948F208001D46904660F39F2A58
:1006F0005F1C4FF0200B07E0C1F81CB002980130DE
:1007000002900298404571D2E0680128484608BF2F
:1007100050464860FFF720FF216806468A698B69CA
:1007200002F0200203F01003D21838D08869C00606
:1007300064D5886980060DD4D7B3002D72D000BF70
:10074000FFF70AFF801BA8426ED8216888698006DF
:10075000F6D500BF1020C861C1F81CB00298404512
:10076000CCD1486840F48040486088698006C3D492
:1007700067B3002D56D000BFFFF7EEFE801BA842E6
:1007800052D8216888698006F6D5B5E7216888695E
:100790008A6900F0200002F010028018C6D1002FF4
:1007A000F5D0FFF7D9FE0DB3801BA842EED91DE0AE
:1007B00088698006CED4886980065CBF88695FEA54
:1007C0008060C7D488698006F2D5C3E7886980064F
:1007D0003FF592AF886980065CBF88695FEA8060F8
:1007E0003FF58AAF88698006F0D585E7202084F838
:1007F0004100606C40F0200060641FE02046202132
:1008000000222B460096202501F010FB20B101208C
:1008100003B000F01AB800BF2068C56184F84150E9
:1008200000200CE0FFF798FE606C40F02000606450
:10083000202084F84100002084F84200012000219B
:1008400084F8401003B000F000B830BCBDE8C08FA1
:100850002DE9F04F81B0044690F84100202803D1E3
:1008600094F84000012803D1022001B000F0F0B854
:1008700001201F461646884684F84000FFF76CFEAC
:10088000216805468A6912040AD500BFFFF764FE95
:10089000401B192800F2CC80216888690004F5D437
:1008A000222084F84100102084F842000020606477
:1008B000666267856063628D49F6000040F2000958
:1008C000CFF60040B2F5807FC0F2FF190AD351F88D
:1008D000042F43466FF39F2302EA000709F51056E1
:1008E000FF220CE0628D434651F8046F6FF39F23A3
:1008F000D7B243EA074706EA000309F592363B43BD
:1009000033430B602285618D0A9F002960D06FF30D
:100910009F2807F1010B4FF0FF0A00F5806610E0F9
:10092000618D218550F8042FC9B2324042EA01415D
:100930004FF0007241EA080111430160608D002808
:1009400046D0204639462A4601F0CAFA00285BD133
:100950002068616A406A0870606A218D01306062B7
:10096000481E2085618D01396185618D0029E5D0A2
:100970000004E3D12068816909060FD4BBF1000FA0
:1009800018D0002F52D000BFFFF7E6FD401BB84241
:100990004ED8206881690906F6D500BF618DB1F592
:1009A000807FBDD3A4F828A050F8041F4A463140E8
:1009B000C0E700BF81690906F0D4816909065CBF00
:1009C00081695FEA0161E9D481690906F2D5E5E749
:1009D00087B100BF20688169890619D4204639464D
:1009E0002A4601F077F978B9FFF7B6FD401BB84207
:1009F000F0D91DE020688169890609D420460021CC
:100A00002A4601F067F988B1012001B000F020B852
:100A10002021C16142684EF60003CFF600631A4000
:100A20004260002084F841100AE000BFFFF794FD07
:100A3000606C40F020006064202084F841000120B8
:100A4000002184F8421084F8401001B000F000B892
:100A500030BCBDE8C08F00002DE9F04F81B00446E6
:100A600090F84100202803D194F84000012803D1D8
:100A7000022001B000F0F2B801201F461646884659
:100A800084F84000FFF768FD216805468A69120472
:100A90000AD500BFFFF760FD401B192800F2CE8089
:100AA000216888690004F5D4212084F841001020D1
:100AB00084F8420000206064666267856063608D30
:100AC00049F6000C40F20009CFF6004CB0F5807FEB
:100AD000C0F2FF190CD30B4653F8040F47466FF3CF
:100AE0009F2700EA0C0609F50050FF220EE000BF28
:100AF000628D0B46404653F8047F6FF39F20D6B2B9
:100B000040EA064607EA0C0709F5903037433843B8
:100B100018602285608D0A9F00285FD06FF39F28A0
:100B200007F1010B4FF0FF0A0CF5806612E000BFE1
:100B3000628D0846228550F8043FD2B2334043EA22
:100B400002424FF0007342EA08021A430260608DCD
:100B5000002843D0204639462A4601F021FA0028D1
:100B600057D1606A216810F8012B8A626062608D3B
:100B700001386085208D01382085628D002AE6D0FD
:100B80000004E4D1886900060ED4BBF1000F17D031
:100B9000002F51D0FFF7E0FC401BB8424ED821682F
:100BA00088690006F6D500BF608DB0F5807FBFD3A1
:100BB000A4F828A0084650F8042F4B463240C2E75C
:100BC00088690006F0D4886900065CBF88695FEA1E
:100BD0000060E9D488690006F2D5E5E787B100BF77
:100BE00021688869800619D4204639462A4601F0D2
:100BF00071F870B9FFF7B0FC401BB842F0D91DE0A6
:100C0000886980060AD4204600212A4601F062F84D
:100C100090B1012001B000F021B800BF2020C861D0
:100C20004A684EF60003CFF600631A404A6084F823
:100C3000410000200AE000BFFFF78EFC606C40F02E
:100C400020006064202084F841000120002184F805
:100C5000421084F8401001B000F000B830BCBDE88C
:100C6000C08F000010B5A8B0044601A8043084214C
:100C7000FFF7FAFA206845F20041C4F20001884209
:100C800002D028B010BD00BF4020019001A800F0A4
:100C90001FF9002818BFFFF74FFB41F24C04C4F2C4
:100CA0000204206823A940F002002060206800F0C0
:100CB0000200239023984FF4407023901220249038
:100CC00000202590032026900420279040F2004029
:100CD000C4F60000FFF74AFBE06840F40010E06053
:100CE000E06800F400100090009828B010BD0000EB
:100CF00040F2000040F2C801C2F20000C2F200015E
:100D000000780A68104408607047000080B542F21D
:100D10000000C4F20200016841F480710160032008
:100D200000F078F8002000F009F800281CBF01202E
:100D300080BD00F029F8002080BD000070B540F2B1
:100D40000006C2F200063178E1B1044640F2080024
:100D5000C2F200004FF47A720068B2FBF1F1B0FB0E
:100D6000F1F000F09FFF0F2C4FF0010508D838B9C3
:100D70004FF0FF3021460022002500F01FF874607C
:100D8000284670BD012070BD82B041F25800C4F207
:100D90000200816841F001018160816801F0010178
:100DA00001910199016841F080510160006800F0F3
:100DB00080500090009802B07047000010B54EF6C9
:100DC0000C5CCEF2000CDCF80030C3F3022E8EF087
:100DD0000704042C28BF0424BEF103034FF0FF3E98
:100DE0000EFA04F438BF0023A14399400EFA03F32E
:100DF0009A43114300F00F0200F160430901043AE5
:100E000003F564436244002848BF02F10C031970E3
:100E100010BD00004EF60C51CEF200010A684FF6EC
:100E2000FF031A4060F30A2242F0806040F0FD7038
:100E30000860704747F20001C4F200010A68B0F58B
:100E4000007F02F4C06031D1B0F5007F2CD008687B
:100E5000012262F34A20086040F20800C2F200005A
:100E60000068322250434DF68362C4F21B32A0FB6D
:100E70000202900C4A69520511D5421C0FD04A69F2
:100E800052050CD558B14A69520508D5012806D03B
:100E90004A69520503D50228A0F10400EAD1486945
:100EA000400544BF0320704700207047B0F5806FB5
:100EB000FAD00868022262F34A20086000207047D6
:100EC00047F20000C4F20000006800F4C060704700
:100ED0002DE9F04782B00446407841F288070007C8
:100EE000C4F2020730D5606E4FEAB05103290BD827
:100EF000DFE801F002101C25201D002101F09AF806
:100F0000064670B91AE000BF01266078C0060BD50E
:100F10001EE000BF04F12000002101F043F9064665
:100F200060B16078C00613D4B2464EE057F87C1C1E
:100F300041F4803147F87C1C01E000BF606E3968E5
:100F400021F440010843386000266078C006EBD5E4
:100F5000A06E4FEA306003280AD8B246DFE800F0FE
:100F600002102216201D002101F064F80DE000BFE0
:100F70004FF0010A4FF00108A07880070DD528E056
:100F800004F12000002101F00DF98246BAF1000FB2
:100F9000D04612D0A07880071BD4C2462168C8076B
:100FA00068D088E057F87C0CB24640F4803047F8AF
:100FB0007C0CBAF1000FD046ECD13868A16E20F05D
:100FC000407008434FF0000A3860B046A0788007B0
:100FD000E3D557F8300C10F080590BD157F8300C8E
:100FE00040F0805047F8300C57F8300C00F080503B
:100FF0000190019847F20005C4F20005286840F40A
:1010000080702860FFF7A8FA064600BF2868C00570
:1010100008D4FFF7A1FA801B0228F7D94FF0030A82
:1010200022E000BFBAF1000F1ED1B86810F4407082
:1010300012D0D4F8841088420BD0B868B96820F474
:10104000407041F48031B960B96821F48031B960F1
:10105000B860C00740F01C81B868D4F8841020F450
:1010600040700843C246B860B9F1000F1AD0216839
:10107000C80720D1880726D448072CD4080732D4C3
:10108000C80638D488063ED4880544D448054AD4D6
:10109000480650D4080656D4C8055CD4880462D4E7
:1010A00073E000BF57F8300C20F0805047F8300C48
:1010B0002168C807DED03868A26B20F00300104317
:1010C00038608807D8D53868E26B20F00C001043F0
:1010D00038604807D2D53868226C20F030001043C1
:1010E00038600807CCD53868626C20F0C000104327
:1010F0003860C806C6D53868A26C20F4407010432A
:1011000038608806C0D53868E26C20F4406010432F
:1011100038608805BAD53868E26D20F44020104365
:1011200038604805B4D53868226E20F4401010436A
:1011300038604806AED53868226D20F44050104320
:1011400038600806A8D53868626D20F44040104326
:101150003860C805A2D53868A26D20F4403010432D
:101160003860880411D53A68E06E22F0406202438C
:10117000B0F1806F3A601DD0B0F1006F05D157F823
:101180007C0C40F4801047F87C0C080326D53A68A4
:10119000206F22F040620243B0F1806F3A6015D0B8
:1011A000B0F1006F1AD157F87C0C40F4801047F86A
:1011B0007C0C13E0201D012100F03CFF2168002879
:1011C00018BF82460803E2D408E000BF201D0121B9
:1011D00000F030FF2168002818BF8246480311D56F
:1011E0003A68606F22F040620243B0F1806F3A606B
:1011F0001CD0B0F1006F05D157F87C0C40F4801082
:1012000047F87C0C480425D53968A06F21F040517F
:101210000143B0F1005F396014D0B0F1805F19D1A3
:10122000201D022100F006FF11E000BF201D01215A
:1012300000F000FF2168002818BF82464804E3D46C
:1012400008E000BF04F12000022100F0ABFF0028FD
:1012500018BF82462068010406D4C0030CD450464F
:1012600002B0BDE8F08700BF3968E26F21F080412D
:1012700011433960C003F2D53868D4F8801020F0EB
:10128000004008433860504602B0BDE8F08700BF18
:10129000FFF762F9064641F288354FF0030A00BFB6
:1012A000B86880073FF5D8AEFFF756F9801BA84213
:1012B000F6D9D9E62DE9F04381B000286BD042F28F
:1012C0000008C4F202080446D8F800000D4600F0F9
:1012D000070088420CD2D8F8000020F0070028430D
:1012E000C8F80000D8F8000000F00700A84252D16A
:1012F000206841F2080910F00201C4F202090DD081
:10130000A268D9F8003003F0F0039A4206D9D9F860
:10131000003023F0F0031A43C9F80020C2072DD192
:1013200069B1A168D9F8002002F0F002914206D21A
:10133000D9F8002022F0F0021143C9F80010D8F8C3
:10134000001001F00701A9420CD9D8F8001021F0D3
:1013500007012943C8F80010D8F8001001F0070170
:10136000A94218D141071BD4000723D4D9F80000A3
:10137000D9F8041010F00C002CD131E0606800287E
:101380005ED0022800F07E80032840F0818059F86A
:10139000081C890158D4012001B0BDE8F08300BFCA
:1013A000D9F80010E26821F4E0611143C9F8001097
:1013B0000007DBD5D9F80000216920F4605040EA2D
:1013C000C100C9F80000D9F80000D9F8041010F0E5
:1013D0000C0005D00C2829D101F00301012925D1E9
:1013E00059F8081C090703D4D9F88C10090A02E03F
:1013F00059F8081C090942F2D84201F00F01C0F661
:10140000000252F8211000280A4618BF00220C28BA
:1014100071D1D9F8040000F00300022846D0032857
:1014200004BF41F20021C0F27A0143E0042857D002
:1014300008285BD141F20022C0F27A025BE000BFD3
:1014400059F8081C8907A6D5D9F8001021F0030126
:101450000843C9F80000FFF77FF8064641F28837D5
:10146000D9F80000616800F00C00B0EB810F15D0D6
:10147000FFF772F8801BB842F2D9032001B0BDE833
:10148000F08300BF59F8081C89037FF584AFDBE7C0
:1014900059F8081C49057FF57EAFD5E7206800F0B4
:1014A000020100297FF43DAF49E700BF42F200414D
:1014B000C0F2F401D9F80400D9F80420C0F30210F6
:1014C000C2F306225143D9F804200130B1FBF0F0F9
:1014D000C2F34161022202EB4101B0FBF1F20AE0EA
:1014E00042F20042C0F2F40205E000BF00220021F7
:1014F0000C283FF48EAFD9F8000042F2C641C0F389
:101500000310C0F60001085C00F01F0022FA00F191
:1015100040F20400C2F2000040F208020068C2F289
:101520000002116001B0BDE8F043FFF707BC000006
:101530002DE9F04383B0002800F0068341F2000655
:101540000446C4F20206B068F168227800F00C0983
:10155000D00601F003081DD42078C00700F0818078
:10156000B9F1080F76D0B9F10C0F08BFB8F1030F2D
:1015700070D06068B0F5803F07D0B0F5A02F40F084
:101580001982306840F480203060306840F4803048
:1015900030601AE2B9F1000F1ED0B9F10C0F08BF8C
:1015A000B8F1010F18D0A1693068002900F0AE81B0
:1015B00040F001003060FEF7CFFF0546306880073D
:1015C00000F1B681FEF7C8FF401B02284FF0030070
:1015D000F4D903B0BDE8F0833068800703D5A06973
:1015E000002800F0B182256A3068000700F11E81F2
:1015F000D6F89400000900F0F000854200F21C814A
:101600003068B9F1000F40F008003060306820F019
:10161000F00040EA050030607068E16920F47F4026
:1016200040EA0120706040F07D82B06DC00000F1A2
:101630001982B06D40F08050B065B06D00F0805000
:1016400002900298FFF73CFCB16D21F08051B1652A
:101650000AE200BF3068800303D56068002800F00C
:101660007382207880072DD5B9F1040F1CD0B9F111
:101670000C0F08BFB8F1020F16D0E16830680029DE
:1016800000F0B28140F480703060FEF765FF0546DF
:10169000306840050FD4FEF75FFF401B02284FF073
:1016A0000300F5D995E700BF3068400503D5E06831
:1016B000002800F049827068216920F0F85040EA63
:1016C00001607060207800075ED42078400771D4F4
:1016D000A06A002800F0E282022840F0DF80F06873
:1016E000E16A00F003028A4240F0F080226B6FF062
:1016F0000F0300F0700103EB0212914240F0E6800C
:10170000616B00F4FE42B2EB012F40F0DF80A16B71
:1017100000F40032073918BF01218A4240F0D68018
:10172000E26B0023CFF6E07303EA025200F4C0013B
:10173000A2F50012914240F0C980216C4FF07E4228
:1017400002EA016100F0C06001F17E41884240F090
:10175000BD803068800100F1A182306840F0807067
:101760003060F06840F08070F060FEF7F5FE0446EF
:101770003068800100F19282FEF7EEFE001B022825
:101780004FF00300F4D924E76169D6F894000029EA
:101790006ED040F00100C6F89400FEF7DDFE05466D
:1017A000D6F89400800790D4FEF7D6FE401B02289E
:1017B000F6D9FBE0B06D10F0805808D1B06D40F064
:1017C0008050B065B06D00F080500090009847F2F6
:1017D0000007C4F200073868C00513D4386840F425
:1017E00080703860FEF7B8FE054600BF3868C00557
:1017F00008D4FEF7B1FE401B02284FF00300F5D9D4
:10180000E7E600BFA068012808D0052840F0B080B6
:10181000D6F8900040F00400C6F89000D6F890008A
:1018200040F00100C6F89000B1E000BF306800F061
:10183000F00085427FF6E4AEB06DC00000F18A8012
:10184000B06D40F08050B065B06D00F080500190F8
:101850000198FFF735FBB16D21F08051B165B0F50E
:10186000007F00F07D80802D40F2D0800320D8E002
:1018700020F00100C6F89400FEF76EFE054600BF9A
:10188000D6F8940080077FF520AFFEF765FE401B79
:1018900002284FF00300F3D99BE600BFB9F10C0F0B
:1018A00000F05281306820F080703060FEF754FE06
:1018B000044600BF3068800140F1E480FEF74CFE32
:1018C000001B02284FF00300F4D982E6B9F10C0F97
:1018D00000F03A81306840015CBF30685FEAC000C8
:1018E00000F13281306820F080703060FEF734FE05
:1018F00005463068800140F18F81FEF72DFE401BC8
:1019000002284FF00300F4D963E600BF20F0010085
:101910003060FEF721FE0546306880077FF51CAE7B
:10192000FEF71AFE401B02284FF00300F4D950E6E0
:10193000306840F0080030603068D4E9072120F0BA
:10194000F00008433060706820F47F4040EA0220D5
:10195000706001E6FFF7B4FAB0F5007F7FF483AF63
:10196000812D5DD30120A02D88BF022059E000BF4A
:10197000D6F89010002821F00101C6F89010D6F892
:10198000901021F00401C6F8901000F08780FEF757
:10199000E3FD054641F28837D6F89000800700F154
:1019A0008F80FEF7D9FD401BB842F5D9032003B064
:1019B000BDE8F0833168002821F48031316031685E
:1019C00021F48021316000F08580FEF7C5FD0546D9
:1019D000306880033FF545AEFEF7BEFD401B64282E
:1019E0004FF00300F4D9F4E520F480703060FEF786
:1019F000B3FD0546306840057FF564AEFEF7ACFDEB
:101A0000401B02284FF00300F4D9E2E5A5F1700075
:101A1000B0FA80F04009802D08BF022001E000BF2D
:101A2000002042F20001C4F202010A6822F007021B
:101A300002440A60096801F00701814240F0848095
:101A4000306840F0080030603068D4E9072120F0A9
:101A5000F00008433060706820F47F4040EA0220C4
:101A600070605FE0FFF72CFAB0F5007F06D1812DA2
:101A700040D30120A02D88BF022045E0802D3BD916
:101A8000032041E0F0684FF6FC71CFF6EE610840AC
:101A9000F060002003B0BDE8F08300BFFEF75CFDFE
:101AA000054641F28837D6F89000800708D5FEF742
:101AB00053FD401BB8424FF00300F4D989E500BF45
:101AC000B8F1000F7FF404AEB06D20F08050B06527
:101AD000FEE500BFFEF740FD0546306880037FF558
:101AE000C0ADFEF739FD401B64284FF00300F4D968
:101AF0006FE500BF002007E0A5F17000B0FA80F0AC
:101B00004009802D08BF022042F20001C4F2020108
:101B10000A6822F0070202440A60096801F007011E
:101B2000814211D1B068F16810F00C0005D00C288A
:101B30002AD101F00301012926D13168090707D410
:101B4000D6F89410090A05E0012003B0BDE8F0833F
:101B50003168090942F2D84201F00F01C0F60002D3
:101B600052F8211000280A4618BF00220C2837D14D
:101B7000F06800F00300022810D0032804BF41F2EF
:101B80000021C0F27A010DE004281FD0082823D1DB
:101B900041F20022C0F27A0222E000BF42F200418C
:101BA000C0F2F401F068F268C0F30210C2F306223A
:101BB0005143F2680130B1FBF0F0C2F341610222FF
:101BC00002EB4101B0FBF1F20AE000BF42F2004239
:101BD000C0F2F40204E000BF002200210C28C7D0AC
:101BE000B06842F2C641C0F30310C0F60001085CC1
:101BF00000F01F0022FA00F140F20400C2F20000DF
:101C000040F208020068C2F200021160FFF796F885
:101C100000287FF4DEAC9FE4F06848F28C01CFF638
:101C20009D1104F12C0700EA010C8ECFD4E90F546A
:101C30006FF00F0040F2000E00EB0210CFF6E07ED6
:101C400041EA0C010EEA05554FF07E420843A5F526
:101C5000001502EA046240EA032002F17E420EF51A
:101C6000F014284304EA473710433843F0603068E3
:101C700040F080703060F06840F08070F060FEF7F7
:101C80006BFC04463068800108D4FEF765FC001B3D
:101C900002284FF00300F5D99BE400BF002003B0F9
:101CA000BDE8F083411E0020B0EB116F1CBF012086
:101CB00070474EF21002CEF2000251604EF62351F0
:101CC000CEF20001F0230B70072190601160704785
:101CD000FEE700002DE9F04381B0036804469869EF
:101CE000C00605D4002000219A69D70560D465E0BC
:101CF0001020D8619869800653D48846481C46D085
:101D000016464FF02009002506E000BF002798691D
:101D100000F02000384335D1FEF71EFC2368B8F1EF
:101D2000000F02D0801B4045F0D9596894F842005A
:101D30009A6912040CD511F4804109D1202807D0EA
:101D4000586840F480405860FEF706FC2368064659
:101D50009869002702E000BF236898698006D6D4FE
:101D6000FEF7FAFB801B1A28F6D3606C012740F0BF
:101D70002000606484F8419084F8425084F8405018
:101D8000EAE700BF7FB90CE09869800609D498693A
:101D9000800606D4986980065CBF98695FEA806017
:101DA000F2D52020D861012104209A69D70505D5F4
:101DB0004FF4807140F00100D9610121570507D42B
:101DC00092050BD479B9002001B0BDE8F08300BFC3
:101DD00008304FF480619205D96104D540F00200CB
:101DE0004FF40071D9619969890744BF0021996254
:101DF0009969C90703D1996941F00101996159684D
:101E00004EF60002CFF6006211405960616C084343
:101E10006064202084F84100002084F8420084F8A7
:101E20004000012001B0BDE8F08300002DE9F04141
:101E300006460068144682690D461140491BB1FAF6
:101E400081F14909A14248D11F461BB3791C33D106
:101E500081692940491BB1FA81F14909A1423CD16C
:101E600081692940491BB1FA81F14909A14234D164
:101E700081692940491BB1FA81F14909A1422CD15C
:101E800081692940491BB1FA81F14909A142DFD09A
:101E900023E000BFFEF760FB706C40F02000706430
:101EA000202086F84100002086F8420086F8400095
:101EB0000120BDE8F08100BFDDF81880FEF74CFB83
:101EC000A0EB0800B842E7D8306880692840401B82
:101ED000B0FA80F04009A042F0D00020BDE8F081C7
:101EE00070B515460446A9B10E4600BF206880694A
:101EF00040071DD4204631462A46FFF7EBFEA8B91D
:101F000020688169890627D4FEF726FB401BB04272
:101F1000ECD915E020688069400744BF002070BDFF
:101F2000204600212A46FFF7D5FE18B1012070BDDA
:101F3000002070BD2068816989060DD4FEF70CFB76
:101F4000606C40F020006064202084F84100002094
:101F500084F84000012070BD8169490704D5218DB6
:101F600000291CBF002070BD82694EF60006D20613
:101F70004FF0000242BF1022C2610422626420229C
:101F8000C2614368CFF6006600213340436084F8A5
:101F9000412084F84210002084F84000012070BDE8
:101FA00070B5044600688069800710D415460E4657
:101FB00011B3701C17D100BF20464FF0FF312A46E5
:101FC000FFF788FEF0B9206880698007F4D500200B
:101FD00070BD00BFFEF7C0FA401BB04216D82068A3
:101FE00080698007F3D4204631462A46FFF772FE07
:101FF0000028EFD006E000BF204600212A46FFF768
:1020000069FE08B1012070BDFEF7A6FA606C40F0D1
:1020100020006064202084F84100002084F8420001
:1020200084F84000012070BDFEE70000FEE70000DC
:1020300070470000F0B581B041F20007C4F202071A
:10204000FA680D469107044614D0F868216800F03C
:10205000030088424FF0010040F0A180002900F009
:102060009E80F8686168C0F302100130884232D166
:1020700034E000BF206803280CD0022816D00128C5
:1020800029D13968012211F0020182EA510116D1E9
:1020900020E000BF3968890310D43968012211F4A7
:1020A000802182EA91410AD114E000BF39680122FF
:1020B00011F4806182EA912101D10BE00021FA68DC
:1020C00063686FF00F0622F0730206EB03131A43E6
:1020D0001043F86011B1012001B0F0BD386820F064
:1020E00080603860FEF738FA064600BF38680001A5
:1020F00006D5FEF731FA801B0228F7D946E000BF6B
:10210000012D0FD005BB386948F2FF01CFF6FD71F4
:102110000840D4E902120023CFF6FE7303EA4232EC
:1021200020E000BF48F2FF013869CFF6FF112269B5
:10213000002301F1B461CFF6E0730840A16803EA1F
:102140000252A2F500120DE0386948F2FF016269FF
:10215000CFF6FF114FF07E430840A16803EA026208
:1021600002F17E4240EA012010433861386840F0B5
:1021700080603860FEF7F0F9054600BF386800015E
:1021800008D4FEF7E9F9401B0228F7D9032001B073
:10219000F0BD00BFA069396908433861002001B073
:1021A000F0BD0000F0B581B041F20007C4F20207B3
:1021B000FA680D469107044614D0F868216800F0CB
:1021C000030088424FF0010040F08D80002900F0AC
:1021D0008A80F8686168C0F302100130884219D122
:1021E00036E000BF2068032818D002280AD0012852
:1021F00010D13968012211F0020182EA510108D0A0
:1022000019E000BF3968012211F4806182EA91214E
:1022100011D1E9B1012001B0F0BD00BF39688903D7
:1022200008D43968012211F4802182EA9141F0D06A
:1022300001E000BF0021FA6863686FF00F0622F02A
:10224000730206EB03131A431043F8600029E1D12F
:10225000386820F080503860FEF77EF9064600BFEF
:102260003868800006D5FEF777F9801B0228F7D979
:1022700030E000BF7969A0684FEA002065B148F2FC
:10228000FF02CFF6FF12114022694FF07E4303EAAE
:10229000026202F17E420AE048F2FF02CFF6FD72CE
:1022A0001140E2680023CFF6FE7303EA423208438E
:1022B00010437861386840F080503860FEF74CF980
:1022C000054600BF3868800008D4FEF745F9401B7A
:1022D0000228F7D9032001B0F0BD00BF6069796919
:1022E00008437861002001B0F0BD00007047000095
:1022F000FEF7FEBC4EF68850CEF20000016841F4B5
:102300007001016070470000FEE7000098B0FEF722
:10231000FDFC07A804302421FDF7A6FF4FF4007050
:10232000FEF788FD20B1EFF3108072B6FEE700BF24
:102330004FF480710A9110210B91012113910A2110
:102340000220149107210790CDE91100CDE9151065
:10235000179007A8FFF7ECF820B1EFF3108072B6E2
:10236000FEE700BF0F20029003200390002502A883
:102370000421CDE904550695FEF79CFF20B1EFF34B
:10238000108072B6FEE700BF41F24C000B95C4F21C
:102390000200016840F2004641F0800101600168DE
:1023A000C4F6000601F08001029102990168002242
:1023B00041F0010101600168202401F00101029156
:1023C0000299016841F0020101600068202100F0DB
:1023D0000200029002983046FEF7B8F8012707A9DC
:1023E00030460794CDE908750A95FDF7BFFF40F226
:1023F0007004C2F2000445F20041C4F2000120461C
:1024000040F8041F49F6EC41C1F29001021DA2C23E
:10241000C0E90455C0E906550562FEF7EDF828B19C
:10242000EFF3108072B600BFFEE700BF251D2846FF
:102430000021FEF797F828B1EFF3108072B600BFC5
:10244000FEE700BF28460021FEF7B2F820B1EFF307
:10245000108072B6FEE700BF2846D02102220A2370
:102460000A27FEF71BF918B930462021FEF766F857
:102470004FF4FE41204620F8041BD02122460223BF
:102480000097FEF7E9FA661C2846D0212246012370
:102490000097FEF7E1FA2846D02132460123009743
:1024A000FEF7D6F91E20FDF74DFFEDE7F1EE100A1D
:1024B0004FF6FF71C0F2C03120EA010040F04070D9
:1024C000E1EE100A70470000000000000000010269
:1024D0000304060708090000A0860100400D030060
:1024E000801A060000350C0040420F0080841E0058
:1024F00000093D0000127A000024F40000366E014D
:102500000048E801006CDC022825000800000020DB
:1025100010000000C4010008382500081000002049
:10252000C0060000E00100080100000010000000EB
:0825300000093D00000000005D
:040000050800018965
:00000001FF
