:020000040800F2
:100000001007002029020008451B00083D1B0008BE
:10001000411B000831030008B51C00080000000067
:100020000000000000000000000000004D1B000860
:100030003503000800000000491B0008511B0008A0
:10004000430200084302000843020008430200087C
:10005000430200084302000843020008430200086C
:10006000430200084302000843020008430200085C
:10007000430200084302000843020008430200084C
:10008000430200084302000843020008430200083C
:10009000430200084302000843020008430200082C
:1000A000430200084302000843020008430200081C
:1000B000691B0008430200084302000843020008CD
:1000C00043020008430200084302000843020008FC
:1000D00043020008430200084302000843020008EC
:1000E00043020008430200084302000843020008DC
:1000F00043020008430200084302000843020008CC
:1001000043020008430200084302000843020008BB
:1001100043020008430200084302000843020008AB
:10012000430200084302000843020008430200089B
:10013000430200084302000843020008430200088B
:10014000430200084302000843020008430200087B
:10015000430200084302000843020008430200086B
:10016000430200084302000843020008430200085B
:100170004302000843020008430200080000000098
:10018000430200084302000800F002F800F03CF8C7
:100190000AA090E8000C82448344AAF10107DA45E2
:1001A00001D100F031F8AFF2090EBAE80F0013F0F8
:1001B000010F18BFFB1A43F001031847981D0000F8
:1001C000B81D0000103A24BF78C878C1FAD8520789
:1001D00024BF30C830C144BF04680C6070470000C1
:1001E0000023002400250026103A28BF78C1FBD840
:1001F000520728BF30C148BF0B6070471FB501F0E0
:100200006BFE1FBD10B510BD00F058F81146FFF78A
:10021000F5FF01F051FD00F076F803B4FFF7F2FFAF
:1002200003BC00F07DF800000948804709480047FA
:10023000FEE7FEE7FEE7FEE7FEE7FEE7FEE7FEE796
:10024000FEE7FEE704480549054A064B70470000F3
:10025000551B00088901000810010020100700202C
:1002600010030020100300204FF0000200B51346D9
:1002700094469646203922BFA0E80C50A0E80C50C6
:10028000B1F12001BFF4F7AF090728BFA0E80C5077
:1002900048BF0CC05DF804EB890028BF40F8042B70
:1002A00008BF704748BF20F8022B11F0804F18BFDD
:1002B00000F8012B7047704770477047754600F093
:1002C0002BF8AE4605006946534620F007008546E8
:1002D00018B020B5FFF7B6FFBDE820404FF000068C
:1002E0004FF000074FF000084FF0000BAC46ACE8B1
:1002F000C009ACE8C009ACE8C009ACE8C00921F00D
:1003000007018D46704710B50446AFF300802046C4
:10031000BDE81040FFF781BF004870471000002083
:1003200001491820ABBEFEE726000200704700001E
:10033000FEE70000704700002DE9F04F82B00D6825
:10034000002D00F0DB8041F6000400F13847C4F6D0
:10035000000407224FEAB726A04208BF0622062E55
:1003600038BF4FEAB7224FF0000B0027002600925B
:100370000AE000BF0D68013635FA06F207F1020700
:100380000BF1040B00F0BA80012202FA06FE15EA16
:100390000E08EFD0D1F8049009F0030AAAF1010584
:1003A000022D15D20323826803FA07F5CB68AA430E
:1003B000BB401A4382604268C9F3001322EA0E026E
:1003C000B3404FEA460CEC431A43426017E000BFCB
:1003D000BAF1030F0ED1C56AC9F3C00225EA0E05B2
:1003E000B2402A434FF0030AC2620AFA07F2D4432A
:1003F000BC4625E0032202FA07F5EC43BC46C2687E
:100400008B68224003FA0CF31A43BAF1020FC26060
:1004100016D16FF0030202EA560202440BF01C05EB
:100420000F23D2F820E003FA05F90B692EEA090E32
:10043000AB4043EA0E031362D1F8049009F0030ABB
:1004400002680AFA0CF322401A4319F4403F026092
:1004500090D041F26003C4F202031A6840F2004EE9
:1004600042F001021A601A68C4F2010E02F00102A1
:100470000192019A26F003024FF608497244CFF622
:10048000FF7952F809C00BF00C050F23009CAB401C
:100490002CEA030304FA05F52B4342F80930DEF891
:1004A00008204B6842EA080540F20C4CDC0258BFB9
:1004B00022EA0805CEF80850C4F2010CDCF800204E
:1004C0009C0242EA080558BF22EA0805CCF8005011
:1004D000DEF804209C0342EA080558BF22EA08051A
:1004E000CEF80450DEF80020DB0342EA080558BFCE
:1004F00022EA0805CEF800503CE700BF02B000F049
:1005000000B830BCBDE8C08F426902EA01039143E4
:1005100041EA0341816170471823002A08BF28235C
:10052000C150704740F20C10C2F2000000687047E2
:1005300040F2000040F20C11C2F20000C2F20001D1
:1005400000780A68104408607047000080B542F2E5
:100550000000C4F20200016841F4807101600320D0
:1005600000F08CF8002000F009F800281CBF0120E2
:1005700080BD00F029F8002080BD000070B540F279
:100580000006C2F200063178E1B1044640F20800EC
:10059000C2F200004FF47A720068B2FBF1F1B0FBD6
:1005A000F1F000F0C1FD0F2C4FF0010508D838B96B
:1005B0004FF0FF3021460022002500F033F8746030
:1005C000284670BD012070BD82B041F25800C4F2CF
:1005D0000200816841F001018160816801F0010140
:1005E00001910199016841F080510160006800F0BB
:1005F00080500090009802B070470000002848BF6B
:100600007047C1B200F01F00012202FA00F04EF262
:100610000012CEF2000242EAD10121F0030108608B
:100620007047000010B54EF60C5CCEF2000CDCF802
:100630000030C3F3022E8EF00704042C28BF0424DC
:10064000BEF103034FF0FF3E0EFA04F438BF00235F
:10065000A14399400EFA03F39A43114300F00F02AD
:1006600000F160430901043A03F564436244002841
:1006700048BF02F10C03197010BD00004EF60C517A
:10068000CEF200010A684FF6FF031A4060F30A2217
:1006900042F0806040F0FD700860704747F2000152
:1006A000C4F200010A68B0F5007F02F4C06031D1E5
:1006B000B0F5007F2CD00868012262F34A20086060
:1006C00040F20800C2F200000068322250434DF6AA
:1006D0008362C4F21B32A0FB0202900C4A695205ED
:1006E00011D5421C0FD04A6952050CD558B14A6940
:1006F000520508D5012806D04A69520503D50228BB
:10070000A0F10400EAD14869400544BF03207047C6
:1007100000207047B0F5806FFAD00868022262F3BB
:100720004A2008600020704747F20000C4F2000031
:10073000006800F4C06070472DE9F04381B00028E4
:100740006BD042F20008C4F202080446D8F8000058
:100750000D4600F0070088420CD2D8F8000020F0C7
:1007600007002843C8F80000D8F8000000F0070090
:10077000A84252D1206841F2080910F00201C4F2E7
:1007800002090DD0A268D9F8003003F0F0039A42B4
:1007900006D9D9F8003023F0F0031A43C9F8002035
:1007A000C2072DD169B1A168D9F8002002F0F0028A
:1007B000914206D2D9F8002022F0F0021143C9F884
:1007C0000010D8F8001001F00701A9420CD9D8F8A0
:1007D000001021F007012943C8F80010D8F80010D4
:1007E00001F00701A94218D141071BD4000723D407
:1007F000D9F80000D9F8041010F00C002CD131E029
:10080000606800285ED0022800F07E80032840F057
:10081000818059F8081C890158D4012001B0BDE835
:10082000F08300BFD9F80010E26821F4E0611143C1
:10083000C9F800100007DBD5D9F80000216920F4C1
:10084000605040EAC100C9F80000D9F80000D9F8AA
:10085000041010F00C0005D00C2829D101F0030180
:10086000012925D159F8081C090703D4D9F88C109F
:10087000090A02E059F8081C090941F6047201F05E
:100880000F01C0F6000252F8211000280A4618BFD6
:1008900000220C2871D1D9F8040000F003000228CE
:1008A00046D0032804BF41F20021C0F27A0143E0A0
:1008B000042857D008285BD141F20022C0F27A0206
:1008C0005BE000BF59F8081C8907A6D5D9F80010CD
:1008D00021F003010843C9F80000FFF723FE064694
:1008E00041F28837D9F80000616800F00C00B0EBE5
:1008F000810F15D0FFF716FE801BB842F2D90320F6
:1009000001B0BDE8F08300BF59F8081C89037FF5EA
:1009100084AFDBE759F8081C49057FF57EAFD5E7C2
:10092000206800F0020100297FF43DAF49E700BFD5
:1009300042F20041C0F2F401D9F80400D9F80420D1
:10094000C0F30210C2F306225143D9F8042001304B
:10095000B1FBF0F0C2F34161022202EB4101B0FBB6
:10096000F1F20AE042F20042C0F2F40205E000BFF8
:10097000002200210C283FF48EAFD9F8000041F688
:10098000F261C0F30310C0F60001085C00F01F0024
:1009900022FA00F140F20400C2F2000040F2080224
:1009A0000068C2F20002116001B0BDE8F043FFF739
:1009B000E5BD00002DE9F04383B0002800F0068378
:1009C00041F200060446C4F20206B068F1682278DB
:1009D00000F00C09D00601F003081DD42078C007F0
:1009E00000F08180B9F1080F76D0B9F10C0F08BF83
:1009F000B8F1030F70D06068B0F5803F07D0B0F554
:100A0000A02F40F01982306840F4802030603068B8
:100A100040F4803030601AE2B9F1000F1ED0B9F115
:100A20000C0F08BFB8F1010F18D0A1693068002978
:100A300000F0AE8140F001003060FFF773FD054625
:100A40003068800700F1B681FFF76CFD401B02287B
:100A50004FF00300F4D903B0BDE8F083306880079D
:100A600003D5A069002800F0B182256A306800072C
:100A700000F11E81D6F89400000900F0F0008542D4
:100A800000F21C813068B9F1000F40F008003060BE
:100A9000306820F0F00040EA050030607068E169DD
:100AA00020F47F4040EA0120706040F07D82B06D0C
:100AB000C00000F11982B06D40F08050B065B06D9B
:100AC00000F0805002900298FFF72EFEB16D21F0E9
:100AD0008051B1650AE200BF3068800303D56068C9
:100AE000002800F07382207880072DD5B9F1040F1B
:100AF0001CD0B9F10C0F08BFB8F1020F16D0E16895
:100B00003068002900F0B28140F480703060FFF757
:100B100009FD0546306840050FD4FFF703FD401B73
:100B200002284FF00300F5D995E700BF3068400573
:100B300003D5E068002800F049827068216920F040
:100B4000F85040EA01607060207800075ED4207899
:100B5000400771D4A06A002800F0E282022840F029
:100B6000DF80F068E16A00F003028A4240F0F08022
:100B7000226B6FF00F0300F0700103EB0212914241
:100B800040F0E680616B00F4FE42B2EB012F40F0D2
:100B9000DF80A16B00F40032073918BF01218A42BF
:100BA00040F0D680E26B0023CFF6E07303EA0252F6
:100BB00000F4C001A2F50012914240F0C980216CFE
:100BC0004FF07E4202EA016100F0C06001F17E4117
:100BD000884240F0BD803068800100F1A182306819
:100BE00040F080703060F06840F08070F060FFF797
:100BF00099FC04463068800100F19282FFF792FC74
:100C0000001B02284FF00300F4D924E76169D6F8ED
:100C1000940000296ED040F00100C6F89400FFF760
:100C200081FC0546D6F89400800790D4FFF77AFC43
:100C3000401B0228F6D9FBE0B06D10F0805808D1B7
:100C4000B06D40F08050B065B06D00F08050009005
:100C5000009847F20007C4F200073868C00513D4B3
:100C6000386840F480703860FFF75CFC054600BFD0
:100C70003868C00508D4FFF755FC401B02284FF028
:100C80000300F5D9E7E600BFA068012808D00528D1
:100C900040F0B080D6F8900040F00400C6F8900014
:100CA000D6F8900040F00100C6F89000B1E000BF17
:100CB000306800F0F00085427FF6E4AEB06DC00011
:100CC00000F18A80B06D40F08050B065B06D00F0EA
:100CD000805001900198FFF727FDB16D21F0805100
:100CE000B165B0F5007F00F07D80802D40F2D080AE
:100CF0000320D8E020F00100C6F89400FFF712FCB2
:100D0000054600BFD6F8940080077FF520AFFFF7B7
:100D100009FC401B02284FF00300F3D99BE600BFFB
:100D2000B9F10C0F00F05281306820F08070306013
:100D3000FFF7F8FB044600BF3068800140F1E48013
:100D4000FFF7F0FB001B02284FF00300F4D982E606
:100D5000B9F10C0F00F03A81306840015CBF306897
:100D60005FEAC00000F13281306820F080703060AE
:100D7000FFF7D8FB05463068800140F18F81FFF70F
:100D8000D1FB401B02284FF00300F4D963E600BFFB
:100D900020F001003060FFF7C5FB05463068800792
:100DA0007FF51CAEFFF7BEFB401B02284FF003008F
:100DB000F4D950E6306840F0080030603068D4E97B
:100DC000072120F0F00008433060706820F47F4075
:100DD00040EA0220706001E6FFF7A6FCB0F5007F54
:100DE0007FF483AF812D5DD30120A02D88BF022029
:100DF00059E000BFD6F89010002821F00101C6F894
:100E00009010D6F8901021F00401C6F8901000F070
:100E10008780FFF787FB054641F28837D6F89000B8
:100E2000800700F18F80FFF77DFB401BB842F5D9AA
:100E3000032003B0BDE8F0833168002821F480313D
:100E40003160316821F48021316000F08580FFF746
:100E500069FB0546306880033FF545AEFFF762FB4E
:100E6000401B64284FF00300F4D9F4E520F48070AF
:100E70003060FFF757FB0546306840057FF564AEEC
:100E8000FFF750FB401B02284FF00300F4D9E2E5C6
:100E9000A5F17000B0FA80F04009802D08BF022053
:100EA00001E000BF002042F20001C4F202010A6822
:100EB00022F0070202440A60096801F0070181423A
:100EC00040F08480306840F0080030603068D4E939
:100ED000072120F0F00008433060706820F47F4064
:100EE00040EA022070605FE0FFF71EFCB0F5007F73
:100EF00006D1812D40D30120A02D88BF022045E0DE
:100F0000802D3BD9032041E0F0684FF6FC71CFF60D
:100F1000EE610840F060002003B0BDE8F08300BF40
:100F2000FFF700FB054641F28837D6F890008007AE
:100F300008D5FFF7F7FA401BB8424FF00300F4D989
:100F400089E500BFB8F1000F7FF404AEB06D20F06A
:100F50008050B065FEE500BFFFF7E4FA0546306853
:100F600080037FF5C0ADFFF7DDFA401B64284FF02A
:100F70000300F4D96FE500BF002007E0A5F1700081
:100F8000B0FA80F04009802D08BF022042F2000133
:100F9000C4F202010A6822F0070202440A600968EA
:100FA00001F00701814211D1B068F16810F00C0026
:100FB00005D00C282AD101F00301012926D131687E
:100FC000090707D4D6F89410090A05E0012003B0F8
:100FD000BDE8F0833168090941F6047201F00F01A0
:100FE000C0F6000252F8211000280A4618BF00225D
:100FF0000C2837D1F06800F00300022810D0032835
:1010000004BF41F20021C0F27A010DE004281FD094
:10101000082823D141F20022C0F27A0222E000BF68
:1010200042F20041C0F2F401F068F268C0F302102D
:10103000C2F306225143F2680130B1FBF0F0C2F373
:101040004161022202EB4101B0FBF1F20AE000BF74
:1010500042F20042C0F2F40204E000BF002200218C
:101060000C28C7D0B06841F6F261C0F30310C0F697
:101070000001085C00F01F0022FA00F140F20400B9
:10108000C2F2000040F208020068C2F200021160E1
:10109000FFF774FA00287FF4DEAC9FE4F06848F2B2
:1010A0008C01CFF69D1104F12C0700EA010C8ECFC4
:1010B000D4E90F546FF00F0040F2000E00EB021065
:1010C000CFF6E07E41EA0C010EEA05554FF07E4274
:1010D0000843A5F5001502EA046240EA032002F184
:1010E0007E420EF5F014284304EA47371043384394
:1010F000F060306840F080703060F06840F08070E0
:10110000F060FFF70FFA04463068800108D4FFF75B
:1011100009FA001B02284FF00300F5D99BE400BF39
:10112000002003B0BDE8F083411E0020B0EB116F3A
:101130001CBF012070474EF21002CEF20002516037
:101140004EF62351CEF20001F0230B700721906080
:101150001160704770470000704700007047000042
:1011600010B590F83C20012A4FF0020255D080F8CB
:101170003D20026843F2004C5368D2F808E0C4F204
:10118000010C624505D042F60044C4F20104A242BB
:1011900003D14C6823F4700323430C6823F07003DD
:1011A000234340F6FF34C4F20004A242536011DD31
:1011B00043F2FF33C4F201039A421BDC40F60043C2
:1011C000C4F200039A421DD042F60043C4F2010368
:1011D0000DE000BFB2F1804F14D040F20043C4F2E2
:1011E00000039A420ED040F60003C4F200039A4274
:1011F00008D00CE044F20003C4F201039A4201D08B
:10120000624504D189682EF0800319439160012161
:10121000002280F83D1080F83C20104610BD0000F0
:10122000002804BF0120704710B5044690F83D0027
:1012300028B9002084F83C00204600F023F8022062
:1012400084F83D002068211D00F094FC012084F802
:10125000480084F83E0084F83F0084F8400084F899
:10126000410084F8420084F8430084F8440084F884
:10127000450084F8460084F8470084F83D000020CB
:1012800010BD000080B586B0006841F20001C4F2D4
:101290000001884232D0B0F1804F3CD141F2580079
:1012A000C4F20200016841F001010160016801F02F
:1012B00001010191019950F80C1C41F0010140F825
:1012C0000C1C50F80C0C022100F001000190019858
:1012D0000120029100210190CDE90311059001A99F
:1012E0004FF09040FFF728F81C2000210022FFF764
:1012F00099F91C20FFF782F906B080BD41F2580031
:10130000C4F20200016841F010010160006800F0C1
:1013100010000190019806B080BD000090F83D10CB
:1013200001291CBF01207047022180F83D1001688F
:1013300040F6FF30C4F2000081420FDD43F2FF307F
:10134000C4F20100814219DC40F60040C4F2000002
:1013500081421FD042F6004018E000BFB1F1804F3B
:1013600018D040F20040C4F20000814212D040F692
:101370000000C4F2000081420CD018E044F20000EA
:10138000C4F20100814205D043F20040C4F20100E2
:1013900081420CD188680722C0F201020240062A6D
:1013A0004FF0000008D0B2F5803F08BF70470868D2
:1013B00040F00100086000207047000080B590F800
:1013C0003C20012A4FF0020200F0C28080F83D204C
:1013D000D0F800C08822DCF80830CFF6FE721A4040
:1013E000CCF808200B684F2B28DC1F2B44DD202B6A
:1013F00045D0302B43D0402B40F0AC80D1F804E0F6
:10140000C968DCF82030DCF8202022F00102CCF89A
:101410002020DCF8182022F0F00242EA011123F02B
:101420000A0242EA0E02CCF81810CCF82020DCF8B0
:10143000081041F0470121F0300180E06F2B27DDDB
:10144000B3F5005F48D0B3F5805F7AD0702B40F0E1
:101450008180D1E901E3C968DCF8082043EA0E0382
:1014600022F47F4243EA01211143CCF80810DCF852
:10147000081041F0770162E00BB1102B6AD1DCF863
:10148000081021F07001194341F0070157E000BF37
:10149000502B35D0602B5DD1D1F804E0C968DCF861
:1014A000203023F01003CCF82030DCF81830DCF8C2
:1014B000202023F4704322F0A00243EA013142EAE3
:1014C0000E12CCF81810CCF82020DCF8081041F0EF
:1014D000670121F0100132E0D1E901E3C968DCF8CD
:1014E000082043EA0E0322F47F4243EA012111431C
:1014F000CCF80810DCF8081041F480411FE000BF70
:10150000D1F804E0C968DCF82030DCF8202022F0B3
:101510000102CCF82020DCF8182022F0F00242EA88
:10152000011123F00A0242EA0E02CCF81810CCF89E
:101530002020DCF8081041F0570121F02001CCF800
:1015400008100022012180F83D10002180F83C1095
:10155000104680BD0122F5E7B0B50068B0F1804FBC
:1015600000D0B0BD40F2C004C2F20004206840F2D6
:101570007005C2F20005406A2988401AB0F5FA6F7A
:1015800098BFB0BD40F20040C4F600002021FEF735
:10159000BBFF2068406A2880B0BD0000F0B590F81D
:1015A0003C30012B04BF0220F0BD4FEAB202032AF7
:1015B00028D8DFE802F0032D4B6B00BF0368D1E9A8
:1015C00000C5D1F80CE01A6A40F6FF3722F001029C
:1015D0001A621A4652F8186F1C6AC4F20007BB421E
:1015E0007ADD43F2FF37C4F20107BB4200F3828089
:1015F00040F60047C4F20007BB4200F0878042F685
:1016000000477FE00121002280F83C200846F0BD21
:101610000368D1E900E6D1E902C11A6A360222F074
:1016200010021A621A4652F8184F4FF2FF071D6A4D
:10163000BE4324F4734461F30F3646EA040125F0F7
:10164000A0040EF00A0744EA07173CE00768D1E956
:1016500000C5D1E902313A6A61F3071522F48072BC
:101660003A623A4652F81C4F3E6A24F0F30445EAC7
:10167000040126F420660CF00A0546EA05261160EE
:101680003E62116821F00C01116050E00368D1E95D
:1016900000E6D1E902C11A6A360222F480521A62C7
:1016A0001A4652F81C4F4FF2FF071D6ABE4324F43E
:1016B000734461F30F3646EA040125F420440EF02A
:1016C0000A0744EA073711601F6211684FEA0C23CA
:1016D00021F4406111602AE0B3F1804F16D040F24E
:1016E0000047C4F20007BB4210D040F60007C4F226
:1016F000000709E044F20007C4F20107BB4205D02D
:1017000043F20047C4F20107BB4219D126F0030699
:10171000354324F00A070CF00A066EF30715374428
:101720009D611F629F6927F00C079F618B6811689C
:10173000194311600021002280F83C200846F0BDCA
:1017400046F00105E5E70000002804BF01207047CE
:1017500010B5044690F83D0028B9002084F83C00FC
:10176000204600F023F8022084F83D002068211D67
:1017700000F000FA012084F8480084F83E0084F864
:101780003F0084F8400084F8410084F8420084F867
:10179000430084F8440084F8450084F8460084F847
:1017A000470084F83D00002010BD00007047000095
:1017B00080B589B10A1F4FEAB20EBEF1030F17D8E8
:1017C000DFE80EF0021E263400F13F0292F800C05E
:1017D000082923D130E000BF90F83E2090F8443033
:1017E000012A4FF0010208BF012B3FD0104680BDF7
:1017F00000F1430292F800C008290FD11CE000BF9D
:1018000000F1400292F800C0082907D114E000BF9F
:1018100000F1410292F800C008290DD0042914BF3C
:1018200000F1470200F1450208E000BF00F142026A
:1018300092F800C00829F1D100F146021378BCF1FA
:10184000010F4FF0010208BF012BCFD1BEF1030FF2
:1018500018D8DFE80EF0031F273B00BF022280F8F4
:101860003F200222082923D136E000BF022280F85F
:101870003E2080F844204FEAB103032B4FF00102D1
:10188000B4D832E0022280F84320022208290FD186
:1018900022E000BF022280F840200222082907D15E
:1018A0001AE000BF022280F841200222082913D04A
:1018B000042914BF80F8472080F845204FEAB1037F
:1018C000032B4FF001023FF691AF0EE0022280F8A9
:1018D000422002220829EBD180F846204FEAB103CA
:1018E000032B4FF001023FF681AF41F6347C0068D4
:1018F000C0F6000C5CF823C0C36801F01F0143EA86
:101900000C03C360036A02FA01F123EA01020262D6
:10191000026A114340F6FF32C4F2000290420162B3
:101920000EDD43F2FF31C4F20101884216DC40F6BD
:101930000041C4F2000188421CD042F6004115E08B
:10194000B0F1804F16D040F20041C4F2000188424D
:1019500010D040F60001C4F2000109E044F2000199
:10196000C4F20101884205D043F20041C4F20101F2
:1019700088420DD181680722C0F201021140062978
:101980004FF000023FF432AFB1F5803F3FF42EAF8D
:101990000168002241F001010160104680BD000095
:1019A00010B5016804460869800744BFC8685FEA4B
:1019B00080703FD40869400744BFC8685FEA407040
:1019C00044D40869000744BFC8685FEA00704BD47C
:1019D0000869C00644BFC8685FEAC06050D408699F
:1019E000C0071CBFC8685FEAC07057D1086900060D
:1019F00044BFC8685FEA006058D40869C00544BFA6
:101A0000C8685FEA006059D40869400644BFC868E6
:101A10005FEA40605AD40869800646BFC8685FEA3A
:101A2000806010BD6FF0200220460A61BDE81040C2
:101A3000FFF794BB6FF002000861012020778869EE
:101A400080074BD02046FFF787FD4DE06FF0040084
:101A5000086102202077886910F4407F48D0204632
:101A6000FFF77AFD4AE000BF6FF00800086104202C
:101A70002077C869800745D02046FFF76DFD47E015
:101A80006FF01000086108202077C86910F4407FCB
:101A900042D02046FFF760FD44E000BF6FF0010038
:101AA0000861204600F046F821689FE76FF080004B
:101AB00008612046FFF750FB21689EE76FF48070B5
:101AC00008612046FFF746FB21689DE76FF0400064
:101AD0000861204600F030F821689CE7204600F0BD
:101AE00025F8204600F024F821680020207761E7DF
:101AF000204600F01BF8204600F01AF8216800206C
:101B000020775EE7204600F011F8204600F010F83C
:101B10002168002020775BE7204600F007F8204688
:101B200000F006F821680020207758E77047000091
:101B3000704700007047000070470000FEE700009B
:101B4000FEE70000FEE7000070470000704700005D
:101B5000FEF7EEBC4EF68850CEF20000016841F46C
:101B6000700101607047000040F27400C2F2000092
:101B7000FFF716BF80B540F6FF330268C4F20003DA
:101B800098422DDCB0F1804F3CD040F20043C4F2CB
:101B90000003984236D040F60003C4F20003984296
:101BA00030D042F6FF33C4F20103984234DD43F6ED
:101BB000FF73C4F2010398423EDD44F20003C4F215
:101BC0000103984252D044F60003C4F20103984244
:101BD0004CD044F20043C4F20103984246D049E09D
:101BE00040F60043C4F2000398420BD043F2004396
:101BF000C4F20103984205D042F60043C4F2010347
:101C00009842CED14B6822F070021A4342F6FF335D
:101C1000C4F201039842CADC40F2FF73C4F200032D
:101C2000984217DCB0F1804F20D040F20043C4F25C
:101C3000000398421AD01DE042F60043C4F20103AB
:101C4000984213D043F20043C4F2010398420DD0EE
:101C500010E000BF40F60003C4F20003984205D034
:101C600040F60043C4F20003984203D1CB6822F44B
:101C700040721A434B6922F0800E8A6843EA0E03D1
:101C8000D1F800C00360C262A0F18042A2F5963292
:101C90004FEAB222072AC0F828C007D8012303FA66
:101CA00002F212F0E50F1CBF0969016301214161D5
:101CB00080BD0000FEE700009AB0FEF747FC06A8D2
:101CC00004302421FEF7D0FA4FF40070FEF7E6FC52
:101CD00020B1EFF3108072B6FEE700BF4FF48071C1
:101CE000099110210A910B210220139107210690DE
:101CF000CDE910001290CDE91410169006A8FEF759
:101D000059FE28B1EFF3108072B600BFFEE700BFA6
:101D10000F20019003200290002501A80221CDE9A7
:101D200003550595FEF708FD20B1EFF3108072B65C
:101D3000FEE700BF41F24C000A95C4F202000168C0
:101D400040F2004441F0800101600168C4F60004E3
:101D500001F08001019101990168002241F0010127
:101D600001600168202601F00101019101990168DB
:101D700041F0020101600068202100F002000190A2
:101D800001982046FEF7C8FB0120CDE9070506A90A
:101D9000204606960995FEF7CFFA40F27006C2F289
:101DA00000064FF08041304640F8041F4FF0FF31ED
:101DB0000995CDE907551895C0E90155C0E9031506
:101DC0008561FFF72DFA28B1EFF3108072B600BFDE
:101DD000FEE700BF4FF48050341D069006A9204650
:101DE000FFF7ECFA20B1EFF3108072B6FEE700BF08
:101DF0002046FFF7A9FC28B1EFF3108072B600BFB0
:101E0000FEE700BF002517A9204617951995FFF793
:101E1000A7F928B1EFF3108072B600BFFEE700BF4C
:101E200001200227CDE9020501A9204600220197E1
:101E30000495FFF7B3FB28B1EFF3108072B600BF33
:101E4000FEE700BF002501A920460422CDE9015785
:101E5000FFF7A4FB20B1EFF3108072B6FEE700BFDE
:101E600040F2C00041F20001C2F20000C4F20001E1
:101E70004FF6FF73079541F22F1280E82600C360EA
:101E80008561FFF7CDF928B1EFF3108072B600BF7E
:101E9000FEE700BF40F2C0050020C2F20005069038
:101EA000089006A92846FFF75BF918B1EFF31080F8
:101EB00072B6FEE72046FFF731FA20460021FFF711
:101EC00077FC20460421FFF773FC2846FFF726FA2B
:101ED0002868406A3080FEE7F1EE100A4FF6FF7185
:101EE000C0F2C03120EA010040F04070E1EE100A7B
:101EF0007047000000000000000001020304060714
:101F000008090000A0860100400D0300801A0600A9
:101F100000350C0040420F0080841E0000093D0087
:101F200000127A000024F40000366E010048E80137
:101F3000006CDC0202000000040000000800000049
:101F400010000000FDFFFFFFFBFFFFFFF7FFFFFF9B
:101F5000EFFFFFFF781F00080000002010000000C6
:101F6000C4010008881F00081000002000070000BE
:101F7000E001000800000000010000001000000067
:081F800000093D000000000013
:040000050800018965
:00000001FF
