:020000040800F2
:10000000F806002029020008991F0008911F000827
:10001000951F000829040008752200080000000050
:10002000000000000000000000000000592200084D
:100030002D040008000000009D1F00085D2200083C
:10004000430200084302000843020008430200087C
:10005000430200084302000843020008430200086C
:10006000430200084302000843020008430200085C
:10007000430200084302000843020008430200084C
:10008000430200084302000843020008430200083C
:10009000430200084302000843020008430200082C
:1000A000430200084302000843020008430200081C
:1000B000430200084302000843020008430200080C
:1000C00043020008430200084302000843020008FC
:1000D00043020008430200084302000843020008EC
:1000E00043020008430200084302000843020008DC
:1000F00043020008430200084302000843020008CC
:1001000043020008430200084302000843020008BB
:1001100043020008430200084302000843020008AB
:10012000430200084302000843020008430200089B
:10013000430200084302000843020008430200088B
:10014000430200084302000843020008430200087B
:10015000430200084302000843020008430200086B
:10016000430200084302000843020008430200085B
:100170004302000843020008430200080000000098
:10018000430200084302000800F002F800F03CF8C7
:100190000AA090E8000C82448344AAF10107DA45E2
:1001A00001D100F031F8AFF2090EBAE80F0013F0F8
:1001B000010F18BFFB1A43F0010318472C2300005E
:1001C0004C230000103A24BF78C878C1FAD85207EF
:1001D00024BF30C830C144BF04680C6070470000C1
:1001E0000023002400250026103A28BF78C1FBD840
:1001F000520728BF30C148BF0B6070471FB502F0DF
:1002000046F91FBD10B510BD00F058F81146FFF7B4
:10021000F5FF02F031F800F076F803B4FFF7F2FFD3
:1002200003BC00F07DF800000948804709480047FA
:10023000FEE7FEE7FEE7FEE7FEE7FEE7FEE7FEE796
:10024000FEE7FEE704480549054A064B70470000F3
:100250006122000889010008F8000020F80600204B
:10026000F8020020F80200204FF0000200B513460B
:1002700094469646203922BFA0E80C50A0E80C50C6
:10028000B1F12001BFF4F7AF090728BFA0E80C5077
:1002900048BF0CC05DF804EB890028BF40F8042B70
:1002A00008BF704748BF20F8022B11F0804F18BFDD
:1002B00000F8012B7047704770477047754600F093
:1002C0002BF8AE4605006946534620F007008546E8
:1002D00018B020B5FFF7B6FFBDE820404FF000068C
:1002E0004FF000074FF000084FF0000BAC46ACE8B1
:1002F000C009ACE8C009ACE8C009ACE8C00921F00D
:1003000007018D46704710B50446AFF300802046C4
:10031000BDE81040FFF781BF004870471000002083
:1003200001491820ABBEFEE726000200704700001E
:1003300070B582B004460020019021688A68D20717
:1003400011D14FF6C076C7F6FF76886806F17F02B6
:1003500010420BD0606D40F010006065A06D40F061
:100360000100A065012002B070BD00BF8868304068
:1003700040F00100886040F20830C5F204000068D7
:10038000000221D400F00EFE21680A68D20717D1BE
:10039000054602E00868C00712D18868C00704D18A
:1003A0008868304040F00100886000F0FBFD401B91
:1003B00021680328EED30868C007EBD1CAE700BF65
:1003C000002002B070BD00BF40F20800C2F2000081
:1003D000006842F663518009C0F23E51A0FB010162
:1003E000880900EB40000C2101EB8000019001988E
:1003F0000028C7D001980138019001980028C1D089
:1004000001980138019001980028BBD0019801386B
:10041000019001980028B5D0019801380190019809
:100420000028E7D1AEE70000FEE7000070470000BB
:10043000EFF3108072B600BFFEE7000070B582B027
:1004400090F85020012A03D10221084602B070BD65
:10045000002340F2083201930093C5F204020368BE
:10046000A2F54274A3422FD14FF6006E4FF600550D
:10047000CFF6FF7ECFF6FF7552F80E405359234357
:100480005B0721D4D1F800C01368BCF1000F23F43E
:10049000604425D04B6890F8306043EA46332343EC
:1004A0001360535952F80E606FF0FF0555593343EE
:1004B0002B43DB0726D1136840F61F768968B343C8
:1004C000194341EA0C011AE0416D41F020014165F8
:1004D0000121002280F85020084602B070BD00BF04
:1004E0001460515952F80E306FF0FF0696591943B7
:1004F0003143C90708D1116840F61F739943116051
:100500000021E6E70021E4E70021E2E7F0B581B051
:100510000022009290F85020012A03D102210846BF
:1005200001B0F0BD0123076880F85030BB685B075D
:1005300000F19C804B68052B07D8023B032B9ABF28
:10054000CFA454F8233006234B60C3F3012207EBFA
:1005500082020C68156B03F01F031F269E4025EADC
:100560000606C4F3846505FA03F333431363BA68DC
:10057000BB6802F0040203F00803D21840F0918037
:100580000A688B68C2F3406607EB86067569C2F39A
:10059000045207249440A54303FA02F22A437261ED
:1005A000D1E9043CFC68042B66D13A6E3A6E0B68C4
:1005B000C2F3846293FAA3F6C3F3846C6FF3DF4350
:1005C000B6FA86F5002B2C464FF6FF7E08BF644630
:1005D000A242C0F2070E0CD13A6E22F000423A66F7
:1005E0000A6802EA0E03C2F3846C92FAA2F2B2FA2B
:1005F00082F57A6E7A6E002BC2F384622C4608BFB5
:100600006446A2420CD17A6E22F000427A660A68F1
:1006100002EA0E03C2F3846C92FAA2F2B2FA82F5F5
:10062000BA6EBA6E002BC2F384622C4608BF6446D1
:10063000A2420CD1BA6E22F00042BA660A6802EAFF
:100640000E03C2F3846C92FAA2F2B2FA82F5FA6E49
:10065000FA6E002BC2F3846208BF6546AA4220D11D
:10066000FA6E22F00042FA661BE000BF416D41F0D5
:10067000200141650121FCE006220E6807EB83039F
:1006800002EA94021D6E4FF200040CFA02F2C0F26C
:10069000FF3406F0F846254032432A4342F0004238
:1006A0001A66BA68D20750D10C68CA68D7F8B06029
:1006B00023466FF3DF4326EA030C4FF6FF7602F082
:1006C0001805C0F20706EE4000252640C4F27F055B
:1006D00046EA0C06AA42C7F8B06036D193B194FA44
:1006E000A4F2B2FA82F2013202F01E03092B02F0E8
:1006F0001F0310D801229A4003EB430342EA03533D
:1007000015E000BF012202EB946202F01E030A2BE7
:1007100002F01F03EED3012200269A4003EB4303AD
:10072000CFF6206606EB03531A4342F00073C3F37F
:10073000406607EB86068A687569C3F3045307248D
:100740009C40A5439A402A43726109680022C8F27E
:10075000080211422ED040F2083CC5F2040CDCF82D
:1007600000300022CCF25272914203F0E07408BFD4
:1007700013F4000220D00022CCF68432914208BF4C
:1007800013F0807256D00122C8F2000291424FF05D
:10079000000108BF13F480026BD1ACF5427297429E
:1007A00067D1DCF8001021F0E071214341F48001B1
:1007B0004FE000BF00215CE040F2002247F40071EE
:1007C000C5F20402914249D1DCF8001042F66352AE
:1007D00021F0E071214341F40001CCF8001040F217
:1007E0000801C2F200010968C0F23E528909A1FB6A
:1007F0000212910901EB41010C2202EB81010091EF
:10080000009969B3009901390091009961B3009989
:1008100001390091009949B300990139009100997B
:1008200031B3009901390091009900294FF000017E
:10083000E8D11EE040F2002247F40071C5F2040244
:1008400091420FD1DCF8001021F0E071214341F01A
:100850008071CCF8001000210BE000BF002108E0FF
:10086000002106E0002104E0002102E0002100E078
:100870000021002280F85020084601B0F0BD00BFE2
:100880000C00000012000000180000000001000031
:100890000068006C70470000B0B582B004460020CC
:1008A00001904CB1606D58B121688868800012D405
:1008B0008868C00019D54CE0012002B0B0BD00BF6F
:1008C000204600F0F7F80020A06584F85000216869
:1008D00088688000ECD588684FF6C072C5F6FF7254
:1008E000104088608868C00033D44FF6C0728868B2
:1008F000C5F6FF7202F18052104000F1805088600E
:1009000040F20800C2F20000006842F6635280091B
:10091000C0F23E52A0FB02029009022202EB40000C
:1009200001900198A8B100BF019801380190019889
:1009300078B1019801380190019850B101980138BF
:100940000190019828B10198013801900198002880
:10095000EAD18868C00009D4606D40F0100060657D
:10096000A06D40F00100A065012000E000208A6831
:10097000636D02F0040203F01003D218626D40F0C0
:100980007F8022F48172023262658A68D20720D1A8
:1009900040F2083C4FF600534FF60062C5F2040CDB
:1009A000CFF6FF73CFF6FF725CF803E05CF802202D
:1009B0006FF0FF035CF8033042EA0E021A43D207DD
:1009C00007D16268DCF8003023F47C131A43CCF8BA
:1009D0000020627E636B43EA4232D4E902C31A43C9
:1009E00094F8203042EA0C02012B42EA034207D17C
:1009F000D4F824C00023CFF6FE7303EB4C431A4314
:100A0000A36A33B1D4F82CC003F4707343EA0C0327
:100A10001A43D1F80CC04CF20703CFF6F07303EA87
:100A20000C031A43CA608A688B6802F0040203F060
:100A30000803D2182DD194F83030227E5B0094F850
:100A400038C043EA823ECB6844F2020223EA020243
:100A500042EA0E02CA600A69BCF1010F16D140F2E7
:100A6000FD7322EA030CD4E90F32D4E911E543EA1D
:100A70000C031A4342EA0E022A4342F0010207E045
:100A800042F010010120616502B0B0BD22F0010208
:100A90000A6122690B6B012A23F00F0202D1E3697C
:100AA000013B1A430A63616D012262F30101616532
:100AB00002B0B0BD10B5A8B004460020CDE92600B4
:100AC00001A820306821FFF7CFFB20680021C5F284
:100AD0000401884202D028B010BD00BF4FF480400E
:100AE000012101904FF08050039108211F900220B6
:100AF000049107210290CDE9051007904FF0807016
:100B0000089001A800F044FB002818BFFFF790FCF4
:100B100041F24C00C4F20200016841F4005101604E
:100B2000016801F4005100910099016841F004014D
:100B30000160006823A900F00400009000980320E1
:100B400023900B2024900020259040F60000C4F64E
:100B5000000000F039F928B010BD00002DE9F04781
:100B600040F208390446C5F20409D9F80000D4F867
:100B700014800D46B8F1080F00F01F0A02D10827B3
:100B800012E000BFBAF1090F00F28A80012000FADA
:100B90000AF040F22121084200F082802068C068FB
:100BA000C00740F08380042700F0FCF921680A6840
:100BB0003A4241D0606D40F400706065C86810F43E
:100BC000406F0FD1607E68B9086800070AD5606D74
:100BD00020F480706065606DC00403D4606D40F0E7
:100BE00001006065A9F502708142084608BFA9F5B9
:100BF00042700246BAF1090F08BF0A46BAF1050F62
:100C000008BF0A46BAF1000F08BF0A46884208BF6B
:100C10000246D068B8F1080F04D10820086000200F
:100C2000BDE8F087400444BF0020BDE8F0870C20F9
:100C300008600020BDE8F0870646681C2BD065B927
:100C400000F0B0F92168086838420FD008683842CF
:100C5000F6D0AFE708683842ACD100F0A3F9801BAA
:100C60002168A842F6D908683842F3D1606D40F097
:100C700004006065002084F850000320BDE8F08780
:100C80000868384296D1086838427FF493AF086804
:100C900038427FF48FAF08683842F1D08AE700BF4E
:100CA000D9F8000010F4604F3FF47DAF606D40F064
:100CB000200060650120BDE8F087000070B50025C8
:100CC000C5F204050446D5F808630068806840074B
:100CD00003D494F85000012802D1022070BD00BF57
:100CE000012084F850002046FFF722FB20B10021AC
:100CF00084F8501070BD00BF2068626D40F601732B
:100D00009A4302F5807305F58072904218BF05463C
:100D10002A1AB2FA82F206F01F015209636500D165
:100D200019B9636D23F480136365666D0023F604BF
:100D30004FF0000644BFA66D26F00606A6651C26E9
:100D4000066084F8503042B9092919D8012202FA04
:100D500001F140F22122114212D0C168890104D56B
:100D6000616D012262F30D31616581684FF6C072D9
:100D7000C7F6FF72114004318160002070BD00BFD2
:100D8000606D40F480106065E86880015CBF002001
:100D900070BD606D012161F30D306065002070BD94
:100DA000B0B5044600F0FEF8054640F20000C2F27D
:100DB00000000078611C18BF044400BF00F0F2F886
:100DC000401BA042FAD3B0BD2DE9F04F82B00D68B0
:100DD000002D00F0DB8041F6000400F13847C4F636
:100DE000000407224FEAB726A04208BF0622062EBB
:100DF00038BF4FEAB7224FF0000B002700260092C1
:100E00000AE000BF0D68013635FA06F207F1020765
:100E10000BF1040B00F0BA80012202FA06FE15EA7B
:100E20000E08EFD0D1F8049009F0030AAAF10105E9
:100E3000022D15D20323826803FA07F5CB68AA4373
:100E4000BB401A4382604268C9F3001322EA0E02D3
:100E5000B3404FEA460CEC431A43426017E000BF30
:100E6000BAF1030F0ED1C56AC9F3C00225EA0E0517
:100E7000B2402A434FF0030AC2620AFA07F2D4438F
:100E8000BC4625E0032202FA07F5EC43BC46C268E3
:100E90008B68224003FA0CF31A43BAF1020FC260C6
:100EA00016D16FF0030202EA560202440BF01C0551
:100EB0000F23D2F820E003FA05F90B692EEA090E98
:100EC000AB4043EA0E031362D1F8049009F0030A21
:100ED00002680AFA0CF322401A4319F4403F0260F8
:100EE00090D041F26003C4F202031A6840F2004E4F
:100EF00042F001021A601A68C4F2010E02F0010207
:100F00000192019A26F003024FF608497244CFF687
:100F1000FF7952F809C00BF00C050F23009CAB4081
:100F20002CEA030304FA05F52B4342F80930DEF8F6
:100F300008204B6842EA080540F20C4CDC0258BF1E
:100F400022EA0805CEF80850C4F2010CDCF80020B3
:100F50009C0242EA080558BF22EA0805CCF8005076
:100F6000DEF804209C0342EA080558BF22EA08057F
:100F7000CEF80450DEF80020DB0342EA080558BF33
:100F800022EA0805CEF800503CE700BF02B000F0AE
:100F900000B830BCBDE8C08F1823002A08BF282342
:100FA000C150704740F2F400C2F200000068704780
:100FB00040F2000040F2F401C2F20000C2F200016F
:100FC00000780A68104408607047000080B542F25B
:100FD0000000C4F20200016841F480710160032046
:100FE00000F078F8002000F009F800281CBF01206C
:100FF00080BD00F029F8002080BD000070B540F2EF
:101000000006C2F200063178E1B1044640F2080061
:10101000C2F200004FF47A720068B2FBF1F1B0FB4B
:10102000F1F000F09FFF0F2C4FF0010508D838B900
:101030004FF0FF3021460022002500F01FF87460B9
:10104000284670BD012070BD82B041F25800C4F244
:101050000200816841F001018160816801F00101B5
:1010600001910199016841F080510160006800F030
:1010700080500090009802B07047000010B54EF606
:101080000C5CCEF2000CDCF80030C3F3022E8EF0C4
:101090000704042C28BF0424BEF103034FF0FF3ED5
:1010A0000EFA04F438BF0023A14399400EFA03F36B
:1010B0009A43114300F00F0200F160430901043A22
:1010C00003F564436244002848BF02F10C03197021
:1010D00010BD00004EF60C51CEF200010A684FF62A
:1010E000FF031A4060F30A2242F0806040F0FD7076
:1010F0000860704747F20001C4F200010A68B0F5C9
:10110000007F02F4C06031D1B0F5007F2CD00868B8
:10111000012262F34A20086040F20800C2F2000097
:101120000068322250434DF68362C4F21B32A0FBAA
:101130000202900C4A69520511D5421C0FD04A692F
:1011400052050CD558B14A69520508D5012806D078
:101150004A69520503D50228A0F10400EAD1486982
:10116000400544BF0320704700207047B0F5806FF2
:10117000FAD00868022262F34A2008600020704713
:1011800047F20000C4F20000006800F4C06070473D
:101190002DE9F04782B00446407841F28807000705
:1011A000C4F2020730D5606E4FEAB05103290BD864
:1011B000DFE801F002101C25201D002100F0F0FEE8
:1011C000064670B91AE000BF01266078C0060BD54C
:1011D0001EE000BF04F12000002100F099FF064648
:1011E00060B16078C00613D4B2464EE057F87C1C5C
:1011F00041F4803147F87C1C01E000BF606E396823
:1012000021F440010843386000266078C006EBD521
:10121000A06E4FEA306003280AD8B246DFE800F03B
:1012200002102216201D002100F0BAFE0DE000BFC2
:101230004FF0010A4FF00108A07880070DD528E093
:1012400004F12000002100F063FF8246BAF1000F94
:10125000D04612D0A07880071BD4C2462168C807A8
:1012600068D088E057F87C0CB24640F4803047F8EC
:101270007C0CBAF1000FD046ECD13868A16E20F09A
:10128000407008434FF0000A3860B046A0788007ED
:10129000E3D557F8300C10F080590BD157F8300CCB
:1012A00040F0805047F8300C57F8300C00F0805078
:1012B0000190019847F20005C4F20005286840F447
:1012C00080702860FFF76EFE064600BF2868C005E4
:1012D00008D4FFF767FE801B0228F7D94FF0030AF6
:1012E00022E000BFBAF1000F1ED1B86810F44070C0
:1012F00012D0D4F8841088420BD0B868B96820F4B2
:10130000407041F48031B960B96821F48031B9602E
:10131000B860C00740F01C81B868D4F8841020F48D
:1013200040700843C246B860B9F1000F1AD0216876
:10133000C80720D1880726D448072CD4080732D400
:10134000C80638D488063ED4880544D448054AD413
:10135000480650D4080656D4C8055CD4880462D424
:1013600073E000BF57F8300C20F0805047F8300C85
:101370002168C807DED03868A26B20F00300104354
:1013800038608807D8D53868E26B20F00C0010432D
:1013900038604807D2D53868226C20F030001043FE
:1013A00038600807CCD53868626C20F0C000104364
:1013B0003860C806C6D53868A26C20F44070104367
:1013C00038608806C0D53868E26C20F4406010436D
:1013D00038608805BAD53868E26D20F440201043A3
:1013E00038604805B4D53868226E20F440101043A8
:1013F00038604806AED53868226D20F4405010435E
:1014000038600806A8D53868626D20F44040104363
:101410003860C805A2D53868A26D20F4403010436A
:101420003860880411D53A68E06E22F040620243C9
:10143000B0F1806F3A601DD0B0F1006F05D157F860
:101440007C0C40F4801047F87C0C080326D53A68E1
:10145000206F22F040620243B0F1806F3A6015D0F5
:10146000B0F1006F1AD157F87C0C40F4801047F8A7
:101470007C0C13E0201D012100F092FD2168002862
:1014800018BF82460803E2D408E000BF201D0121F6
:1014900000F086FD2168002818BF8246480311D558
:1014A0003A68606F22F040620243B0F1806F3A60A8
:1014B0001CD0B0F1006F05D157F87C0C40F48010BF
:1014C00047F87C0C480425D53968A06F21F04051BD
:1014D0000143B0F1005F396014D0B0F1805F19D1E1
:1014E000201D022100F05CFD11E000BF201D012144
:1014F00000F056FD2168002818BF82464804E3D456
:1015000008E000BF04F12000022100F001FE0028E5
:1015100018BF82462068010406D4C0030CD450468C
:1015200002B0BDE8F08700BF3968E26F21F080416A
:1015300011433960C003F2D53868D4F8801020F028
:10154000004008433860504602B0BDE8F08700BF55
:10155000FFF728FD064641F288354FF0030A00BF29
:10156000B86880073FF5D8AEFFF71CFD801BA84286
:10157000F6D9D9E62DE9F04381B000286BD042F2CC
:101580000008C4F202080446D8F800000D4600F036
:10159000070088420CD2D8F8000020F0070028434A
:1015A000C8F80000D8F8000000F00700A84252D1A7
:1015B000206841F2080910F00201C4F202090DD0BE
:1015C000A268D9F8003003F0F0039A4206D9D9F89E
:1015D000003023F0F0031A43C9F80020C2072DD1D0
:1015E00069B1A168D9F8002002F0F002914206D258
:1015F000D9F8002022F0F0021143C9F80010D8F801
:10160000001001F00701A9420CD9D8F8001021F010
:1016100007012943C8F80010D8F8001001F00701AD
:10162000A94218D141071BD4000723D4D9F80000E0
:10163000D9F8041010F00C002CD131E060680028BB
:101640005ED0022800F07E80032840F0818059F8A7
:10165000081C890158D4012001B0BDE8F08300BF07
:10166000D9F80010E26821F4E0611143C9F80010D4
:101670000007DBD5D9F80000216920F4605040EA6A
:10168000C100C9F80000D9F80000D9F8041010F022
:101690000C0005D00C2829D101F00301012925D126
:1016A00059F8081C090703D4D9F88C10090A02E07C
:1016B00059F8081C090942F2B84201F00F01C0F6BE
:1016C000000252F8211000280A4618BF00220C28F8
:1016D00071D1D9F8040000F00300022846D0032895
:1016E00004BF41F20021C0F27A0143E0042857D040
:1016F00008285BD141F20022C0F27A025BE000BF11
:1017000059F8081C8907A6D5D9F8001021F0030163
:101710000843C9F80000FFF745FC064641F2883748
:10172000D9F80000616800F00C00B0EB810F15D013
:10173000FFF738FC801BB842F2D9032001B0BDE8A6
:10174000F08300BF59F8081C89037FF584AFDBE7FD
:1017500059F8081C49057FF57EAFD5E7206800F0F1
:10176000020100297FF43DAF49E700BF42F200418A
:10177000C0F2F401D9F80400D9F80420C0F3021033
:10178000C2F306225143D9F804200130B1FBF0F036
:10179000C2F34161022202EB4101B0FBF1F20AE027
:1017A00042F20042C0F2F40205E000BF0022002134
:1017B0000C283FF48EAFD9F8000042F2A841C0F3E4
:1017C0000310C0F60001085C00F01F0022FA00F1CF
:1017D00040F20400C2F2000040F208020068C2F2C7
:1017E0000002116001B0BDE8F043FFF707BC000044
:1017F0002DE9F04383B0002800F0068341F2000693
:101800000446C4F20206B068F168227800F00C09C0
:10181000D00601F003081DD42078C00700F08180B5
:10182000B9F1080F76D0B9F10C0F08BFB8F1030F6A
:1018300070D06068B0F5803F07D0B0F5A02F40F0C1
:101840001982306840F480203060306840F4803085
:1018500030601AE2B9F1000F1ED0B9F10C0F08BFC9
:10186000B8F1010F18D0A1693068002900F0AE81ED
:1018700040F001003060FFF795FB054630688007B7
:1018800000F1B681FFF78EFB401B02284FF00300EA
:10189000F4D903B0BDE8F0833068800703D5A069B0
:1018A000002800F0B182256A3068000700F11E812F
:1018B000D6F89400000900F0F000854200F21C8187
:1018C0003068B9F1000F40F008003060306820F057
:1018D000F00040EA050030607068E16920F47F4064
:1018E00040EA0120706040F07D82B06DC00000F1E0
:1018F0001982B06D40F08050B065B06D00F080503E
:1019000002900298FFF73CFCB16D21F08051B16567
:101910000AE200BF3068800303D56068002800F049
:101920007382207880072DD5B9F1040F1CD0B9F14E
:101930000C0F08BFB8F1020F16D0E168306800291B
:1019400000F0B28140F480703060FFF72BFB054659
:10195000306840050FD4FFF725FB401B02284FF0ED
:101960000300F5D995E700BF3068400503D5E0686E
:10197000002800F049827068216920F0F85040EAA0
:1019800001607060207800075ED42078400771D431
:10199000A06A002800F0E282022840F0DF80F068B0
:1019A000E16A00F003028A4240F0F080226B6FF09F
:1019B0000F0300F0700103EB0212914240F0E68049
:1019C000616B00F4FE42B2EB012F40F0DF80A16BAF
:1019D00000F40032073918BF01218A4240F0D68056
:1019E000E26B0023CFF6E07303EA025200F4C00179
:1019F000A2F50012914240F0C980216C4FF07E4266
:101A000002EA016100F0C06001F17E41884240F0CD
:101A1000BD803068800100F1A182306840F08070A4
:101A20003060F06840F08070F060FFF7BBFA044669
:101A30003068800100F19282FFF7B4FA001B02289F
:101A40004FF00300F4D924E76169D6F89400002927
:101A50006ED040F00100C6F89400FFF7A3FA0546E7
:101A6000D6F89400800790D4FFF79CFA401B022818
:101A7000F6D9FBE0B06D10F0805808D1B06D40F0A1
:101A80008050B065B06D00F080500090009847F233
:101A90000007C4F200073868C00513D4386840F462
:101AA00080703860FFF77EFA054600BF3868C005D1
:101AB00008D4FFF777FA401B02284FF00300F5D94E
:101AC000E7E600BFA068012808D0052840F0B080F4
:101AD000D6F8900040F00400C6F89000D6F89000C8
:101AE00040F00100C6F89000B1E000BF306800F09F
:101AF000F00085427FF6E4AEB06DC00000F18A8050
:101B0000B06D40F08050B065B06D00F08050019035
:101B10000198FFF735FBB16D21F08051B165B0F54B
:101B2000007F00F07D80802D40F2D0800320D8E03F
:101B300020F00100C6F89400FFF734FA054600BF14
:101B4000D6F8940080077FF520AFFFF72BFA401BF3
:101B500002284FF00300F3D99BE600BFB9F10C0F48
:101B600000F05281306820F080703060FFF71AFA80
:101B7000044600BF3068800140F1E480FFF712FAAC
:101B8000001B02284FF00300F4D982E6B9F10C0FD4
:101B900000F03A81306840015CBF30685FEAC00005
:101BA00000F13281306820F080703060FFF7FAF980
:101BB00005463068800140F18F81FFF7F3F9401B43
:101BC00002284FF00300F4D963E600BF20F00100C3
:101BD0003060FFF7E7F90546306880077FF51CAEF7
:101BE000FFF7E0F9401B02284FF00300F4D950E65C
:101BF000306840F0080030603068D4E9072120F0F8
:101C0000F00008433060706820F47F4040EA022012
:101C1000706001E6FFF7B4FAB0F5007F7FF483AFA0
:101C2000812D5DD30120A02D88BF022059E000BF87
:101C3000D6F89010002821F00101C6F89010D6F8CF
:101C4000901021F00401C6F8901000F08780FFF793
:101C5000A9F9054641F28837D6F89000800700F1CF
:101C60008F80FFF79FF9401BB842F5D9032003B0DE
:101C7000BDE8F0833168002821F48031316031689B
:101C800021F48021316000F08580FFF78BF9054653
:101C9000306880033FF545AEFFF784F9401B6428A8
:101CA0004FF00300F4D9F4E520F480703060FFF7C2
:101CB00079F90546306840057FF564AEFFF772F9A3
:101CC000401B02284FF00300F4D9E2E5A5F17000B3
:101CD000B0FA80F04009802D08BF022001E000BF6B
:101CE000002042F20001C4F202010A6822F0070259
:101CF00002440A60096801F00701814240F08480D3
:101D0000306840F0080030603068D4E9072120F0E6
:101D1000F00008433060706820F47F4040EA022001
:101D200070605FE0FFF72CFAB0F5007F06D1812DDF
:101D300040D30120A02D88BF022045E0802D3BD953
:101D4000032041E0F0684FF6FC71CFF6EE610840E9
:101D5000F060002003B0BDE8F08300BFFFF722F978
:101D6000054641F28837D6F89000800708D5FFF77E
:101D700019F9401BB8424FF00300F4D989E500BFC0
:101D8000B8F1000F7FF404AEB06D20F08050B06564
:101D9000FEE500BFFFF706F90546306880037FF5D2
:101DA000C0ADFFF7FFF8401B64284FF00300F4D9E3
:101DB0006FE500BF002007E0A5F17000B0FA80F0E9
:101DC0004009802D08BF022042F20001C4F2020146
:101DD0000A6822F0070202440A60096801F007015C
:101DE000814211D1B068F16810F00C0005D00C28C8
:101DF0002AD101F00301012926D13168090707D44E
:101E0000D6F89410090A05E0012003B0BDE8F0837C
:101E10003168090942F2B84201F00F01C0F6000230
:101E200052F8211000280A4618BF00220C2837D18A
:101E3000F06800F00300022810D0032804BF41F22C
:101E40000021C0F27A010DE004281FD0082823D118
:101E500041F20022C0F27A0222E000BF42F20041C9
:101E6000C0F2F401F068F268C0F30210C2F3062277
:101E70005143F2680130B1FBF0F0C2F3416102223C
:101E800002EB4101B0FBF1F20AE000BF42F2004276
:101E9000C0F2F40204E000BF002200210C28C7D0E9
:101EA000B06842F2A841C0F30310C0F60001085C1C
:101EB00000F01F0022FA00F140F20400C2F200001C
:101EC00040F208020068C2F200021160FFF796F8C3
:101ED00000287FF4DEAC9FE4F06848F28C01CFF676
:101EE0009D1104F12C0700EA010C8ECFD4E90F54A8
:101EF0006FF00F0040F2000E00EB0210CFF6E07E14
:101F000041EA0C010EEA05554FF07E420843A5F563
:101F1000001502EA046240EA032002F17E420EF557
:101F2000F014284304EA473710433843F060306820
:101F300040F080703060F06840F08070F060FFF733
:101F400031F804463068800108D4FFF72BF8001BF5
:101F500002284FF00300F5D99BE400BF002003B036
:101F6000BDE8F083411E0020B0EB116F1CBF0120C3
:101F700070474EF21002CEF2000251604EF623512D
:101F8000CEF20001F0230B700721906011607047C2
:101F9000FEE70000FEE70000FEE7000070470000DB
:101FA000F0B581B041F20007C4F20207FA680D46AD
:101FB0009107044614D0F868216800F003008842B5
:101FC0004FF0010040F0A180002900F09E80F868E9
:101FD0006168C0F302100130884232D134E000BFA2
:101FE000206803280CD0022816D0012829D139688E
:101FF000012211F0020182EA510116D120E000BF56
:102000003968890310D43968012211F4802182EAE9
:1020100091410AD114E000BF3968012211F48061B6
:1020200082EA912101D10BE00021FA6863686FF028
:102030000F0622F0730206EB03131A431043F860F5
:1020400011B1012001B0F0BD386820F08060386027
:10205000FEF7A8FF064600BF3868000106D5FEF768
:10206000A1FF801B0228F7D946E000BF012D0FD049
:1020700005BB386948F2FF01CFF6FD710840D4E98D
:1020800002120023CFF6FE7303EA423220E000BFC3
:1020900048F2FF013869CFF6FF112269002301F1F0
:1020A000B461CFF6E0730840A16803EA0252A2F5DA
:1020B00000120DE0386948F2FF016269CFF6FF11A6
:1020C0004FF07E430840A16803EA026202F17E42BB
:1020D00040EA012010433861386840F08060386081
:1020E000FEF760FF054600BF3868000108D4FEF720
:1020F00059FF401B0228F7D9032001B0F0BD00BFF3
:10210000A069396908433861002001B0F0BD0000C2
:10211000F0B581B041F20007C4F20207FA680D463B
:102120009107044614D0F868216800F00300884243
:102130004FF0010040F08D80002900F08A80F8689F
:102140006168C0F302100130884219D136E000BF47
:102150002068032818D002280AD0012810D1396835
:10216000012211F0020182EA510108D019E000BFFA
:102170003968012211F4806182EA912111D1E9B11B
:10218000012001B0F0BD00BF3968890308D4396867
:10219000012211F4802182EA9141F0D001E000BFD8
:1021A0000021FA6863686FF00F0622F0730206EBF5
:1021B00003131A431043F8600029E1D1386820F076
:1021C00080503860FEF7EEFE064600BF386880009B
:1021D00006D5FEF7E7FE801B0228F7D930E000BFE6
:1021E0007969A0684FEA002065B148F2FF02CFF696
:1021F000FF12114022694FF07E4303EA026202F1AE
:102200007E420AE048F2FF02CFF6FD721140E2681A
:102210000023CFF6FE7303EA42320843104378618D
:10222000386840F080503860FEF7BCFE054600BFBD
:102230003868800008D4FEF7B5FE401B0228F7D9A5
:10224000032001B0F0BD00BF60697969084378617F
:10225000002001B0F0BD000070470000FEF7A8BEEE
:102260004EF68850CEF20000016841F47001016022
:1022700070470000FEE7000096B0FEF7A7FE05A835
:1022800004302421FDF7F0FF4FF40070FEF732FF19
:1022900020B1EFF3108072B6FEE700BF4FF48071FB
:1022A000089110210991012111910A210220129116
:1022B00007210590CDE90F00CDE91310159005A871
:1022C000FFF796FA20B1EFF3108072B6FEE700BF79
:1022D0000F20009003200190002668460421CDE9DC
:1022E000026604964FF00408FFF744F920B1EFF3BB
:1022F000108072B6FEE700BF41F24C00CDE90866DF
:10230000C4F20200016840F2004441F08001016023
:102310000168C4F6000401F0800100910099016891
:10232000002241F00401016001684FF0200901F032
:10233000040100910099016841F001010160016808
:1023400001F0010100910099016841F00201016072
:102350000068202100F00200009000982046FEF75F
:102360001BFE05AD01274FF090402946CDE90576CB
:102370000796FEF729FD20462946CDE90597CDE9C8
:102380000766FEF721FD40F290000021C2F2000036
:10239000C5F204011022CDE90666C0E90016C0E9C5
:1023A0000226C0E904680683C76180F82060C0E99E
:1023B0000A6680F83060466380F83860FEF76CFA91
:1023C00020B1EFF3108072B6FEE700BF40F290003C
:1023D0000024C2F2000005A90594FEF72FF828B1E9
:1023E000EFF3108072B600BFFEE700BF40F2700648
:1023F0000225C2F20006C0F23045314641F8085FBE
:10240000062001F1040C03227F2304278CE88D00B1
:1024100040F29000C2F200004C61FEF777F828B15C
:10242000EFF3108072B600BFFEE700BF40F29004E9
:102430000427C2F20004C0F6600702E03220FEF773
:10244000AFFC314641F8085F2046FEF75FF82046B2
:10245000FEF734FC20460521FEF780FB18B9204624
:10246000FEF716FA3060314641F8087F2046FEF745
:102470004DF82046FEF722FC20460521FEF76EFBB4
:102480000028DBD12046FEF703FA7060D6E7F1EEB4
:10249000100A4FF6FF71C0F2C03120EA010040F08F
:1024A0004070E1EE100A70470000000000000000DC
:1024B0000102030406070809A0860100400D03007D
:1024C000801A060000350C0040420F0080841E0078
:1024D00000093D0000127A000024F40000366E016D
:1024E0000048E801006CDC0208250008000000201C
:1024F00010000000C401000818250008100000208A
:10250000E8060000E00100080100000010000000E3
:0825100000093D00000000007D
:040000050800018965
:00000001FF
